:020000040800F2
:1000000000000220116600080D3200080F320008BF
:1000100011320008133200081532000800000000F9
:10002000000000000000000000000000173200087F
:1000300019320008000000001B3200081D320008C1
:100040006166000861660008616600086166000874
:100050006166000861660008616600086166000864
:100060006166000861660008616600086166000854
:100070006166000861660008616600086166000844
:100080006166000861660008616600080000000003
:100090000000000000000000000000006166000891
:1000A0006166000825320008616600086166000884
:1000B0006166000861660008616600086166000804
:1000C00061660008616600086166000861660008F4
:1000D00061660008616600086166000800000000B3
:1000E00061660008616600086166000800000000A3
:1000F0000000000000000000000000006166000831
:100100000000000061660008616600086166000882
:1001100000000000000000000000000000000000DF
:100120006166000861660008616600086166000893
:1001300061660008000000000000000000000000F0
:1001400000000000000000000000000061660008E0
:100150006166000861660008616600086166000863
:1001600061660008616600080000000000000000F1
:10017000000000000000000000000000000000007F
:1001800000000000616600080000000000000000A0
:080190006166000861660008C9
:100198000348044B834202D0034B03B1184770470E
:1001A8004C0800204C0800200000000005480649C3
:1001B8000B1AD90F01EBA301491002D0034B03B16D
:1001C800184770474C0800204C0800200000000029
:1001D80010B5064C237843B9FFF7DAFF044B13B187
:1001E8000448AFF300800123237010BD4C080020A1
:1001F800000000007866000808B5044B1BB10449EC
:100208000448AFF30080BDE80840CFE700000000D5
:100218005008002078660008002301461A46184650
:1002280000F028B938B50A4C0A4D641BA4100AD04E
:1002380004F18043013B05EB8305013C55F8043983
:100248009847002CF9D1BDE8384006F017BA00BF2E
:100258000C6900080869000870B50D4E0D4D761B35
:10026800B61006D00024013455F8043B9847A6423E
:10027800F9D1094E094D761B06F0FAF9B61006D0E9
:100288000024013455F8043B9847A642F9D170BDC3
:10029800FC680008FC68000808690008FC68000899
:1002A800844641EA000313F003036DD1403A41D379
:1002B80051F8043B40F8043B51F8043B40F8043B38
:1002C80051F8043B40F8043B51F8043B40F8043B28
:1002D80051F8043B40F8043B51F8043B40F8043B18
:1002E80051F8043B40F8043B51F8043B40F8043B08
:1002F80051F8043B40F8043B51F8043B40F8043BF8
:1003080051F8043B40F8043B51F8043B40F8043BE7
:1003180051F8043B40F8043B51F8043B40F8043BD7
:1003280051F8043B40F8043B51F8043B40F8043BC7
:10033800403ABDD2303211D351F8043B40F8043B67
:1003480051F8043B40F8043B51F8043B40F8043BA7
:1003580051F8043B40F8043B103AEDD20C3205D377
:1003680051F8043B40F8043B043AF9D2043208D06F
:10037800D2071CBF11F8013B00F8013B01D30B88E1
:1003880003806046704700BF082A13D38B078DD0BF
:1003980010F003038AD0C3F10403D21ADB071CBF91
:1003A80011F8013B00F8013B80D331F8023B20F8FB
:1003B800023B7BE7043AD9D3013A11F8013B00F834
:1003C800013BF9D20B7803704B7843708B788370BC
:1003D80060467047F0B4860746D0541E002A3CD0C9
:1003E800CAB2034602E014F1FF3436D303F8012BF6
:1003F8009D07F8D1032C29D9CDB245EA05250F2C44
:1004080045EA054533D9A4F11006360903F120075A
:1004180007EB061703F1100242E9045542E90255B9
:100428001032BA42F8D1721C14F00C0F03EB02120E
:1004380004F00F0613D0331F23F0030304331344CF
:1004480042F8045B9342FBD106F003042CB1C9B215
:100458001C4403F8011B9C42FBD1F0BC7047344696
:100468001346002CF3D1F8E714460346C2E71A46B0
:100478002646E0E7F0B4184C2568D5F8484114B38F
:1004880065681F2D24DC38B9AB1C0135656044F85C
:1004980023100020F0BC704704EB85060127C6F83E
:1004A800882007FA05F2D4F88871022847EA02077B
:1004B800C4F88871C6F80831E6D1D4F88C311A43EB
:1004C800C4F88C21E0E705F5A674C5F84841D7E7DC
:1004D8004FF0FF30DEE700BF9066000853B94AB915
:1004E800002908BF00281CBF4FF0FF314FF0FF3034
:1004F80001F0C0B8ADF1080C6DE904CE00F006F8C3
:10050800DDF804E0DDE9022304B070472DE9F04787
:10051800089D04468C46002B40F083808A4217468B
:1005280047D9B2FA82F242B1C2F1200024FA00F0AF
:100538009140974040EA010C94404FEA1748230C39
:10054800BCFBF8F61FFA87FE08FB16C143EA014315
:1005580006FB0EF1994209D9FB1806F1FF3080F02D
:100568001981994240F21681023E3B445B1AA4B2BB
:10057800B3FBF8F008FB103344EA034400FB0EFE1B
:10058800A64509D93C1900F1FF3380F00581A6453D
:1005980040F2028102383C4440EA0640A4EB0E04D3
:1005A80000261DB1D4400023C5E900433146BDE80B
:1005B800F08702B9FFDEB2FA82F2002A50D1CB1BD3
:1005C8004FEA174E1FFA87F80126B3FBFEFC210CF1
:1005D8000EFB1C3341EA034108FB0CF38B4207D99D
:1005E80079180CF1FF3002D28B4200F2E980844680
:1005F800C91AA3B2B1FBFEF00EFB101143EA014485
:1006080008FB00F8A04507D93C1900F1FF3302D2D6
:10061800A04500F2D9801846A4EB080440EA0C4033
:10062800BFE78B4209D9002D00F0B1800026C5E94B
:10063800000130463146BDE8F087B3FA83F6002E54
:100648004AD18B4202D3824200F2B880841A61EB0D
:10065800030101208C46002DA8D0C5E9004CA5E770
:10066800C2F1200320FA03F6974001FA02F04FEA9C
:10067800174ED9403043030CB1FBFEF61FFA87F83A
:100688000EFB161143EA014306FB08F1994204FAEE
:1006980002F409D9FB1806F1FF3C80F08D809942DD
:1006A80040F28A80023E3B445B1A81B2B3FBFEF003
:1006B8000EFB103341EA034100FB08F38B4207D9D4
:1006C800791800F1FF3C73D28B4271D90238394452
:1006D800CB1A40EA064678E7C6F1200C03FA06F47E
:1006E80022FA0CF31C4320FA0CF701FA06F34FEA3E
:1006F800144E21FA0CF11F433B0CB1FBFEF91FFA13
:1007080084F80EFB191143EA014109FB08FA8A45EE
:1007180002FA06F200FA06F308D9611809F1FF3067
:1007280048D28A4546D9A9F102092144A1EB0A0118
:10073800BFB2B1FBFEF00EFB101147EA014700FB08
:1007480008F8B84507D9E71900F1FF312ED2B845A6
:100758002CD90238274440EA0940A7EB0807A0FB38
:1007680002894F45C64649461AD317D05DB1B3EB47
:100778000E0267EB010707FA0CFCF2404CEA020292
:10078800F740C5E9002700263146BDE8F0872E4628
:1007980028460BE70646E9E61846FDE64345E5D256
:1007A800B8EB020E69EB04010138DFE70846D2E72F
:1007B80060468DE78146B9E7664675E730464AE701
:1007C800ACF1020C394413E702383C4424E700BF7B
:1007D80003685A004CBF43F0004323F00043184419
:1007E800704700BF2DE9F84329B34F1E044615464C
:1007F8003E464FF0000808EB060101EBD1714910A5
:1008080004EBC1094846FFF7E3FF0346C800083078
:100818008F42204409D0AB4209D8FFF7D9FF0138ED
:10082800A8420AD201F10108E5E7AB4205D988459B
:1008380001D04E1EDFE74FF000094846BDE8F883B7
:10084800012807D0022807D0044B00280CBF1846FF
:100858000020704702487047024870470D0F000893
:10086800110F0008150F000830B5234B83B004465C
:100878008D1E3BB301A92846AFF30080E8B101996A
:100888002A46FFF7AFFF0146B8B1FFF7A1FF4B6853
:10089800A064012B2BD0002B01F1040023DBFFF710
:1008A80097FF0023C4E913030368002B10DBFFF74D
:1008B8008FFF2061002003B030BD00230920236191
:1008C80003B030BD0D490E48091AC9100191D7E788
:1008D800C3F30360FFF7B4FF0028206114BF0020B2
:1008E800092003B030BD0123C4E91303DCE700236A
:1008F80023610520DFE700BF00000000FC68000856
:100908006C6700080368DA0710B5044606D49B072D
:1009180000F1480009D500F04BFC2368590709D5B8
:100928001A070ED5DB0613D510BD00F039FC236875
:100938005907F5D404F1D00000F042FC23681A07E7
:10094800F0D404F5A87000F043FC2368DB06EBD470
:1009580004F5E870BDE8104000F07EBC034600686E
:1009680000B11844704700BF09207047704700BFA6
:1009780070B504460E46316C2046FFF775FF0546F4
:1009880088B9336C63613246236921460120984750
:100998000828F0D0072806D12846316CFFF7E6FF73
:1009A800301D00F0F1FB00F067FE00BF2DE9F047B5
:1009B8000D1D064614460FCDADF5727D0DF10C0CDC
:1009C800ACE80F000FCDACE80F000FCDACE80F007E
:1009D80095E80F0002ADF768D6F818808CE80F008C
:1009E80000232B6021E02B6C73614FF4F0722946D1
:1009F8007AA8FFF755FC33697AAA314650469847DA
:100A0800889BCDE9005821466B64814633463246BF
:100A18000120B8470446E8B94FF4F0727AA928468D
:100A2800FFF73EFCB9F1080F1BD1296C3046FFF7E0
:100A38001BFF09345FFA84FA81460028D3D0AB6BD8
:100A48004AF01001CDE9005832466B640120334664
:100A5800B84708B14FF0090948460DF5727DBDE861
:100A6800F087B9F1070FF5D12046296CFFF77EFF13
:100A780003A800F089FB00BF406C7047F0B5CB6B52
:100A88000B640E1D0F4605460FCEF9B001AC0FC41E
:100A98000FCE0FC40FCE0FC496E80F004FF0FF36ED
:100AA80084E80F00009606E02B696A4629469847B5
:100AB8000828044608D110992846FFF7D5FE0028D3
:100AC800F2D0092079B0F0BD6846FFF71BFF062C6D
:100AD800F7D139462846FFF74BFF00BF30B4DD6B2E
:100AE800C160826119461D64002230BC5EE700BF08
:100AF80070B5C66843690B64AEB903690A46044613
:100B08000D46014602209847072805D008280FD12E
:100B180029462046FFF72CFF3046296CFFF726FFB1
:100B2800281D00F031FB0122FFF740FF00F0A4FD73
:100B380000F0A2FDC2681AB1CA6B0A64002235E748
:100B48009CE700BF704700BF836801460BB10120D6
:100B580018477047012912D009D873B90F2A0CD841
:100B680000EB820218465368009A136070470339F5
:100B7800012994BF012002207047022070470846CF
:100B8800704700BF10B584B0002303AC0A46009438
:100B98001946FFF7DFFF039804B010BD012912D0F2
:100BA80009D873B90F2A0CD800EB8200009A126892
:100BB8004260184670470339012994BF012002207A
:100BC8007047022070470846704700BF10B584B0D0
:100BD800002303AC039200940A461946FFF7DEFF90
:100BE80004B010BDF0B5D36B1364151D8C460646D2
:100BF8000FCDADF50F7D17AC0FC40FCD0FC40FCDC2
:100C08000FC495E80F004FF0FF3784E80F006546E2
:100C1800169710E0FFF7DAFF294616A8B0470346F3
:100C280016AA6946082083B9049B984705280446F4
:100C38000CD0092809D026996846FFF715FE034607
:100C48006A460C2116A8002BE4D0092416A8FFF741
:100C580059FE20460DF50F7DF0BD00BF2DE9F04F80
:100C6800CC6C89B00D4654F8041B0694174600F066
:100C780003081E46002B79D00B0CDAB209048DF854
:100C88001D30022304EB820405918DF81C302B6D76
:100C9800B8F1020F08BFAC6B13F001030CD0384653
:100CA80005A900F073FB18B9082009B0BDE8F08F5A
:100CB800092009B0BDE8F08FD4F800A0BAF1000F00
:100CC800EDD0019300F008030293022E4AD0B4F845
:100CD80000A0B4F802900434AA6C29F0010B0F218B
:100CE80038469344FFF74EFF834539D82AF001026E
:100CF8005A44824294BF002001204FEA490303F07E
:100D080002030AF0010A43EA0A03012B49D0022B25
:100D180032D0002BCCD1B8F1000F02D0002840F01F
:100D2800CD800434D4F800A0BAF1000FCDD105A9C4
:100D3800384600F02BFB0028BAD1019B002BB3D01A
:100D48000F213846FFF71EFF0E2102463846FFF7EF
:100D58003DFF38466A4A0F21FFF738FF0720A8E70A
:100D68000020CAE7D4F804900834B5E70902032341
:100D78000591ADF81C308AE7236823F0004BB8F1E1
:100D8800000F45D128B1029A002A5CD0BBF1000FB0
:100D980074D0002B00DA04340BF1010B04EB8B0444
:100DA800C0E7B8F1000F19D1B0B1D4E90023991CFC
:100DB8004FEAD2723FF47CAF05F158010133049138
:100DC80000F09080201DFFF7C9FD04AB01462846BE
:100DD800AFF3008000285BD10834A3E70D21384623
:100DE800D5F82090FFF7CEFE8145F5D1AB6A9C423D
:100DF800F2D12046FFF7ECFC0F2102463846FFF7F8
:100E0800E5FE38462A460021FFF7E0FE072050E7B6
:100E18000D213846D5F82090FFF7B4FE814501D062
:100E28002368B6E7AB6A9C42FAD104220021C5E9DF
:100E38000B12A318C5F828B06B6323688B4259DBE3
:100E480001230193A8E705F15803CDF80C8004F1BC
:100E5800040AB04691461E460DE00496FFF77EFD53
:100E680004AB014600222846AFF3008009F10109CE
:100E78000AF1040AE8B9D9455046EED138460D21A1
:100E8800FFF780FE049B2862C5E90934062010E7B5
:100E980081460D213846FFF775FEB9F1020F286229
:100EA80025D12B46049A43F82C2F6B62AC6206209E
:100EB800FFE646462368DDF80C806AE72046FFF720
:100EC80087FC04340246AC6328461446AFF300801E
:100ED80000283FF4EDAE384622460F21FFF776FE94
:100EE8000720E6E638460D21FFF74CFE2862049BF2
:100EF8006B62DBE70BF1010004EB80007AE700BFCF
:100F0800000000000023A9E60123A7E60223A5E6C6
:100F18002DE9F0430646C3B015461C46042900F2E5
:100F2800B980DFE801F09A53B7290300002C40F09C
:100F3800B180102A00F2AE800368D80600F1F38071
:100F480020AF384600F092F9B06B0023012404FA70
:100F580003F22A42014604D051F8042B47F8232013
:100F680008460133042BF2D1B063384600F074F917
:100F7800002043B0BDE8F083032C40F08B8094B28E
:100F880004EB1243102B4FEA124500F283800368EA
:100F98001F0700F1D08020AF384600F03BF907EB7F
:100FA800C501B56B54B10B46E81A01EBC401E40066
:100FB8001A5843F8042B8B42FAD125443846B563B6
:100FC80000F006F9002043B0BDE8F083012C4FEA99
:100FD800124895B25AD0052C5CD108EB0509B9F135
:100FE800200F57D8B8F10F0F77D9A946002D40F038
:100FF8008880B36B6DB320AF4FF0000907EBC807CB
:10100800043F03EBC50553F8041B47F8041FAB4224
:10101800F9D1B9F1000F0FD06F464146102938BFFA
:10102800102107EBC101843903EBC90553F8040B00
:1010380041F8040FAB42F9D1012C00F08480B8F1DB
:101048000F0FB56345D9B9F1000F02D0684600F01B
:10105800B7F8002043B0BDE8F083DCB9876B2346BE
:10106800012094B206F1040C00FA03F22242394638
:1010780004D051F8042B4CF823200F460133102BD1
:10108800F2D115F40050E4D1B76304E008EB05038E
:10109800102B03D9022043B0BDE8F083B8F10F0F3D
:1010A800F8D83368DA0706D5304623F0030340F84A
:1010B800483B00F079F820AF384600F075F8B36B7C
:1010C800002D99D11D460435B563384600F068F8FF
:1010D800BFE720A800F06CF8B5E7B9F1100F40D9C8
:1010E800A9F110093368D90708D523F00103304660
:1010F80043F0020340F8483B00F05EF8B9F1000FF6
:1011080032D033685A0720D4B8F10F0F25D96F466B
:101118003846C8F1100500F057F8002DB36B7FF77B
:101128007CAF20AF6AE723F01003336006F5E87060
:1011380000F09CF804E723F00803036000F5A870AA
:1011480000F068F827E720AFBDE7304623F0040336
:1011580040F8D03B00F038F8D6E720A800F02CF88B
:10116800D5E74FF00009BDE7B8F10F0F3FF641AFE3
:1011780020AF384600F020F8B36B002D7FF43CAF69
:10118800384600F015F864E700F1340191E83800BA
:101198009C46A6464CF8045D90E8FF0FE54600BD66
:1011A80090EC210B704700BF80EC210B704700BF0B
:1011B80090EC200B704700BF80EC200B704700BFFD
:1011C800D0EC200B704700BFC0EC200B704700BF6D
:1011D800F0EC0201F0EC0211F0EC0221F0EC02312B
:1011E800F0EC0241F0EC0251F0EC0261F0EC02711B
:1011F800F0EC0281F0EC0291F0EC02A1F0EC02B10B
:10120800F0EC02C1F0EC02D1F0EC02E1F0EC02F1FA
:10121800704700BFE0EC0201E0EC0211E0EC0221B3
:10122800E0EC0231E0EC0241E0EC0251E0EC02615A
:10123800E0EC0271E0EC0281E0EC0291E0EC02A14A
:10124800E0EC02B1E0EC02C1E0EC02D1E0EC02E13A
:10125800E0EC02F1704700BFB0FC0181B0FC0191E5
:10126800B0FC01A1B0FC01B1704700BFA0FC018136
:10127800A0FC0191A0FC01A1A0FC01B1704700BF36
:10128800EC4600B52DE900502DE9FF1F4FF0000393
:101298002DE90C0001A9FFF7F1FBDDF840E012B0E1
:1012A800704700BFEC4600B52DE900502DE9FF1F3F
:1012B8004FF000032DE90C0001A9FFF719FCDDF838
:1012C80040E012B0704700BFEC4600B52DE9005071
:1012D8002DE9FF1F4FF000032DE90C0001A9FFF7CE
:1012E80029FCDDF840E012B0704700BFEC4600B5BD
:1012F8002DE900502DE9FF1F4FF000032DE90C00E8
:1013080001ABFFF7EBFBDDF840E012B0704700BF20
:10131800EC4600B52DE900502DE9FF1F4FF0000302
:101328002DE90C0001AAFFF75DFCDDF840E012B0E2
:10133800704700BF027A7AB9437AA3B14268013B89
:1013480010B4437213680321141D01721A02446019
:10135800026010BC180E70470368013A02721A0244
:101368000260180E7047B020704700BF00B585B006
:1013780003AA0023009219460C22FFF7EBFB0398FF
:1013880005B05DF804FB00BFF0E700BF2DE9F043AE
:10139800054685B00E464FF000083046FFF7CAFFF5
:1013A800B028044600F0B280070620D500F0F0030C
:1013B800802B4DD0902B36D0A02B60D0B02B74D082
:1013C800C02B00F08B8000F0F803D02B0BD100F07D
:1013D8000702013242F40022052301212846FFF7C3
:1013E80097FD0028D9D0092005B0BDE8F0830DF19C
:1013F8000C09002319468700CDF800900D222846D5
:10140800FFF7A8FBFFB2039BCDF8009004376006F6
:101418004CBFDF1BFF18002319460D2228460397EF
:10142800FFF7BCFBB9E700F00D030D2BDBD003AFD2
:10143800002300F00F02194600972846FFF78AFBA1
:101448000023009719460D222846FFF7A7FBA4E7BB
:101458003046FFF76FFF24022043B0F5004FC2D09B
:1014680004010023A2B219462846FFF751FD0028BF
:10147800B9D114F4004F18BF4FF001088DE7C243EB
:1014880002F007034FF47F621A41010702F47F62FA
:101498004FF0000348BF42F4804219462846FFF740
:1014A80037FD00283FF479AF9DE7B12833D0B22843
:1014B80000F08B80B32839D000F0FC03B42B92D015
:1014C80000F007020132012342F40022194628469F
:1014D800FFF71EFD00283FF460AF84E7C62842D01E
:1014E800C7284CD000F0F803C02B5BD0C82860D0C8
:1014F800C9287FF478AF3046FFF71CFF020300F0DD
:101508000F0002F470220130024365E7B8F1000FC2
:1015180018D0002068E73046FFF70CFF0246002885
:101528003FF461AF10F0F003D0D05CE73046FFF72E
:1015380001FF010300F00F0001F47021421C012398
:101548000A43C3E703AC43460E22414600942846AB
:10155800FFF700FB0094284643460F224146FFF759
:101568001DFB404640E73046FFF7E4FE010300F06C
:101578000F0001F47021421C03230A43A6E73046FA
:10158800FFF7D8FE024600283FF42DAF10F0F00315
:101598007FF429AF04212846FFF7BAFC00283FF45E
:1015A800FCAE20E700F00F020132032342F42022B0
:1015B8008CE73046FFF7BEFE00F0F00200F00F03A4
:1015C8001032013343EA023206E700230DF10C0919
:1015D8000D221946CDF800902846FFF7BBFA304691
:1015E800FFF7A8FE02064FF002070CD5039B00F098
:1015F8007F00B840034430460393FFF79BFE030681
:1016080007F10707F2D4039BCDF8009000F07F04A0
:1016180003F50172BC400023144419460D222846E4
:101628000394FFF7BBFAB8E610B5C26C84B05368F0
:1016380003248DF80C401B0202F108040846D279F5
:10164800019301A902948DF80D20FFF79FFE04B0C5
:1016580010BD00BF08B5FFF797FE806C08BD00BF3E
:1016680008B5FFF791FEC06CC379023300EB830025
:1016780008BD00BF704700BF08B5062000F090F80D
:10168800012000F0F5FC00BF10B58021044600F0F1
:10169800BFF8C4F8DC0240B1031F00227C3043F8D5
:1016A800042F8342FBD1002010BD4FF0FF3010BD46
:1016B800D0F8DC320BB100207047E5E71F2970B580
:1016C800054609D8D0F8DC3216460C464BB153F81B
:1016D800240043F8246070BD162202604FF0FF30EA
:1016E80070BDFFF7D1FF10B9D5F8DC32EFE74FF046
:1016F800FF3070BD1F2938B522D8D0F8DC22054646
:101708000C466AB152F8213053B1012B16D0591C3E
:1017180010D00025204642F824509847284638BD66
:10172800284600F073F8224601462846BDE83840AE
:1017380000F058B816230360012038BD002038BDDA
:10174800162303604FF0FF3038BD00BF1F2923D890
:1017580038B5D0F8DC3205460C4683B153F824205E
:1017680003EB84034AB1511C11D0012A0DD0002586
:1017780020461D609047284638BD012038BDFFF738
:1017880083FF30B9D5F8DC32E8E7032038BD022002
:1017980038BD4FF0FF3038BD4FF0FF30704700BF05
:1017A800024B01461868FFF7A5BF00BF00000020E4
:1017B800024B0A4601461868FFF780BF0000002068
:1017C800034B1868D0F8DC320BB1002070475BE798
:1017D80000000020024B01461868FFF7B7BF00BFA2
:1017E8000000002038B50B46074C05461146184640
:1017F8000023236000F026FC431C00D038BD23687A
:10180800002BFBD02B6038BD8815002000F012BCDF
:101818002DE9F04F01F10B05162D83B0064623D8AC
:10182800102900F2B98000F0A5FA1025182302202B
:10183800CD4F3B44A3F108025C68944200F0B980A4
:10184800636823F003032344D4E902515A68E9602A
:1018580042F0010230468D605A6000F08DFA08347B
:10186800204603B0BDE8F08F35F0070500F19480FD
:10187800A94200F2918000F07DFAB5F5FC7FC0F036
:101888009D816B0A00F08F80042B00F27381AB09F5
:1018980003F1390003F1380CC300B34F3B44A3F103
:1018A80008015C68A14206D10CE0002A80F22B8175
:1018B800E468A14206D0636823F003035A1B0F2A89
:1018C800F3DD60463C69DFF8A4C264457CD06368F8
:1018D80023F003035A1B0F2A00F37E81002AC7E96D
:1018E80004CC80F26F81B3F5007F80F01A81DB08A9
:1018F800591C7A6857F83180C4F808804FF0010EF7
:101908009B100EFA03F307EBC10E1343AEF1080266
:10191800E2607B6047F83140C8F80C40821001242F
:1019280094409C4256D81C4206D120F00300640023
:101938001C4200F10400FAD007EBC009CE468046ED
:10194800DEF80C309E4507D120E1002A80F227817D
:10195800DB689E4500F01A81596821F003014A1B93
:101968000F2AF2DDD3E9028E5C1945F001055D60AE
:1019780042F00105C8F80CE03046CEF80880C7E907
:101988000444C4E902CC65605A50009300F0F4F9AD
:10199800009B03F1080402E00C2333600024204676
:1019A80003B0BDE8F08F4FF4007340204FF03F0CB8
:1019B80073E7DC68A34208BF02307FF441AF3C699B
:1019C800DFF8A8C1644582D17B6882100124944065
:1019D8009C42A8D9BC68636823F00308A84503D3D0
:1019E800A8EB05030F2B7EDCDFF88491D7F80824D9
:1019F800D9F80030013204EB080A2B4400F0378193
:101A080003F580530F3323F47F6B2BF00F0B5946EC
:101A1800304600F0B3F9411C024600F0F7808245D9
:101A280000F2F280D9F804105944C9F804100B46A2
:101A380000F05381D7F8081401311BBFA2EB0A0A42
:101A48005344C7F80824C9F8043012F0070300F01B
:101A58001A81C3F108010A44C3F58051934408313F
:101A6800A1EB0B01C1F30B0A5146304601930092DA
:101A780000F084F9421CDDE9002300F05381831A49
:101A880003EB0A0BD9F80410BA604BF00103514478
:101A9800BC425360C9F8041000F02B81B8F10F0F55
:101AA80040F229816368A8F10C0020F0070003F0D8
:101AB800010304EB000C03434FF0050E0F2863608D
:101AC800CCE901EE00F2358153681446D9F82C2090
:101AD8008A42D9F8302038BFC9F82C108A4238BF5A
:101AE800C9F8301094E0621943F0010345F001058C
:101AF80065603046BA60536000F03EF9083420460D
:101B080003B0BDE8F08F2344E1685A68A56842F045
:101B18000102E96030468D605A6000F02DF9083402
:101B28003DE75A0A042A69D9142A00F2BE8002F154
:101B38005C01C9005B3207EB010E7958AEF1080E63
:101B48008E4500F097804A6822F003029A4202D933
:101B580089688E45F7D1D1F80CE07B68C4E9021E8C
:101B6800CEF80840CC60D9E63004002038040020C4
:101B780068080020142B59D9542B00F29E802B0B97
:101B880003F16F0003F16E0CC30086E608F101084B
:101B980018F0030F0EF1080E7FF4D2AE51E019448D
:101BA8001C464A68DB6854F8085F42F001024A6044
:101BB8003046EB609D6000F0DFF8F0E6E80805F1DC
:101BC800080335E6234430465A6842F001025A6059
:101BD800083400F0D1F8E2E6611945F0010E42F050
:101BE8000105C4F804E03046C7E90411C1E902CC94
:101BF8004D60E25000F0C0F80834D0E69A0902F1CE
:101C08003901C900383296E7BC4260D0BC686368C5
:101C180023F0030BAB45ABEB050302D30F2B3FF7C8
:101C280062AF304600F0A8F80024B8E603F15C0083
:101C380003F15B0CC30030E659F808394B4540F016
:101C4800968010F0030F00F1FF30F5D17B6823EA8E
:101C580004037B6064009C423FF6BCAE1CB9B9E645
:101C6800640008F104081C42FAD0404664E603F117
:101C7800100BCCE67B6892104FF0010808FA02F2CC
:101C880013437B606AE702EB0B014942C1F30B0A7D
:101C9800514630460193009200F070F8431CDDE98C
:101CA80000237FF4ECAE9A46ECE6542A26D81A0BA9
:101CB80002F16F01C9006E323DE7B3F5AA7F26D85D
:101CC800EB0B03F1780003F1770CC300E5E5D9F8D5
:101CD80004305B44C9F80430ACE6CAF30B000028B2
:101CE8007FF4A8AE08EB0B03BC6843F00103636004
:101CF800ECE61446EAE60123536092E7B2F5AA7FC0
:101D080021D8DA0B02F17801C900773213E740F2E3
:101D18005452934221D8AB0C03F17D0003F17C0CA3
:101D2800C300BAE5083B9B44ABEB020B4FF0000A3B
:101D3800A8E604F10801304600F082F8BC68D9F83A
:101D480004106368C2E640F254518A420BD89A0CD8
:101D580002F17D01C9007C32EDE64FF47E737F20ED
:101D68004FF07E0C99E54FF47E717E22E3E67B68A6
:101D780070E700BF704700BF704700BF38B5074C19
:101D8800002305460846236000F064F9431C00D090
:101D980038BD2368002BFBD02B6038BD8815002088
:101DA800F8B5244F0C460646FFF7E4FFBB685D68AC
:101DB800C4F57E610F3125F00305294421F47F61C4
:101DC80021F00F01A1F58054B4F5805F07DB0021F5
:101DD8003046FFF7D3FFBB682B44984204D0304607
:101DE800FFF7CAFF0020F8BD61423046FFF7C6FF83
:101DF80001300DD0104BBA6819682D1B45F001054C
:101E08003046091B55601960FFF7B6FF0120F8BD81
:101E180000213046FFF7B2FFBA68831A0F2BDEDDC8
:101E2800064C0549246843F00103001B5360086011
:101E3800D5E700BF300400206C08002038080020D7
:101E480000295ED0F8B50F460646FFF793FF57F80E
:101E580004CC754D2CF00103A7F10800C218A9683D
:101E68005468914224F0030400F084801CF0010FB0
:101E7800546002EB040133D157F808EC4968A0EB31
:101E88000E0005F1080C87686745734401F00101ED
:101E980060D0D0F80CE0C7F80CE0CEF80870002944
:101EA80000F08D8043F0010141601360B3F5007FBD
:101EB80030D2DB08591C6C689A10012393402343E5
:101EC80005EBC10255F831406B60083AC0E902429F
:101ED80045F83100E0603046BDE8F840FFF74CBFF8
:101EE8004968C9070ED4234405F1080C9168614577
:101EF80043F001046BD0D268CA6091604460C3505B
:101F0800D4E7704743F00101B3F5007F47F8041C9C
:101F18001360CED35A0A042A46D89A0902F139071F
:101F2800FF0002F13801EC19EA59083C944255D0F7
:101F3800516821F00301994202D992689442F7D17D
:101F4800D468C0E90224A060D0603046BDE8F840FB
:101F5800FFF712BF002962D1D2E90221234443F0DE
:101F68000104D1608A604460C3503046BDE8F8403F
:101F7800FFF702BF1CF0010F234407D157F8082CC4
:101F8800801A1344D0E90212CA609160274A126885
:101F980043F001019A424160A8609CD8244B304626
:101FA8001968FFF7FDFE96E7142A0AD9542A1DD8A6
:101FB8001A0B02F16F07FF0002F16E01B3E7234429
:101FC80094E702F15C07FF0002F15B01ABE7C5E9AA
:101FD8000400C0E902CC4460C3507CE76B688910F8
:101FE800012707FA01F119436960AAE7B2F5AA7F48
:101FF80006D8DA0B02F17807FF0002F1770192E7C1
:1020080040F254518A4206D89A0C02F17D07FF002B
:1020180002F17C0187E74FF47E777E2183E743F066
:1020280001014160136056E7300400203C0800209D
:1020380068080020024B58221A604FF0FF307047A2
:1020480088150020024B58221A604FF0FF30704765
:1020580088150020044A05491368002B08BF0B4661
:1020680018441060184670479C08002090150020FE
:10207800FEE700BFF0B58DB00024079408940994DA
:102088000A940B940194334B1A6B42F010021A63B2
:102098001A6B02F010020192019A02941A6B42F034
:1020A80004021A631A6B02F004020292029A039461
:1020B8001A6B42F080021A631A6B02F080020392D4
:1020C800039A04941A6B42F001021A631A6B02F025
:1020D80001020492049A05941A6B42F002021A63F0
:1020E8001A6B02F002020592059A06941A6B42F0E6
:1020F80008021A631B6B03F008030693069B164F2E
:1021080022464FF4F561384601F0DAFB134D2246BA
:102118001121284601F0D4FB4FF4F56307930126FB
:10212800089609940A9407A9384601F0F5FA11238C
:102138000793089609940A9407A9284601F0ECFA2F
:102148000A2307930894099407A9284601F0E4FA9A
:102158000DB0F0BD0038024000100240000C0240F3
:10216800012800D070474FF6FF739942FAD170B535
:10217800A4B00E4E13AC0E4D0FCD0FC40FCD0FC42F
:102188000FCD0FC495E80F0084E80F007823129351
:10219800482206F10C016846FEF782F896E80E0020
:1021A800044800F0DBFA24B070BD00BF3C090020F1
:1021B800A40F00202411002008B50268044B1B68F6
:1021C8009A4200D008BD034800F008FCFAE700BFB7
:1021D800A40F00202411002072B6FEE708B50A48B3
:1021E8000A4B03600A4B436000238360C3604FF4CB
:1021F8008042026143618361C361036201F0BCFCF8
:1022080000B908BDFFF7E8FFE808002000540040C7
:10221800A086010008B50A480A4B03600A4B4360D0
:1022280000238360C3604FF480420261436183618D
:10223800C361036201F0A0FC00B908BDFFF7CCFF41
:102248003C090020005C0040A086010008B50B484E
:102258000B4B03604FF40072426000238360C3603D
:1022680002614FF4FA5242618361C361036201F073
:10227800E7FE00B908BDFFF7AFFF00BF90090020D7
:102288000038004008B50B480B4B03604FF4007250
:10229800426000238360C36002614AF6444242619F
:1022A8008361C3610123036201F0CAFE00B908BD5E
:1022B800FFF792FFD8090020003C004008B50B4802
:1022C8000B4B03604FF40073436000238360C360CB
:1022D80003614AF6444242618361C361036201F0CB
:1022E800AFFE00B908BDFFF777FF00BF200A002046
:1022F8000034014008B50C480C4B036000234360D0
:102308008360C36003614361836103F017F930B9E7
:102318004FF40061044803F02DF910B908BDFFF728
:102328005BFFFFF759FF00BF700E0020002C014033
:1023380008B50C480C4B03604FF4827343600023CC
:102348008360C360036143618361C3610362436265
:1023580083620A23C36203F05FF900B908BDFFF77F
:102368003BFF00BFF40E00200030014008B50C48C8
:102378000C4B03604FF48273436000238360C36097
:10238800036143618361C3610362436283620A2319
:10239800C36203F041F900B908BDFFF71DFF00BF94
:1023A8004C0F00200050014008B50A480A4B036052
:1023B8004FF4E133436000238360C36003610C2260
:1023C80042618361C36103F075FC00B908BDFFF782
:1023D80003FF00BF641000200010014008B50A4840
:1023E8000A4B03604FF4E133436000238360C3600A
:1023F80003610C2242618361C36103F05BFC00B995
:1024080008BDFFF7E9FE00BFA4100020004400400B
:1024180008B50A480A4B03604FF4E13343600023D0
:102428008360C36003610C2242618361C36103F06E
:1024380041FC00B908BDFFF7CFFE00BFE410002043
:102448000014014008B50B484FF0A0430360042373
:1024580043600222C260002303618261C361036298
:102468004362C362036302F0E9F800B908BDFFF7ED
:10247800B3FE00BF680A002000B585B000230093B2
:102488000193029303931348134A026043608360E5
:102498000361037680F82030C362104A8262C36009
:1024A8000122C26180F83030426100F0CDFF68B986
:1024B8000A230093012301930023029369460548E8
:1024C80000F0EEFF20B905B05DF804FBFFF784FECD
:1024D800FFF782FEA0080020002001400100000F45
:1024E80008B50948094B03600F2343600023836044
:1024F8004FF6FF72C2600361836103F013FA00B9FB
:1025080008BDFFF769FE00BFA40F0020004401408A
:1025180000B589B0002303930493059306930793AA
:10252800019302931248134A0260436083604FF09C
:10253800FF32C2600361836103F0F4F990B90023AC
:102548000393049303A90A4803F059FA60B90023D6
:102558000193029301A9064803F07AFA30B909B049
:102568005DF804FBFFF738FEFFF736FEFFF734FE91
:10257800E40F0020000C004000B587B00023019351
:1025880002930393049305930D480E4A0260436037
:1025980083604FF6FF72C2600361836103F0C2F982
:1025A80050B900230193029301A9054803F027FAC3
:1025B80020B907B05DF804FBFFF70EFEFFF70CFE2D
:1025C800241000200040014000B59BB030220021BB
:1025D8000EA8FDF7FFFE002309930A930B930C93B3
:1025E8000D9303930493059306930793089301931C
:1025F800264A116C41F080511164126C02F080522D
:102608000192019A0293224B1A6842F440421A60DE
:102618001B6803F440430293029B03230E934FF479
:1026280080320F92012211921022129202221492E9
:102638004FF48001159104211691482117911892A1
:1026480019930EA802F08EF8C8B90F230993002138
:102658000A910B910C910D9109A802F0DFFA80B94B
:1026680001230393C02305930423049302230693B1
:1026780003A802F0A9FB30B91BB05DF804FBFFF713
:10268800ABFDFFF7A9FDFFF7A7FD00BF003802402B
:102698000070004010B500F0FDFDFFF795FFFFF753
:1026A800E9FCFFF79BFDFFF7B5FDFFF7CFFDFFF74F
:1026B800E9FDFFF703FEFFF71DFEFFF739FEFFF701
:1026C80055FEFFF771FEFFF789FEFFF7A1FEFFF742
:1026D800B9FEFFF7D1FEFFF703FFFFF719FFFFF77A
:1026E8004BFF094C0021204600F017F84FF4FA7010
:1026F80000F0FCFDFF21204600F00FF84FF4FA70BF
:1027080000F0F4FDEDE700BF2411002008B54FF6F6
:10271800FF710120FFF724FD08BD70B506460D4680
:10272800002408E0A0010130402229463044FDF78A
:1027380051FE0134E4B2072CF4D970BD00B583B062
:1027480013460A2200920A4690F85C1400F581604C
:1027580001F0F0FA012003B05DF804FB84B02DE924
:10276800F041044607A880E80E0004F5816554226C
:1027780001462846FDF794FD44F62063012294F8AB
:102788005C14284601F092FB002584F85D54AE23C2
:1027980084F85E3404F25D46022231462046FFF793
:1027A800CDFF84F85D54202784F85E7402223146F8
:1027B8002046FFF7C3FF84F85D544FF0100884F8F3
:1027C8005E84022231462046FFF7B8FF84F85D5444
:1027D800B02384F85E34022231462046FFF7AEFF6C
:1027E80084F85D54C82384F85E34022231462046BA
:1027F800FFF7A4FF84F85D5484F85E540222314642
:102808002046FFF79BFF84F85D5484F85E8402221B
:1028180031462046FFF792FF84F85D54402384F840
:102828005E34022231462046FFF788FF84F85D5463
:10283800812384F85E34022231462046FFF77EFF6A
:1028480084F85D54FF2384F85E3402223146204622
:10285800FFF774FF84F85D54A12384F85E340222E4
:1028680031462046FFF76AFF84F85D54A62384F8B2
:102878005E34022231462046FFF760FF84F85D543B
:10288800A82384F85E34022231462046FFF756FF1B
:1028980084F85D543F2384F85E3402223146204692
:1028A800FFF74CFF84F85D54A42384F85E340222B9
:1028B80031462046FFF742FF84F85D54D32384F85D
:1028C8005E34022231462046FFF738FF84F85D5413
:1028D80084F85E54022231462046FFF72FFF84F821
:1028E8005D54D52384F85E34022231462046FFF732
:1028F80025FF84F85D54F02384F85E3402223146C3
:102908002046FFF71BFF84F85D54D92384F85E3412
:10291800022231462046FFF711FF84F85D54222336
:1029280084F85E34022231462046FFF707FF84F818
:102938005D54DA2384F85E34022231462046FFF7DC
:10294800FDFE84F85D54122384F85E340222314679
:102958002046FFF7F3FE84F85D54DB2384F85E34E9
:10296800022231462046FFF7E9FE84F85D5484F8D8
:102978005E74022231462046FFF7E0FE84F85D547B
:102988008D2384F85E34022231462046FFF7D6FEB6
:1029980084F85D54142384F85E34022231462046BC
:1029A800FFF7CCFE84F85D54AF2384F85E3402222E
:1029B80031462046FFF7C2FE84F85D542E2384F882
:1029C8005E34022231462046FFF7B8FE1DA802F009
:1029D80088FE2046BDE8F04104B07047F8B50446CB
:1029E80000252AE0002784F85D74A5F1500384F8D7
:1029F8005E3404F25D46022231462046FFF79EFE11
:102A080084F85D7484F85E74022231462046FFF72C
:102A180095FE84F85D74102384F85E3402223146F2
:102A28002046FFF78BFEA90140236354412221442D
:102A38002046FFF783FE0135EDB2072DD2D9F8BD48
:102A480082B0002100910B4B5A6C42F480425A64C8
:102A58005A6C02F480420092009A01911A6C42F07A
:102A680080521A641B6C03F080530193019B02B0DF
:102A7800704700BF0038024030B589B00023039387
:102A88000493059306930793026803F1804303F5C3
:102A980090339A4201D009B030BD0024009403F568
:102AA8008C335A6C42F480725A645A6C02F4807205
:102AB8000092009A01941A6B42F004021A631A6B8E
:102AC80002F004020192019A02941A6B42F0010288
:102AD8001A631B6B03F001030293029B0723039302
:102AE80003250495059403A9054800F015FE012364
:102AF80003930495059403A9024800F00DFECAE764
:102B080000080240000002402DE9F0438BB000238A
:102B1800059306930793089309930368364A9342EB
:102B280005D0364A934227D00BB0BDE8F083002584
:102B38000095334C236B43F002032363236B03F0AC
:102B480002030093009BC0230593122306930123DD
:102B58000793032308930423099305A9294800F040
:102B6800DBFD0195236C43F400132364236C03F409
:102B780000130193019BD7E700250295204C236B96
:102B880043F001032363236B03F001030293029BC9
:102B98000395236B43F002032363236B03F00203C3
:102BA8000393039B4FF48079CDF814904FF01208EB
:102BB800CDF8188001270797032608960423099360
:102BC80005A9114800F0A8FDCDF81490CDF818809B
:102BD800079708960923099305A90A4800F09CFD60
:102BE8000495236C43F400032364236C03F400036B
:102BF8000493049B98E700BF00540040005C004029
:102C080000380240000402400000024070B590B055
:102C180000230B930C930D930E930F9303686F4A45
:102C2800934208D06E4A934252D06E4A934200F0C3
:102C3800B28010B070BD002400946B4B1A6C42F443
:102C480080421A641A6C02F480420092009A01943D
:102C58001A6B42F004021A631A6B02F00402019222
:102C6800019A02941A6B42F001021A631A6B02F07D
:102C780001020292029A03941A6B42F002021A634A
:102C88001B6B03F002030393039B08230B9302259A
:102C98000C950D940E9405260F960BA9534800F039
:102CA8003BFD40230B930C950D940E9406230F9334
:102CB8000BA94F4800F030FD4FF440530B930C958F
:102CC8000D940E940F960BA94A4800F025FDB0E725
:102CD80000240494444B1A6C42F400421A641A6C9F
:102CE80002F400420492049A05941A6B42F002021C
:102CF8001A631A6B02F002020592059A06941A6B7F
:102D080042F001021A631A6B02F001020692069A57
:102D180007941A6B42F004021A631A6B02F0040259
:102D28000792079A08941A6B42F008021A631B6B01
:102D380003F008030893089B4FF481630B93022563
:102D48000C950D940E9406260F960BA9294800F0B1
:102D5800E3FC4FF400430B930C950D940E940F96DF
:102D68000BA9234800F0D8FC4FF400630B930C9593
:102D78000D940E9405260F960BA91C4800F0CCFC68
:102D880040230B930C950D940E940F960BA91A489B
:102D980000F0C2FC4DE700220992134B596C41F434
:102DA80000515964596C01F40051099109990A922A
:102DB800196B41F0100119631B6B03F010030A93A0
:102DC8000A9B54230B9302230C930D920E92052316
:102DD8000F930BA9094800F09FFC2AE70038004030
:102DE800003C004000340140003802400008024026
:102DF8000000024000040240000C024000100240A3
:102E0800F0B58BB0002305930693079308930993B5
:102E18000268294B9A4201D00BB0F0BD00240194FE
:102E280003F586335A6C42F400625A645A6C02F411
:102E380000620192019A02941A6B42F004021A632A
:102E48001A6B02F004020292029A03941A6B42F07F
:102E580008021A631A6B02F008020392039A049498
:102E68001A6B42F002021A631B6B03F0020304930D
:102E7800049B4FF4B853059302270697079403263B
:102E880008960C25099505A90C4800F045FC042373
:102E98000593069707940896099505A9084800F030
:102EA8003BFC20230593069707940896099505A9E6
:102EB800044800F031FCAFE7002C01400008024054
:102EC800000C024000040240F0B58DB000230793C7
:102ED800089309930A930B9303683C4A934204D0DE
:102EE8003B4A934239D00DB0F0BD00240194394BD0
:102EF8005A6C42F480525A645A6C02F4805201921D
:102F0800019A02941A6B42F001021A631A6B02F0DA
:102F180001020292029A03941A6B42F002021A63A7
:102F28001B6B03F002030393039BB0230793022751
:102F38000897099403260A9605250B9507A926489C
:102F480000F0EAFB10230793089709940A960B955B
:102F580007A9224800F0E0FBC5E7002404941D4BB4
:102F68005A6C42F480125A645A6C02F48012049229
:102F7800049A05941A6B42F002021A631A6B02F063
:102F880002020592059A06941A6B42F010021A631F
:102F98001B6B03F010030693069B03250795022776
:102FA800089709940A9506260B9607A90B4800F07E
:102FB800B3FB4FF4C0430793089709940A950B96FF
:102FC80007A9074800F0A8FB8DE700BF00300140C3
:102FD8000050014000380240000002400004024056
:102FE8000010024000B585B003681D4A934208D01E
:102FF8001C4A934212D01C4A93421CD005B05DF87B
:1030080004FB00230193194B1A6C42F008021A645E
:103018001B6C03F008030193019BEFE70023029365
:10302800124B5A6C42F480325A645B6C03F480335E
:103038000293029BE2E7002103910C4B5A6C42F485
:1030480000325A645B6C03F400330393039B0A4613
:10305800192000F009FB192000F03AFBCEE700BF69
:10306800000C00400040014000440140003802408C
:1030780000B58DB000230793089309930A930B9327
:1030880003683C4A934208D03B4A93422AD03B4AC1
:1030980093424BD00DB05DF804FB00220192384BEF
:1030A800596C41F010015964596C01F010010191FB
:1030B80001990292196B41F0010119631B6B03F02E
:1030C80001030293029B4FF4C06307930223089302
:1030D800099203230A9307230B9307A9294800F0B1
:1030E8001BFBD7E700220392254B196C41F40031F2
:1030F8001964196C01F40031039103990492196B56
:1031080041F0010119631B6B03F001030493049B55
:103118000C23079302230893099203230A93072396
:103128000B9307A9174800F0F7FAB3E700220592B6
:10313800134B596C41F020015964596C01F020017E
:10314800059105990692196B41F0040119631B6BEF
:1031580003F004030693069BC023079302230893F6
:10316800099203230A9308230B9307A9064800F042
:10317800D3FA8FE7001001400044004000140140DA
:1031880000380240000002400008024030B589B013
:103198000023039304930593069307930368B3F1FD
:1031A800A04F01D009B030BD00250195134C236B09
:1031B80043F001032363236B03F001030193019B95
:1031C8004FF4C053039302230493059503230693F6
:1031D8000A23079303A90A4800F09EFA636B43F099
:1031E800800363630295636C43F480436364636C98
:1031F80003F480430293029BD4E700BF00380240E7
:1032080000000240FEE7FEE7FEE7FEE7FEE7704744
:103218007047704708B500F057F808BD08B5024870
:1032280002F074FA08BD00BFA40F0020054BD3F8C4
:10323800882042F47002C3F888204FF000629A6038
:10324800704700BF00ED00E010B504460E4B18783B
:103258004FF47A73B3FBF0F30C4A1068B0FBF3F049
:1032680000F044FA68B90F2C01D901200AE00022C5
:1032780021464FF0FF3000F0F7F9054B1C600020A5
:1032880000E0012010BD00BF4408002040080020D5
:103298004808002008B50B4B1A6842F400721A60FF
:1032A8001A6842F480621A601A6842F480721A60DE
:1032B800032000F0C7F90020FFF7C6FFFFF7C0FBA7
:1032C800002008BD003C0240034A1168034B1B78EC
:1032D8000B441360704700BF841500204408002089
:1032E800014B1868704700BF8415002038B50446A4
:1032F800FFF7F6FF0546B4F1FF3F02D0044B1B78F9
:103308001C44FFF7EDFF401BA042FAD338BD00BFB5
:10331800440800204A4B5A6822F440325A605A68DE
:1033280041680A435A600268536823F48073536003
:1033380002685368016943EA0123536002685368CD
:1033480023F0407353600268536881680B435360ED
:103358000268936823F40063936002689368C16805
:103368000B439360826A374B9A4257D0026893683E
:1033780023F07063936002689368816A0B439360DB
:103388000268936823F04053936002689368C16AA7
:103398000B4393600268936823F00203936002680A
:1033A8009368017E43EA4103936090F82030002B34
:1033B8003FD00268536843F400635360026853685F
:1033C80023F46043536001684B68426A013A43EA58
:1033D80042334B600268D36A23F47003D3620168F6
:1033E800CB6AC269013A43EA0253CB620268936826
:1033F80023F4007393600268936890F8301043EAEE
:10340800412393600268936823F4806393600268A1
:103418009368416943EA812393607047026893681F
:1034280023F0706393600268936823F040539360BD
:10343800B0E70268536823F400635360CAE700BF2B
:10344800002301400100000F38B310B50446036C97
:1034580043B1236C13F0100F0BD00120002384F824
:103468003C3010BDFFF708FB0023636484F83C3050
:10347800EFE7236C23F4885323F0020343F002039D
:1034880023642046FFF746FF00206064236C23F086
:10349800030343F001032364E0E7012070470000C1
:1034A80030B482B00023019390F83C30012B00F037
:1034B800BD80012380F83C300B68092B3ED9056894
:1034C800EA689BB203EB43031E3B072404FA03F3A9
:1034D80022EA0303EB600568EA688C680B8803EB53
:1034E80043031E3B04FA03F31343EB604B68062BBC
:1034F8003AD805686A6B03EB8303053B1F2404FA7B
:1035080003F322EA03036B6305686A6B4B6803EBFA
:103518008303053B0C8804FA03F313436B630268C7
:10352800434B9A4250D00268414B9A4259D00023EB
:1035380080F83C30184602B030BC704705682A69EC
:103548009BB203EB4303072404FA03F322EA0303C1
:103558002B6105682A698C680B8803EB430304FA1E
:1035680003F313432B61C1E70C2B16D805682A6BAC
:1035780003EB8303233B1F2404FA03F322EA030328
:103588002B6305682A6B4B6803EB8303233B0C888A
:1035980004FA03F313432B63C1E70568EA6A03EBF4
:1035A8008303413B1F2404FA03F322EA0303EB627B
:1035B8000568EA6A4B6803EB8303413B0C8804FA0D
:1035C80003F31343EB62AAE70B68122BABD1194B39
:1035D8005A6822F400025A605A6842F480025A601B
:1035E800A1E70B68144A934201D0112B9FD1114BCC
:1035F8005A6822F480025A605A6842F400025A60FB
:103608000A680D4B9A4292D10C4B1B680C4AA2FBDC
:1036180003239B0C03EB83035B00019302E0019BF4
:10362800013B0193019B002BF9D180E7022082E73F
:103638000020014000230140120000104008002033
:1036480083DE1B43074AD36823F4E0631B041B0C87
:10365800000200F4E060034343F0BF6343F4003327
:10366800D360704700ED00E030B4174BDB68C3F35C
:103678000223C3F10704042C28BF04241D1D062DB2
:1036880018D9033B4FF0FF3505FA04F421EA040189
:10369800994005FA03F322EA0303194300280BDBD8
:1036A8000901C9B200F1604000F5614080F80013DB
:1036B80030BC70470023E5E700F00F000901C9B2EC
:1036C800024B1954F4E700BF00ED00E014ED00E0F0
:1036D800002807DB00F01F02400901239340024A3B
:1036E80042F82030704700BF00E100E00138B0F137
:1036F800807F0AD2064B5860064AF02182F82310D0
:103708000020986007221A6070470120704700BFA8
:1037180010E000E000ED00E000230F2B00F2C7806E
:10372800F0B583B039E0042200E00022B2403A4309
:1037380002345F4E46F824205E4A1468EA4324EABD
:1037480005064F6817F4803F01D045EA0406594C36
:103758002660646802EA04064F6817F4003F01D047
:1037680045EA0406534C6660A46802EA04064F68FA
:1037780017F4801F01D045EA04064E4CA660E468A1
:1037880022404E6816F4001F01D045EA0402494C55
:10379800E26001330F2B00F2888001229A400C6806
:1037A80004EA020532EA0404F3D14C68661E012ECD
:1037B80003D9112C01D0122C12D186685F00032482
:1037C800BC4026EA0406CC68BC40344384604668A2
:1037D80026EA02064C68C4F300129A40324342605B
:1037E800C7685E000324B440E24327EA04078C68F4
:1037F800B4403C43C4604C68022C01D0122C13D155
:10380800DF08083750F827E003F007044FEA840C74
:103818000F2404FA0CF42EEA040E0C6904FA0CF4D2
:1038280044EA0E0440F82740046814404A6802F04D
:103838000302B240224302604A6812F0805FA8D0B7
:10384800002201921C4A546C44F480445464526C23
:1038580002F480420192019A9C08A61C144A52F86C
:10386800267003F0030296000F22B24027EA0207EF
:10387800124A90423FF459AF02F5806290420ED04E
:1038880002F5806290420CD002F5806290420AD024
:1038980002F5806290423FF446AF072246E70122D4
:1038A80044E7022242E7032240E703B0F0BD704735
:1038B80000380140003C014000380240000002404E
:1038C8000AB18161704709048161704703685A69C8
:1038D80012F4806F01D1002070476FF480625A6142
:1038E80000230363202280F83D2080F83E30026CDC
:1038F80042F00402026480F83C30012070472DE950
:10390800F04107460D4690461E4622E0FFF7E8FCC8
:10391800069BC01AB04200D8DEB900233B632022C0
:1039280087F83D2087F83E303A6C42F020023A642E
:1039380087F83C3001201AE03B689C6925EA0404BA
:10394800A4B2B4FA84F46409A0450FD1B6F1FF3FDC
:10395800DCD1C5F30743012BEED13B685C6925EA4E
:103968000404A4B2B4FA84F46409EDE70020BDE8C5
:10397800F0812DE9F04105460E46174698463DE090
:103988001A6842F400721A602B686FF480625A61F8
:1039980000232B63202285F83D2085F83E302A6CD1
:1039A80042F004022A6485F83C30012034E0FFF735
:1039B80097FCA0EB0800B84200D8FFB900232B639E
:1039C800202285F83D2085F83E302A6C42F02002FE
:1039D8002A6485F83C3001201EE02B689C6926EAA1
:1039E8000404A4B2003C18BF0124A4B12B685A698E
:1039F80012F4806FC4D1B7F1FF3FD8D1C6F30743A3
:103A0800012BEAD12B685C6926EA0404A4B2003CC5
:103A180018BF0124E9E70020BDE8F081F0B583B0C4
:103A280004460D4616461F46C36A082B0DD0012BC7
:103A38000BD013F5803F08D0036B122B0AD1026814
:103A4800136843F48073136004E02268136843F436
:103A5800807313600097334600224FF0011120460F
:103A6800FFF74DFF80B92369B3F5804F16D123685E
:103A780005F0FE051D613B46324613492046FFF717
:103A880078FFF8B903B0F0BD23681B6813F4807F92
:103A980002D04FF4007323640320F3E7EB1122688C
:103AA80003F0060343F0F00313613B46324607492F
:103AB8002046FFF75EFF18B92368EDB21D61DAE70B
:103AC8000120DFE70120DDE7020001000800010016
:103AD80070B504460D46164623685B6913F0800FDF
:103AE8001CD12046FFF7F2FED0B9B5F1FF3FF3D065
:103AF800FFF7F6FB801BA84201D8002DECD100236C
:103B08002363202284F83D2084F83E30226C42F062
:103B18002002226484F83C30012000E0002070BDBF
:103B28000120FCE770B504460D46164623685B691C
:103B380013F0040F1CD12046FFF7C8FED0B9B5F129
:103B4800FF3FF3D0FFF7CCFB801BA84201D8002D24
:103B5800ECD100232363202284F83D2084F83E30F2
:103B6800226C42F02002226484F83C30012000E0FC
:103B7800002070BD0120FCE7002800F0CC80F8B5DB
:103B8800044690F83D30002B77D0242384F83D304C
:103B98002268136823F0010313602268136843F452
:103BA800004313602268136823F40043136001F094
:103BB800EBF862685A4B9A4264D85A4B98428CBFC9
:103BC80000230123002B40F0A880574DA5FB0035AA
:103BD800AF0C2668716821F03F0141EA9541716098
:103BE80021680B6A23F03F0365684D4A95424FD818
:103BF8007A1C13430B622568E96921F44F4121F0CF
:103C0800FF016368464A93424CD801385B00B0FB19
:103C1800F3F0013040F6FC73184278D0C0F30B0380
:103C28000B43EB6121680B6823F0C003E269206A4B
:103C3800024313430B6021688B6823F4034323F08A
:103C4800FF032269E068024313438B602168CB6855
:103C580023F0FF036269A06902431343CB60226823
:103C6800136843F00103136000202064202384F8C4
:103C78003D30206384F83E00F8BD80F83C30FEF704
:103C880043FF82E7294B98428CBF0023012399E721
:103C98004FF4967202FB07F2254DA5FB02529209DA
:103CA8000132A6E7A268BAB9461E03EB4307B6FB82
:103CB800F7F60136C6F30B06B6FA86F6760946BB62
:103CC800C2B9421E03EB4303B2FBF3F20132C2F363
:103CD8000B0242F40043A3E7461E03EB830707EBFE
:103CE8008707B6FBF7F60136C6F30B06B6FA86F673
:103CF8007609E4E7421E03EB830303EB8303B2FB7D
:103D0800F3F20132C2F30B0242F4404388E7042382
:103D180086E7012384E7012070470120ACE700BF54
:103D2800A08601007F841E0083DE1B43FF083D0040
:103D3800D34D62102DE9F04385B004460F469146F5
:103D480098460C9EFFF7CCFA054694F83D00C0B2A1
:103D5800202804D00227384605B0BDE8F083009536
:103D6800192301224F492046FFF7C9FD002840F0DA
:103D7800928094F83C30012B00F08F80012384F866
:103D88003C3023681A6812F0010F03D11A6842F018
:103D980001021A602268136823F400631360212368
:103DA80084F83D30102384F83E3000232364C4F89F
:103DB8002490A4F82A80638D23853B4BE3622B462D
:103DC800324639462046FFF729FE0746002866D1C5
:103DD8000023039323685A6903929B690393039B07
:103DE80011E0236C042B01D00127B4E72268136883
:103DF80043F400731360F7E72A4631462046FFF77D
:103E080091FE00282ED1238D002B36D02A4631462C
:103E18002046FFF75DFE0028E3D1626A2368127826
:103E28001A61616A4B1C6362638D9BB2013B9BB252
:103E38006385238D013B9BB223852268506910F06E
:103E4800040FD9D0002BD7D04B781361636A0133A4
:103E58006362638D9BB2013B9BB26385238D013BFB
:103E68002385C9E7236C042B01D0012773E7226857
:103E7800136843F400731360F7E72268136843F488
:103E880000731360202384F83D30002384F83E300B
:103E980084F83C305FE702275DE702275BE70127EC
:103EA80059E700BF020010000000FFFF2DE9F047AE
:103EB80084B00546894692461E46FFF711FA95F8E2
:103EC8003D30DBB2202B03D0022004B0BDE8F087E0
:103ED800074600901923012258492846FFF70FFD8D
:103EE800002840F0A28095F83C30012B00F09F801C
:103EF800012385F83C302B681A6812F0010F03D1B2
:103F08001A6842F001021A602A68136823F40063F1
:103F18001360242385F83D3000232B64A3F58033F8
:103F2800EB624FF001083FE02B681B6813F4807FB9
:103F380002D04FF400732B640320C6E7A02385F852
:103F48003D302A685369C3F340035269C2F38022A3
:103F580095F83D40E4B2A02C09D043B93AB9FFF72F
:103F6800BFF9C01BB042E9D8002EEAD1E6E720230A
:103F780085F83D302B685A6912F0020F32D11A6861
:103F880042F400721A602B686FF480625A610097DD
:103F98001923012229492846FFF7B1FC00284AD1F4
:103FA80008F10108D04538D22A68136843F48073B1
:103FB80013600097334600224FF001112846FFF79F
:103FC8009EFC0028B0D12B6809F0FE021A61FFF7A9
:103FD80087F907462A685369C3F340035269C2F355
:103FE8008022B5E71A6842F400721A60002303932E
:103FF8002B685A6903929B690393039B00971923C3
:1040080001220E492846FFF77AFC90B9202385F84B
:104018003D30002385F83C3057E7202385F83D30B4
:10402800002385F83C3001204FE702204DE70220AD
:104038004BE7012049E7012047E700BF02001000D5
:10404800002800F0BF8070B5044690F84130002B7E
:1040580051D0022284F841202168CB6923F47B6384
:1040680023F00F03CB6123681A626369934263D01C
:10407800E368002B46D11025A368202B00D86D00DB
:10408800012000F059FF2369B3F5007F3CD0B0FB55
:10409800F5F000EB800043006069B3FBF0F30533F3
:1040A800494AA2FB0323C3F3C002C2EBD3035B0854
:1040B80011029A1EFD2A41D822690A432168134336
:1040C8000B622168CB6923F47B6323F00F036268DA
:1040D800A0680243E0680243A0690243134343F423
:1040E8000063CB61236A012B2ED00020606401237A
:1040F80084F8413070BD80F84030344B4363FEF79C
:1041080085FDA6E72025B7E7E36853B1AD00B0FB0E
:10411800F5F000EB800043006069B3FBF0F3053372
:10412800BEE7ED00B0FBF5F000EB800043006069EE
:10413800B3FBF0F30533B3E70021BAE7636C43F050
:10414800100363640120D5E7214B63632268214B88
:104158009A421FD04FF04022D36923F47B6323F0A7
:104168000F03D36122681B4B9A4215D04FF04023AE
:1041780002221A622268174B9A4210D04FF040214F
:10418800CA6992B26368B3F5007F0AD0C3B94FF425
:10419800807608E0104ADFE7A3F58063E8E70E4978
:1041A800EEE74FF48076A068E568238B2B439BB23B
:1041B80003439BB23343134343F40063CB6194E757
:1041C8000026F0E701207047CDCCCCCC5B4200083C
:1041D8006D4400080038004000340040704708B5BE
:1041E800426A03681288DA60436A02334362438D85
:1041F8009BB2013B9BB24385438D9BB203B108BD83
:104208000268536823F0A0035360012380F841300B
:10421800FFF7E4FFF3E7704708B50368DA68C36A95
:104228001A80C36A0233C362438E9BB2013B9BB2BE
:104238004386438E9BB203B108BD0268536823F0DE
:1042480060035360012380F84130FFF7E4FFF3E790
:10425800704710B584B0044602689368039390F8D9
:104268004130DBB2042B06D094F84130DBB2032B8B
:104278002CD004B010BD039B13F0010F03D053687A
:1042880013F0400F1FD1039B13F0400FECD02368AD
:104298005A6812F0200FE7D05A6822F060025A607C
:1042A800002301932368DA6801929B680193019BBC
:1042B800012384F84130636C43F0020363642046B1
:1042C800FFF7C6FFD0E7FFF7A7FFDCE7039B13F074
:1042D800020F04D023685B6813F0800F1DD1039B85
:1042E80013F0080FC5D023685A6812F0200FC0D009
:1042F8005A6822F0A0025A600023029323689B6840
:104308000293029B012384F84130636C43F0040359
:1043180063642046FFF79CFFABE72046FFF75FFF8B
:10432800DDE7704708B5436A9A1C426202681B8839
:10433800D360438D9BB2013B9BB24385438D9BB2B7
:104348003BB90268536823F0A0035360438E9BB2C5
:1043580003B108BD012380F84130FFF7E2FFF8E719
:1043680008B50268154B9A421CD04FF04023DA6812
:10437800C36A991CC1621A80438E9BB2013B9BB2EF
:104388004386438E9BB263B902680C4B9A420CD0A9
:104398004FF04022536823F060035360438D9BB273
:1043A8002BB108BDA3F58063E1E7054AF2E70123D5
:1043B80080F84130FFF7B5FFF3E700BF0038004051
:1043C8000034004008B5436A9A1C42621A880168A2
:1043D800134B994218D04FF04023DA60438D9BB2BB
:1043E800013B9BB24385438D9BB263B902680C4B7A
:1043F8009A420CD04FF04022536823F0A003536038
:10440800438E9BB22BB108BDA3F58063E5E7054A4F
:10441800F2E7012380F84130FFF783FFF3E700BF9D
:10442800003800400034004008B50368DA68C36A01
:10443800991CC1621A80438E9BB2013B9BB2438692
:10444800438E9BB23BB90268536823F06003536004
:10445800438D9BB203B108BD012380F84130FFF7BB
:1044680060FFF8E710B586B0044603689A680592BD
:10447800704A93426FD04FF04022916804915B6874
:104488000393536802936368B3F5007F01D0002B50
:1044980070D1059B13F0020F03D0039B13F0800F1C
:1044A8005CD1049B13F0010F03D0029B13F0400F63
:1044B80058D1049B13F0400F24D0029B13F0200F17
:1044C80020D022685B4B9A4250D04FF0402253686C
:1044D80023F0600353602268536823F0A0035360FD
:1044E800002300932368DA6800929B680093009B7E
:1044F800012384F84130636C43F00203636420466F
:10450800FFF7A6FE059B13F0080F22D0039B13F0BC
:10451800200F1ED02268536823F0A003536022683E
:10452800444B9A4224D04FF04022536823F0600352
:1045380053600023019323689B680193019B012327
:1045480084F84130636C43F0040363642046FFF74A
:104558007FFE06B010BDA2F580628EE72046FFF709
:10456800E1FE9EE72046FFF7FBFEA2E7324AAEE7F0
:10457800314ADAE7049B13F0020F03D0029B13F0D1
:10458800800F4AD1059B13F0010F03D0039B13F052
:10459800400F46D1059B13F0400F1CD0039B13F02E
:1045A800200F18D02268536823F0600353602268F4
:1045B800204B9A4239D04FF04022536823F0A00391
:1045C8005360012384F84130636C43F00203636451
:1045D8002046FFF73DFE049B13F0080FB9D0029B5D
:1045E80013F0200FB5D02268124B9A421FD04FF01B
:1045F8004022536823F0A00353602268536823F0D5
:1046080060035360012384F84130636C43F0040372
:1046180063642046FFF71CFE9BE72046FFF7D2FEA7
:10462800B0E72046FFF700FFB4E7034AC5E7024AB0
:10463800DFE700BF0038004000340040F0B58BB021
:10464800002800F08C800546046890F8BD332BB331
:10465800032385F8BD33E36B13F4807F01D1002376
:104668002B61286801F0A9FE2C4654F8107B6E4691
:104678000FCC0FC60FCC0FC694E8030086E80300E2
:104688002B1D0ECB384601F053FE044658B10223C9
:1046980085F8BD33012420460BB0F0BD80F8BC334B
:1046A800FEF774FDD4E70021286801F08CFE23464C
:1046B80016E0C3EBC30205EB8202012182F83D102C
:1046C80082F83C30A2F84230002182F83F10516451
:1046D8009164C3EBC30205EB820211650133DBB2BF
:1046E80069688B42E5D316E0C4EBC40305EB83038A
:1046F800002283F8FD2183F8FC4183F8FF21C3F8E9
:104708000422C3F80822C4EBC40305EB8303C3F8EF
:1047180010220134E4B2A142E6D82C4654F8107BAA
:104728006E460FCC0FC60FCC0FC694E8030086E880
:1047380003002B1D0ECB384601F08CFE044620B139
:10474800022385F8BD330124A5E7002385F8383016
:10475800012385F8BD33286801F048FF9BE7012451
:1047680099E70000002800F0D98170B582B00446AE
:10477800036813F0010F3BD0A64B9B6803F00C03B2
:10478800042B2CD0A34B9B6803F00C03082B21D0DF
:104798006368B3F5803F4FD0B3F5A02F52D09D4B3F
:1047A8001A6822F480321A601A6822F480221A6089
:1047B8006368002B50D0FEF793FD0546954B1B68A8
:1047C80013F4003F14D1FEF78BFD401B6428F5D984
:1047D8000320AAE18F4B5B6813F4800FD8D08D4B70
:1047E8001B6813F4003F03D06368002B00F0988126
:1047F800236813F0020F54D0864B9B6813F00C0FFC
:104808003ED0844B9B6803F00C03082B33D0E3683D
:10481800002B67D0804B01221A60FEF761FD054628
:104828007C4B1B6813F0020F53D1FEF759FD401B58
:104838000228F5D9032078E1764A136843F48033D7
:104848001360B5E7734B1A6842F480221A601A683D
:1048580042F480321A60ABE7FEF742FD05466D4B25
:104868001B6813F4003FC3D0FEF73AFD401B6428D1
:10487800F5D9032059E1674B5B6813F4800FC6D163
:10488800644B1B6813F0020F03D0E368012B40F060
:104898004981604A136823F0F803216943EAC10398
:1048A8001360236813F0080F40D0636963B35B4B50
:1048B80001221A60FEF714FD0546564B5B6F13F094
:1048C800020F33D1FEF70CFD401B0228F5D9032057
:1048D8002BE1504A136823F0F803216943EAC10326
:1048E8001360DEE74C4B00221A60FEF7F9FC054620
:1048F800484B1B6813F0020FD3D0FEF7F1FC401BA6
:104908000228F5D9032010E1444B00221A60FEF773
:10491800E7FC05463F4B5B6F13F0020F06D0FEF72E
:10492800DFFC401B0228F5D90320FEE0236813F0C2
:10493800040F78D0374B1B6C13F0805F0DD1002328
:104948000193344B1A6C42F080521A641B6C03F0CA
:1049580080530193019B012500E00025304B1B6823
:1049680013F4807F21D0A368012B32D0052B36D0D9
:10497800284B1A6F22F001021A671A6F22F00402FC
:104988001A67A368002B34D0FEF7AAFC0646214B11
:104998001B6F13F0020F45D1FEF7A2FC801B41F2FA
:1049A80088339842F3D90320BFE01D4A136843F4C3
:1049B80080731360FEF794FC0646194B1B6813F4CA
:1049C800807FD0D1FEF78CFC801B0228F5D903200C
:1049D800ABE0104A136F43F001031367D1E70D4BA7
:1049E8001A6F42F004021A671A6F42F001021A673E
:1049F800C7E7FEF775FC0646064B1B6F13F0020F60
:104A080010D0FEF76DFC801B41F288339842F3D931
:104A180003208AE00038024000004742800E4742E7
:104A280000700040E5B9A369002B7DD0464A926822
:104A380002F00C02082A51D0022B17D0434B002257
:104A48001A60FEF74DFC04463F4B1B6813F0007FCD
:104A580042D0FEF745FC001B0228F5D9032064E08C
:104A6800394A136C23F080531364DCE7374B002278
:104A78001A60FEF735FC0546334B1B6813F0007FC0
:104A880006D0FEF72DFC401B0228F5D903204CE088
:104A9800E369226A1343626A43EA8213A26A5208EC
:104AA800013A43EA0243E26A43EA0263264A536050
:104AB800264B01221A60FEF713FC0446224B1B68A2
:104AC80013F0007F06D1FEF70BFC001B0228F5D976
:104AD80003202AE0002028E0002026E0012B26D031
:104AE800194B5B6803F48001E269914221D103F01C
:104AF8003F02216A8A421ED1616A47F6C0721A4093
:104B08008A421AD103F44032A16A8A4217D103F0CB
:104B18007063E26A934214D1002006E001207047D6
:104B2800012002E0012000E0002002B070BD012059
:104B3800FBE70120F9E70120F7E70120F5E701206D
:104B4800F3E70120F1E700BF003802406000474268
:104B5800F8B52F4B9B6803F00C03042B53D0082B9C
:104B680053D12B4B5A6802F03F025B6813F4800F55
:104B780028D0274B5B68C3F3881358010021C01A5B
:104B880061F100018E0146EA906687013C1A66EBE6
:104B98000105E90041EA5471E000C01841F1000143
:104BA8004B0243EAD0534402204619460023FBF740
:104BB80095FC174B5B68C3F3014301335B00B0FB03
:104BC800F3F023E0124B5B68C3F388135C01002504
:104BD800E41A65F10005AE0146EA9466A701381BA0
:104BE80066EB0501CC0044EA5074C500E81844F1AE
:104BF80000018B0243EA90538402204619460023A1
:104C0800FBF76CFCD5E7034800E00348F8BD00BF9C
:104C18000038024000127A000024F400002800F056
:104C28009B8070B50D4604464F4B1B6803F00F037D
:104C38008B4208D2CBB24C4A1370136803F00F03AF
:104C48008B4240F08B80236813F0020F17D013F0CB
:104C5800040F04D0454A936843F4E05393602368F3
:104C680013F0080F04D0414A936843F460439360FB
:104C78003E4A936823F0F003A1680B4393602368CE
:104C880013F0010F32D06368012B21D09A1E012A3C
:104C980025D9364A126812F0020F61D033498A6862
:104CA80022F0030213438B60FEF71AFB06462F4BD4
:104CB8009B6803F00C036268B3EB820F16D0FEF713
:104CC8000FFB801B41F288339842F0D9032042E061
:104CD800264A126812F4003FE0D101203BE0234A43
:104CE800126812F0007FD9D1012034E01E4B1B68F6
:104CF80003F00F03AB4207D9EAB21B4B1A701B68CB
:104D080003F00F03AB422DD1236813F0040F06D034
:104D1800164A936823F4E053E1680B4393602368D1
:104D280013F0080F07D0114A936823F460432169F0
:104D380043EAC1039360FFF70BFF0C4B9B68C3F377
:104D480003130B4AD35CD8400A4B18600A4B186807
:104D5800FEF77AFA002070BD012070470120FAE7BB
:104D68000120F8E70120F6E7003C02400038024045
:104D7800946600084008002048080020014B186885
:104D8800704700BF4008002008B5FFF7F7FF044B45
:104D98009B68C3F38223034AD35CD84008BD00BF95
:104DA80000380240A466000808B5FFF7E7FF044B87
:104DB8009B68C3F34233034AD35CD84008BD00BFA5
:104DC80000380240A466000830B583B00446036882
:104DD80013F0050F0ED1236813F0020F38D12368A2
:104DE80013F0080F00F09B80227D4E4B1A600020C4
:104DF80003B030BD4C4B00221A60FEF771FA05462D
:104E08004A4B1B6813F0006F06D0FEF769FA431B84
:104E1800022BF5D90320EBE76368A26843EA821303
:104E2800E26843EA0273414AC2F884303E4B0122E9
:104E38001A60FEF755FA05463C4B1B6813F0006FE5
:104E4800C9D1FEF74DFA401B0228F5D90320CFE758
:104E580000230193354B1A6C42F080521A641B6C84
:104E680003F080530193019B314A136843F4807324
:104E78001360FEF735FA05462D4B1B6813F4807F47
:104E880006D1FEF72DFA431B022BF5D90320AFE715
:104E9800264B1B6F13F4407312D0226902F4407240
:104EA8009A420DD0214B1A6F22F4407221490120F9
:104EB8000860002008601A671B6F13F0010F12D1F9
:104EC800236903F44072B2F5407F1DD0174A9368F6
:104ED80023F4F813936015490B6F2269C2F30B0290
:104EE80013430B677BE7FEF7FBF905460F4B1B6F78
:104EF80013F0020FE4D1FEF7F3F9401B41F28833B7
:104F08009842F3D9032073E708498A6822F4F81213
:104F180023F0704323F4407313438B60DBE70020D6
:104F280066E700BFE0114742680047420038024088
:104F380000700040400E4742012801D00020704711
:104F4800174B9B6813F4000303D0012B25D1154898
:104F58007047134B5B6813F4800F15D0104BD3F8D0
:104F6800843003F03F031048B0FBF3F00C4AD2F84A
:104F78008430C3F3881300FB03F0D2F88430C3F302
:104F88000273B0FBF3F07047054BD3F8843003F09D
:104F98003F030648B0FBF3F0E8E70020704700BF86
:104FA800003802400080BB0000127A000024F400A0
:104FB80070B582B0044600230193006801F0CCF874
:104FC800054610B1284602B070BD206801F0D7F838
:104FD80038B90123A364A36C012B0BD02E462846B5
:104FE80014E00023A364206801F0B6F80028F2D08A
:104FF8000546E7E70021206801F0D8F80028EDD041
:105008004FF08055DEE7019B01330193019A4FF67B
:10501800FE739A4213D896B90021206801F0C6F8A9
:10502800E0B91249206801F0D9F80646C0B9002154
:10503800206800F051FFC30FE5D01E46E3E7019A50
:105048004FF6FE739A420ED810F0804302D0012327
:105058006364B7E7002262641D46B3E70546B1E71B
:105068004FF08055AEE74FF08075ABE7000010C1F8
:10507800F0B589B004460F46FEF732F9064600231C
:10508800009301930821206801F036F8054610B115
:10509800284609B0F0BD216D0904206801F086F8A2
:1050A80005460028F4D14FF0FF33029308230393F9
:1050B80030230493022305930023069301230793C7
:1050C80002A9206801F006F8206801F0B8F8054642
:1050D80058B1DDE700F0DCFE4DF825000135FEF79C
:1050E800FFF8831BB3F1FF3F3DD02068426B40F2CD
:1050F8002A431A4204D1436B13F4001FEFD0E9E7A7
:10510800436B13F0080F25D1436B13F0020F24D122
:10511800456B15F0200523D140F23A538363019A79
:10512800130203F47F0343EA0263110A01F47F4187
:105138000B4343EA12633B60009A130203F47F03B4
:1051480043EA0263110A01F47F410B4343EA126305
:105158007B609DE7082585639AE70225856397E7C5
:105168002025856394E74FF0004591E710B582B09C
:105178000446002100910191006800F0ADFE10F096
:10518800007F13D169462046FFF772FF80B9019B63
:1051980013F4802F0ED0216D0904206801F006F861
:1051A80030B90221206801F032F801E04FF40060C4
:1051B80002B010BD4FF08060FAE710B582B0044627
:1051C800002100910191006800F086FE10F0007F38
:1051D80013D169462046FFF74BFF80B9019B13F4B2
:1051E800803F0ED0216D0904206800F0DFFF30B940
:1051F8000021206801F00BF801E04FF4006002B0D4
:1052080010BD4FF08060FAE710B4436E9B0F0B702F
:10521800436EC3F383634B7090F8673003F0030366
:105228008B7090F86630CB7090F865300B7190F801
:1052380064304B71836E1B0DCB80B0F86A3003F07D
:105248000F030B72836EC3F3C0334B72836EC3F3C9
:1052580080338B72836EC3F34033CB72836EC3F398
:1052680000330B7300234B73436C002B40F0888092
:10527800826E40F6FC7303EA8203C26E43EA9273BD
:105288000B61C36EC3F3C2630B7590F86F3003F004
:1052980007034B75C36EC3F342538B75C36EC3F3D9
:1052A8008243CB75C36EC3F3C2330B760B690133EC
:1052B80043650A7E02F00702023203FA02F24265EF
:1052C8000B7A03F00F040123A34083655B0A03FBF9
:1052D80002F3C3654FF400730366C36EC3F38033F0
:1052E8004B76C36EC3F3C6138B76C36E03F07F038E
:1052F800CB76036FDB0F0B77036FC3F341734B77E9
:10530800036FC3F382638B77036FC3F38353CB7746
:10531800036FC3F3405381F82030002381F8213014
:10532800B0F8722002F0010281F82220026FC2F365
:10533800C03281F82320026FC2F3803281F8242022
:10534800026FC2F3403281F82520026FC2F30032A7
:1053580081F82620026FC2F3812281F82720026F8C
:10536800C2F3012281F82820026FC2F3460281F8B5
:105378002920012281F82A2018465DF8044B70473D
:10538800012B11D1836E1B0403F47C13B0F86E203B
:1053980013430B610B6901339B024365C3654FF4EB
:1053A80000738365036698E70368054A9A63836B0D
:1053B80043F080538363012380F834301846DCE7D8
:1053C800FF05400070B590B004460123ADF81230D7
:1053D800006800F068FD00286CD0636C032B45D191
:1053E800636C032B5DD1636C032B1DD0BDF81210C9
:1053F80021650904206800F04FFF054600285BD1AD
:105408000021206800F068FD60660421206800F033
:1054180063FDA0660821206800F05EFDE0660C21AF
:10542800206800F059FD20670421206800F054FD31
:10543800000DE06405A92046FFF7E6FE00283ED1EE
:10544800226D12040023206800F06EFE054698BB0A
:10545800234653F8106B93E807008DE807000434DF
:1054680094E80E00304600F0F7FC25E0206800F0D4
:10547800FEFE054600BB0021206800F02DFD606798
:105488000421206800F028FDA0670821206800F0AA
:1054980023FDE0670C21206800F01EFDC4F88000A1
:1054A8009EE70DF11201206800F00BFF0546002869
:1054B80099D001E04FF08065284610B070BD4FF0DC
:1054C8008055F9E770B58AB0044600230493059324
:1054D800069307930893762309930AAB13E9070009
:1054E8008DE8070004AB0ECB206800F0B5FC18B1BE
:1054F800012528460AB070BD05460F4E00233360CB
:10550800206800F0C8FC012333602046FFF750FDF7
:1055180030B1012584F83450A36B0343A363E8E753
:105528002046FFF74FFF0028E3D0012584F83450C8
:10553800A36B0343A363DCE7A0802542A8B110B5A1
:10554800044690F8343063B1032384F8343020469D
:10555800FFF7B8FF58B9A0632063012384F83430FB
:1055680010BD0377FDF74CFCEEE7012070470120E2
:10557800F6E7000030B58BB004460D46032380F8EB
:105588003430436C032B1CD0B1F5805F08D0B1F5E3
:10559800006F0AD079B1836B43F00063836314E032
:1055A800836B43F0805383630FE0FFF7DFFDA36B4A
:1055B8000343A36309E0FFF700FEA36B0343A36360
:1055C80003E0836B43F080538363A36B3BB1236891
:1055D800104A9A63012084F834000BB030BD636828
:1055E8000493A3680593E368069307956369089392
:1055F800A36909930AAB13E907008DE8070004AB18
:105608000ECB206800F028FC012384F834300020F9
:10561800E3E700BFFF05400000283BD010B5044673
:105628000023836290F85130002B2ED0022384F897
:1056380051302268136823F0400313606368A2683E
:105648001343E26813432269134362691343A2694F
:1056580002F400721343E2691343226A1343A16AF6
:1056680022680B431360638B03F00403616A2268AA
:105678000B4353602268D36923F40063D36100208D
:105688006065012384F8513010BD80F85030FDF773
:105698001BFCCBE70120704730B4036A056A25F08C
:1056A80001050562846924F0F00444EA021423F039
:1056B8000A030B438461036230BC704730B4056A47
:1056C80025F0100505628469036A24F4704444EAED
:1056D800023423F0A00343EA01138461036230BC5F
:1056E80070470268D36843F00103D3600268936887
:1056F80003F00703062B03D0136843F0010313607C
:1057080000207047704770477047704710B50446CF
:1057180003681A6912F0020F11D0DA6812F0020F4A
:105728000DD06FF002021A610123037703689B69A9
:1057380013F0030F70D0FFF7E6FF002323772368E9
:105748001A6912F0040F12D0DA6812F0040F0ED0A2
:105758006FF004021A610223237723689B6913F40C
:10576800407F5FD02046FFF7CEFF002323772368D2
:105778001A6912F0080F12D0DA6812F0080F0ED06A
:105788006FF008021A61042323772368DB6913F09A
:10579800030F4ED02046FFF7B6FF00232377236878
:1057A8001A6912F0100F12D0DA6812F0100F0ED02A
:1057B8006FF010021A61082323772368DB6913F45A
:1057C800407F3DD02046FFF79EFF002323772368C4
:1057D8001A6912F0010F03D0DA6812F0010F36D1FE
:1057E80023681A6912F0800F03D0DA6812F0800F6C
:1057F80034D123681A6912F0400F03D0DA6812F026
:10580800400F32D123681A6912F0200F03D0DA68EA
:1058180012F0200F30D110BDFFF774FF2046FFF7BC
:1058280073FF8AE72046FFF76DFF2046FFF76CFFFE
:105838009BE72046FFF766FF2046FFF765FFACE7CA
:105848002046FFF75FFF2046FFF75EFFBDE76FF0DA
:1058580001021A612046FCF7AFFCC1E76FF0800235
:105868001A61204600F031F9C3E76FF040021A616F
:105878002046FFF74AFFC5E76FF020021A6120466D
:1058880000F022F9C7E700000368254A90420ED0CD
:10589800B0F1804F0BD0A2F57C42904207D002F5C0
:1058A8008062904203D002F58062904203D123F0D7
:1058B80070034A6813431A4A90421AD0B0F1804FD5
:1058C80017D0A2F57C42904213D002F58062904234
:1058D8000FD002F5806290420BD002F59A329042C6
:1058E80007D002F58062904203D002F580629042B0
:1058F80003D123F44073CA68134323F080034A6931
:10590800134303608B68C3620B688362044B98423D
:1059180002D00123436170470B690363F9E700BFB5
:1059280000000140B0B110B5044690F83D3063B1B5
:10593800022384F83D30214651F8040BFFF7A4FFF9
:10594800012384F83D30002010BD80F83C30FDF77D
:1059580049FBEDE70120704710B4846824F47F44C4
:1059680042EA03220A43224382605DF8044B7047EF
:1059780010B50468A26822F070024B68134323F044
:1059880007030A681343A3604B68602B2CD00CD81C
:10599800402B14D0502B06D10A6989680068FFF79C
:1059A8007BFE002028E0002026E0702B23D10B6925
:1059B8008A68C9680068FFF7CFFF00201CE00B6801
:1059C800052B1AD003681C6A1A6A22F001021A62AF
:1059D8000268936923F0F003096943EA01139361AC
:1059E80003681C62002007E00A6989680068FFF7FD
:1059F80065FE002000E0002010BD0120FCE790F8C3
:105A08003C30012B22D010B50446012380F83C30ED
:105A1800022380F83D30FFF7ABFF80B92268D368D6
:105A280023F04003D3602268D36823F48043D36013
:105A3800012384F83D30002384F83C3010BD012058
:105A480084F83D00002384F83C30F7E702207047D3
:105A580090F83C30012B33D030B4012380F83C302F
:105A6800022380F83D3003685C689D6824F0700468
:105A78000A6822435A600368124A934212D0B3F16B
:105A8800804F0FD0A2F57C4293420BD002F5806282
:105A9800934207D002F58062934203D002F59A320E
:105AA800934204D125F080054A6815439D6001237F
:105AB80080F83D30002380F83C30184630BC7047F1
:105AC80002207047000001407047704770B50446D7
