:020000040800F2
:100000000000022015900108293901082B39010848
:100010002D3901082F39010831390108000000008D
:10002000000000000000000000000000333901085B
:100030003539010800000000373901083939010855
:1000400065900108659001086590010865900108B8
:1000500065900108659001086590010865900108A8
:100060006590010841390108659001086590010813
:100070006590010865900108659001086590010888
:100080004D3901085D390108659001080000000044
:100090000000000000000000000000006590010862
:1000A000659001086D3901086590010865900108A7
:1000B0006590010865900108659001086590010848
:1000C0006590010865900108659001086590010838
:1000D0006590010865900108659001080000000026
:1000E0006590010865900108659001080000000016
:1000F0000000000000000000000000006590010802
:1001000000000000659001086590010865900108F5
:1001100000000000000000000000000000000000DF
:1001200065900108659001086590010865900108D7
:1001300065900108000000000000000000000000C1
:1001400000000000000000000000000065900108B1
:1001500065900108659001086590010865900108A7
:100160006590010865900108000000000000000093
:10017000000000000000000000000000000000007F
:100180000000000065900108000000000000000071
:0801900065900108659001086B
:1001C0000348044B834202D0034B03B118477047E6
:1001D000D80A0020D80A002000000000054806497F
:1001E0000B1AD90F01EBA301491002D0034B03B145
:1001F00018477047D80A0020D80A002000000000E5
:1002000010B5064C237843B9FFF7DAFF044B13B15E
:100210000448AFF300800123237010BDD80A0020EA
:10022000000000008040040808B5044B1BB10449DD
:100230000448AFF30080BDE80840CFE700000000AD
:10024000DC0A00208040040808B5062001F05AFFAF
:10025000012011F09DFB00BF002301461A461846FD
:1002600008F01EBC0A22002104F050BC0A23002220
:1002700004F03EBC431C1ED010B586B004AC03464F
:100280000822204600218DF80B3001F033FD0B4A87
:100290000B4B00941068D3F8E4400DF10B020123DE
:1002A00003A9A047012802D8039806B010BD4FF05B
:1002B000FF3006B010BD4FF0FF307047080000203F
:1002C0003804002013460A460146022008F0E8BB25
:1002D000014B1868704700BF0800002070B539B1A5
:1002E00005460C4608B1836B83B3B4F90C3013B9DF
:1002F0000026304670BD2146284600F03BF8E36AF0
:10030000064633B1E169284698470028B8BF4FF048
:10031000FF36A3891B0620D4216B41B104F14003B1
:10032000994202D0284600F02FFB00232363616C22
:1003300021B1284600F028FB0023636400F0CAF9CD
:100340000023A38100F0C8F9304670BD00F0BEF96B
:10035000B4F90C30002BCBD0CDE72169284600F052
:1003600013FBD9E7024B01461868FFF7B7BF00BF80
:1003700008000020B1F90C309AB22DE9F0410C468A
:100380001107804648D4626843F40063002AA381C1
:100390005DDDA56A002D57D000229BB2D8F8006021
:1003A000E169C8F8002013F4805254D1012340467B
:1003B000A847431C66D0A389A56AE1695F0705D5F4
:1003C0006268236B801A0BB1E36BC01A02460023EC
:1003D0004046A847451C48D1D8F80020B4F90C3055
:1003E000002A5CD01D2A01D0162A64D1226900217E
:1003F000C4E9002123F40063A381216BC8F80060E5
:1004000011B304F14003994202D0404600F0BCFA17
:1004100000202063BDE8F0812669AEB12568266022
:1004200091070CBF63690023AD1BA3600AE02B4654
:100430003246676AE1694046B8470028A5EB0005E7
:1004400006440ADD002DF2DC0020BDE8F081E26BFD
:10045000002A9EDCF8E7206DB0E7A38943F0400353
:10046000A3814FF0FF30BDE8F081B4F90C30226970
:10047000226023F4006300226260DA04A381BCD509
:100480002065BAE7D8F80030002B94D01D2B0FD090
:10049000162B0DD0A38943F04003A381D5E723F4A5
:1004A00000632169A381DB04C4E90012A5D5E7E755
:1004B000C8F80060C8E743F04003A381C5E700BF68
:1004C00010B5044682B008B1836B23B1B1F90C00BA
:1004D00048B902B010BD019100F0F8F80199B1F9E6
:1004E0000C000028F5D0204602B0BDE81040FFF710
:1004F00041BF00BF20B1054B01461868FFF7E0BFC0
:10050000034B0449186800F02BBD00BF0800002011
:10051000FC410408C104000800207047014900F0B4
:100520001FBD00BFDD0200082DE9F84F45682C4BC8
:10053000C3630024074600F53B7204230321C0E98E
:10054000B912C0F8E0422146EB6005F15C006C6630
:10055000C5E90044AC60C5E90444AC61082201F07F
:10056000C9FBDFF888B0BE68DFF884A0DFF88490AC
:10057000DFF884801B4BC5F82C80C5E9075BC5E913
:1005800009A92146F360082206F15C007466C6E9F9
:100590000044B460C6E90444B46101F0ABFBFD68FB
:1005A000114BC6F82C80C6E9076BC6E909A921469C
:1005B000EB606C66C5E90044AC60C5E90444AC611D
:1005C00005F15C00082201F095FB0123C5E9075BFA
:1005D000C5E909A9C5F82C80BB63BDE8F88F00BF49
:1005E0001D0500080900010012000200A1220008F8
:1005F000C9220008092300082923000800207047A9
:1006000070B54A1E682505FB02F50E4605F174011A
:1006100000F0D0FE044640B100210C30666005F1C8
:1006200068022160A06001F065FB204670BD00BF3C
:100630001F4B70B51D68AB6B06464BB305F538759F
:10064000D5E90134013B05D51EE0013B5A1C04F1FC
:10065000680419D0B4F90C20002AF6D10025154BF6
:100660006566C4E90055A560C4E90455A56129463D
:10067000E360082204F15C0001F03CFBC4E90C5586
:10068000C4E91155204670BD2C682CB12546D7E72A
:100690002846FFF749FFD1E704213046FFF7B0FFB6
:1006A000044628600028F1D10C233360EAE700BF3C
:1006B000FC4104080100FFFF024B0349186800F0E9
:1006C0004FBC00BFFC410408DD020008836B03B18E
:1006D000704729E7704700BF704700BF704700BFF1
:1006E000704700BF024B0349186800F013BC00BFFD
:1006F0000800002019050008024B0349186800F0A3
:1007000009BC00BF08000020FD05000838B50A4CF0
:100710000A4D641BA4100AD004F18043013B05EB91
:100720008305013C55F804399847002CF9D1BDE800
:10073000384043F0ABBC00BFC4F40408C0F4040864
:100740002DE9F04F83B002FB03F7009299460C9C11
:10075000002F43D00D46064610B1836B002B79D095
:10076000B4F90C309AB2910407D4626E43F400538A
:1007700022F40051A3819AB26166D4F80480B8F1E2
:10078000000F2FDB92074346D4F800C032D4324624
:10079000BB464646634690460EE001F0A9F9236841
:1007A0003344236021464046354401F05FFB002876
:1007B00046D1D4E90036D346B345324619462846D9
:1007C000ABEB060AE9D85A4601F092F9D4E90032B7
:1007D000A2EB0B025B44C4E900324F46384603B03B
:1007E000BDE8F08F002192070B4661608846D4F87F
:1007F00000C0CCD5BB4228BF3B461A4661462846BE
:10080000019301F075F9D4E90002019B216B00EB23
:100810000308D21AC4E90082A7EB030B11B3BBF1A2
:10082000000F4ED004F14000814206D030460193C3
:1008300000F0AAF8D4F80080019B0021216314E0A5
:100840003744009BA7EB0B07B7FBF3F7384603B021
:10085000BDE8F08FFFF73AFFB4F90C309AB291047B
:100860008BD482E7BBF1000F2BD0D4E904A2CDF8E2
:1008700004901D44B9465746B2464646904601E0AC
:100880008B46E1B1C4E9045B25602146504601F086
:10089000EDFA636826600022C4E904781D446260B2
:1008A000ABEB03010028EBD04F461F44009BA7EBA6
:1008B0000B07B7FBF3F7384603B0BDE8F08FDDF860
:1008C00004904F46384603B0BDE8F08F10B5054C94
:1008D00082B0009313460A4601462068FFF730FFB6
:1008E00002B010BD08000020F8B5244F0C460646A3
:1008F00001F050FABB685D68C4F57E610F3125F0E8
:100900000305294421F47F6121F00F01A1F58054F2
:10091000B4F5805F07DB0021304601F055FBBB6872
:100920002B44984204D0304601F036FA0020F8BD3E
:100930006142304601F048FB01300DD0104BBA68DF
:1009400019682D1B45F001053046091B55601960DB
:1009500001F022FA0120F8BD0021304601F034FBFD
:10096000BA68831A0F2BDEDD064C0549246843F074
:100970000103001B53600860D5E700BFA4050020F9
:10098000F80A0020AC09002000295ED0F8B50F4617
:10099000064601F0FFF957F804CC754D2CF0010321
:1009A000A7F10800C218A9685468914224F0030412
:1009B00000F084801CF0010F546002EB040133D17D
:1009C00057F808EC4968A0EB0E0005F1080C8768A1
:1009D0006745734401F0010160D0D0F80CE0C7F81E
:1009E0000CE0CEF80870002900F08D8043F0010182
:1009F00041601360B3F5007F30D2DB08591C6C688E
:100A00009A1001239340234305EBC10255F831406E
:100A10006B60083AC0E9024245F83100E0603046B8
:100A2000BDE8F84001F0B8B94968C9070ED42344BD
:100A300005F1080C9168614543F001046BD0D26860
:100A4000CA6091604460C350D4E7704743F001012D
:100A5000B3F5007F47F8041C1360CED35A0A042A6A
:100A600046D89A0902F13907FF0002F13801EC1962
:100A7000EA59083C944255D0516821F0030199424B
:100A800002D992689442F7D1D468C0E90224A060E8
:100A9000D0603046BDE8F84001F07EB9002962D14F
:100AA000D2E90221234443F00104D1608A6044600A
:100AB000C3503046BDE8F84001F06EB91CF0010F9C
:100AC000234407D157F8082C801A1344D0E90212A6
:100AD000CA609160274A126843F001019A4241605E
:100AE000A8609CD8244B30461968FFF7FDFE96E7B6
:100AF000142A0AD9542A1DD81A0B02F16F07FF00D5
:100B000002F16E01B3E7234494E702F15C07FF00B2
:100B100002F15B01ABE7C5E90400C0E902CC446027
:100B2000C3507CE76B688910012707FA01F119436C
:100B30006960AAE7B2F5AA7F06D8DA0B02F1780756
:100B4000FF0002F1770192E740F254518A4206D841
:100B50009A0C02F17D07FF0002F17C0187E74FF458
:100B60007E777E2183E743F001014160136056E701
:100B7000A4050020B0090020F40A002000F00CB801
:100B800010B4044C13460A46014620685DF8044B35
:100B900000F002B8080000202DE9F04F0C4697B095
:100BA00091461D46064608B1836BBBB1A38903F489
:100BB0008473B3F5847F19D0A76A002F00F02981D0
:100BC000012D18D0022D67D0002D5BD01623336085
:100BD0004FF0FF38404617B0BDE8F08FFFF776FDC5
:100BE000A38903F48473B3F5847FE5D121463046AD
:100BF000FFF766FCE0E72146304600F03BF9B0F134
:100C0000FF3F8046E4D0AA46814400252369002B9B
:100C10003DD0B4F90C3040F61A019AB20A4207D11D
:100C2000500556D47D4A97423AD043F40063A381DD
:100C300021463046FFF744FC80460028C8D12B46A9
:100C40004A46E1693046B8470130C1D0216B41B115
:100C500004F14003994202D03046FFF795FE00238D
:100C60002363A3892269226023F402630021A38104
:100C7000616004F15C00082201F03CF8404617B0C6
:100C8000BDE8F08F2369AA46A846002BC1D12146B2
:100C9000304600F035FBBCE74FF0000AD046B5E720
:100CA000B4F90E100029C0DB6A46304600F0C4F8E3
:100CB000002840F09580019AB4F90C3002F470429B
:100CC000B2F5004FB1D143F480634FF48062A38149
:100CD000E264002D5DD1CB46BAF1000F68D1A38943
:100CE000D90474D5236D6068216BA3EB000803461B
:100CF000002964D0D4F83CC0A8EB0C08A36B22698F
:100D000080449B1AA8EB03086344C34503DB08EB4C
:100D10000300584567D8E36CE1695B4203EA0B08BE
:100D2000424600233046B847013081D02369216B09
:100D300023600023636041B104F14003994202D073
:100D40003046FFF721FE00232363A389BBEB080B8A
:100D500023F02003A38110D02146304601F086F80D
:100D600000287FF465AF63685B45FFF461AF2268DC
:100D7000A3EB0B035A44C4E9002304F15C000822EE
:100D8000002100F0B7FF4FF00008404617B0BDE863
:100D9000F08F6A46B4F90E10304600F04DF8002886
:100DA0007FF446AF049B09EB030BBAF1000F96D01A
:100DB000216B19B16068D4F83CC09FE76368216873
:100DC0002269891AA8EB01080B4400219DE75246CD
:100DD0000123E1693046B847421C034683D127E727
:100DE000B4F90C3021E7ABEB08084244A3EB08034D
:100DF000C4E9002341B104F14003994202D03046D6
:100E0000FFF7C2FD00232363A38923F02003A381FE
:100E1000B3E71D2333604FF0FF38DBE609230008FA
:100E200010B4044C13460A46014620685DF8044B92
:100E3000FFF7B2BE0800002038B50B46074C054648
:100E4000114618460023236010F05CFD431C00D0BF
:100E500038BD2368002BFBD02B6038BD0854002020
:100E600000F008B8024B0146186800F003B800BF54
:100E70000800002070B50C46064608B1836B33B3FA
:100E8000A56A002D39D0A38903F00C02082A21D0CD
:100E900013F480520FD1E16930460123A847411C69
:100EA00028D0A3895A0709D56268236B801A0BB131
:100EB000E36BC01A70BD5A07206DF5D41B07F9D536
:100EC0002368002BF6D022699B1A184470BDFFF7E7
:100ED000FDFBD5E72268002ADAD02169521A002AE0
:100EE000D6DDDA05D4D5304602230022E169A847D1
:100EF000451CD6D14FF0FF3070BD1D2333604FF03D
:100F0000FF3070BD024B01461868FFF7B3BF00BF4A
:100F1000080000202DE9F04110F538771BD08846F5
:100F20000026D7E90154013D0FD4A389012B05F117
:100F3000FF3506D9B4F90E300133204601D0C04741
:100F400006436B1C04F16804EFD13F68002FE8D121
:100F50003046BDE8F0813E463046BDE8F08100BF36
:100F60002DE9F84310F538771FD0884606464FF034
:100F70000009D7E90154013D11D4A389012B05F1E2
:100F8000FF3508D9B4F90E3001332146304602D07E
:100F9000C04749EA00096B1C04F16804EDD13F68C1
:100FA000002FE6D14846BDE8F883B9464846BDE87B
:100FB000F88300BF2DE9F04186B002FB03F49046B0
:100FC0001E4601AA0123CDE901140594CDE90323AE
:100FD0000C9D074608B1836BBBB1B5F90C309A0480
:100FE00006D46A6E43F4005322F40052AB816A6661
:100FF0002946384603AA08F07DFE48B10598241A10
:10100000B4FBF8F006B0BDE8F081FFF75FFBE4E762
:10101000304606B0BDE8F08110B5054C82B00093B3
:1010200013460A4601462068FFF7C4FF02B010BD10
:101030000800002010B5044682B008B1836B53B19C
:101040004B68013B002B4B600EDB0B685A1C0A609F
:10105000187802B010BD0191FFF738FB01994B6879
:10106000013B002B4B60F0DA204602B0BDE8104097
:1010700000F088BF38B50F4B1D6804460DB1AB6B4F
:101080004BB16368013B002B63600CDB23685A1C87
:101090002260187838BD2846FFF718FB6368013BCB
:1010A000002B6360F2DA21462846BDE8384000F0A4
:1010B00069BF00BF0800002008F068BD08F074BDDB
:1010C00070B50D4E0D4D761BB61006D000240134C0
:1010D00055F8043B9847A642F9D1094E094D761BB5
:1010E00042F0CEFFB61006D00024013455F8043B80
:1010F0009847A642F9D170BD94F4040894F404080A
:10110000C0F4040894F4040801390B291FD8DFE85F
:1011100001F0080A0C0E10121416181A1C0600F022
:1011200085B809F0ADBB09F0B9BB09F0C5BB09F042
:10113000D9BB00F00FB800F013B800F025B800F0EC
:1011400037B800F043B800F04FB800F05BB80020AB
:10115000704700BF303809288CBF0020012070473D
:10116000002100F001B800BF38B504460D4600F07C
:1011700023F800B938BD2946204600F039F8B0FA06
:1011800080F0400938BD00BF002100F001B800BF69
:10119000FF2809D8054BC05C00F00300A0F1020055
:1011A000B0FA80F04009704700207047F940040809
:1011B000002100F001B800BFFF289DBF024BC05CBA
:1011C00000F0970000207047F9400408002100F06B
:1011D00001B800BFFF289DBF024BC05C00F01000AB
:1011E00000207047F9400408002100F001B800BF5A
:1011F000FF289DBF024BC05C00F008000020704734
:10120000F9400408002100F001B800BFFF2809D808
:10121000054BC05C00F00300A0F10100B0FA80F0C3
:101220004009704700207047F9400408A0F13003DE
:10123000092B07D920F02000413805288CBF002059
:10124000012070470120704742B110B50B4910468C
:10125000144601F079F818B9094810BD08487047DC
:101260000749204601F070F80028F5D020460549CE
:1012700001F06AF80028EFD0002010BD6CAC040823
:10128000747F04086C970408014B93F82801704799
:1012900038040020024B0A4601461868FFF7D4BF05
:1012A0000800002070B50C46B1F90E10002996B068
:1012B00015461E4614DB6A46FFF7BEFD00280FDB0D
:1012C000019A02F47042A2F50052B2FA82F2520977
:1012D0004FF480634FF4006032602B6016B070BD35
:1012E000A289002312F08000336004D04022184607
:1012F0002A6016B070BD4FF480632B6016B070BDCD
:101300008A8992070B4606D501F1430201211A6032
:10131000C3E90421704770B582B001AB6A460C4640
:101320000646FFF7BFFF00990546304600F042F839
:10133000B4F90C3070B11649F163019A009920603C
:1013400043F08003A381C4E904018AB92B43A3813C
:1013500002B070BD9A05FBD423F0030304F14302ED
:1013600043F002030121A3812260C4E90421EFE7D5
:101370003046B4F90E1009F071FA10B9B4F90C3016
:10138000E4E7A38923F0030343F001031BB2DDE785
:101390001D050008024B0146186800F00BB800BF9D
:1013A00008000020024B01461868FFF7EDBA00BFA5
:1013B000080000202DE9F04F01F10B05162D83B038
:1013C000064623D8102900F2B98000F0E3FC10256E
:1013D00018230220CD4F3B44A3F108025C689442DD
:1013E00000F0B980636823F003032344D4E9025179
:1013F0005A68E96042F0010230468D605A6000F0A0
:10140000CBFC0834204603B0BDE8F08F35F007056B
:1014100000F19480A94200F2918000F0BBFCB5F588
:10142000FC7FC0F09D816B0A00F08F80042B00F2DE
:101430007381AB0903F1390003F1380CC300B34FDA
:101440003B44A3F108015C68A14206D10CE0002AEC
:1014500080F22B81E468A14206D0636823F0030385
:101460005A1B0F2AF3DD60463C69DFF8A4C26445CD
:101470007CD0636823F003035A1B0F2A00F37E819C
:10148000002AC7E904CC80F26F81B3F5007F80F0B9
:101490001A81DB08591C7A6857F83180C4F8088033
:1014A0004FF0010E9B100EFA03F307EBC10E13432E
:1014B000AEF10802E2607B6047F83140C8F80C40AA
:1014C0008210012494409C4256D81C4206D120F040
:1014D000030064001C4200F10400FAD007EBC009CD
:1014E000CE468046DEF80C309E4507D120E1002A2A
:1014F00080F22781DB689E4500F01A81596821F04F
:1015000003014A1B0F2AF2DDD3E9028E5C1945F074
:1015100001055D6042F00105C8F80CE03046CEF8E8
:101520000880C7E90444C4E902CC65605A500093BE
:1015300000F032FC009B03F1080402E00C2333604E
:101540000024204603B0BDE8F08F4FF40073402024
:101550004FF03F0C73E7DC68A34208BF02307FF412
:1015600041AF3C69DFF8A8C1644582D17B68821035
:10157000012494409C42A8D9BC68636823F0030806
:10158000A84503D3A8EB05030F2B7EDCDFF884917D
:10159000D7F80824D9F80030013204EB080A2B44AC
:1015A00000F0378103F580530F3323F47F6B2BF06A
:1015B0000F0B5946304600F007FD411C024600F073
:1015C000F780824500F2F280D9F804105944C9F836
:1015D00004100B4600F05381D7F8081401311BBFEB
:1015E000A2EB0A0A5344C7F80824C9F8043012F0E1
:1015F000070300F01A81C3F108010A44C3F58051C2
:1016000093440831A1EB0B01C1F30B0A514630465C
:101610000193009200F0D8FC421CDDE9002300F0A9
:101620005381831A03EB0A0BD9F80410BA604BF00C
:1016300001035144BC425360C9F8041000F02B81EF
:10164000B8F10F0F40F229816368A8F10C0020F077
:10165000070003F0010304EB000C03434FF0050EF9
:101660000F286360CCE901EE00F23581536814461F
:10167000D9F82C208A42D9F8302038BFC9F82C106C
:101680008A4238BFC9F8301094E0621943F0010370
:1016900045F0010565603046BA60536000F07CFBA0
:1016A0000834204603B0BDE8F08F2344E1685A684F
:1016B000A56842F00102E96030468D605A6000F092
:1016C0006BFB08343DE75A0A042A69D9142A00F250
:1016D000BE8002F15C01C9005B3207EB010E795854
:1016E000AEF1080E8E4500F097804A6822F00302A2
:1016F0009A4202D989688E45F7D1D1F80CE07B680F
:10170000C4E9021ECEF80840CC60D9E6A40500204A
:10171000AC050020F40A0020142B59D9542B00F2F8
:101720009E802B0B03F16F0003F16E0CC30086E665
:1017300008F1010818F0030F0EF1080E7FF4D2AE85
:1017400051E019441C464A68DB6854F8085F42F0CF
:1017500001024A603046EB609D6000F01DFBF0E640
:10176000E80805F1080335E6234430465A6842F09C
:1017700001025A60083400F00FFBE2E6611945F0FF
:10178000010E42F00105C4F804E03046C7E9041137
:10179000C1E902CC4D60E25000F0FEFA0834D0E618
:1017A0009A0902F13901C900383296E7BC4260D08B
:1017B000BC68636823F0030BAB45ABEB050302D3B6
:1017C0000F2B3FF762AF304600F0E6FA0024B8E690
:1017D00003F15C0003F15B0CC30030E659F80839F3
:1017E0004B4540F0968010F0030F00F1FF30F5D12B
:1017F0007B6823EA04037B6064009C423FF6BCAE36
:101800001CB9B9E6640008F104081C42FAD040464D
:1018100064E603F1100BCCE67B6892104FF00108F0
:1018200008FA02F213437B606AE702EB0B014942BC
:10183000C1F30B0A514630460193009200F0C4FBFD
:10184000431CDDE900237FF4ECAE9A46ECE6542A13
:1018500026D81A0B02F16F01C9006E323DE7B3F5CD
:10186000AA7F26D8EB0B03F1780003F1770CC300B5
:10187000E5E5D9F804305B44C9F80430ACE6CAF3B6
:101880000B0000287FF4A8AE08EB0B03BC6843F004
:1018900001036360ECE61446EAE60123536092E735
:1018A000B2F5AA7F21D8DA0B02F17801C9007732AC
:1018B00013E740F25452934221D8AB0C03F17D0060
:1018C00003F17C0CC300BAE5083B9B44ABEB020B75
:1018D0004FF0000AA8E604F108013046FFF754F87B
:1018E000BC68D9F804106368C2E640F254518A42D9
:1018F0000BD89A0C02F17D01C9007C32EDE64FF461
:101900007E737F204FF07E0C99E54FF47E717E222E
:10191000E3E67B6870E700BFF0B50D4D83B0D5F806
:10192000E450089C07462AB10094A847431C08D0FD
:1019300003B0F0BD114601230094064AA847431C9A
:10194000F6D100228A2322603B6003B0F0BD00BFC5
:10195000380400206C970408F0B50F4D0F4CD5F8F3
:10196000E460246883B01D4649B1009313460A46DB
:1019700001462046B047431C08D003B0F0BD009399
:10198000074A01232046B047431CF6D100228A2390
:101990002A60236003B0F0BD380400200800002056
:1019A0006C97040810B4034CD4F8E440A4465DF8E6
:1019B000044B60473804002082B049B15AB16BB182
:1019C00013780B601278101C18BF012002B070470A
:1019D00001A9002AF3D1104602B070476FF0010050
:1019E000F4E700BF0000000000000000000000005D
:1019F00001F0FF01102A2BDB10F0070F08D010F8C0
:101A0000013B013A8B422DD010F0070F42B3F6D1C3
:101A1000F0B441EA012141EA014122F007047FF0DC
:101A200000070023F0E80256083C85EA010586EA33
:101A3000010685FA47F5A3FA87F586FA47F6A5FA6F
:101A400087F68EB9EED1F0BC01F0FF0102F007027B
:101A500032B110F8013B013A83EA010313B1F8D126
:101A60000020704701387047002D06BF3546033807
:101A7000073815F0010F07D1013015F4807F02BF40
:101A8000013015F4C03F0130F0BC0138704700BF91
:101A9000032A70B412D940EA0105AD0704460B468B
:101AA00020D11946204653F8045B54F8046BAE422B
:101AB00018D1043A032A20461946F2D8541E72B1AE
:101AC00003780A789A4208BF241806D00CE010F870
:101AD000013F11F8012F934206D1A042F7D1002017
:101AE00070BC7047541EEBE7981A70BC704700BF7B
:101AF000844641EA000313F003036DD1403A41D319
:101B000051F8043B40F8043B51F8043B40F8043BD7
:101B100051F8043B40F8043B51F8043B40F8043BC7
:101B200051F8043B40F8043B51F8043B40F8043BB7
:101B300051F8043B40F8043B51F8043B40F8043BA7
:101B400051F8043B40F8043B51F8043B40F8043B97
:101B500051F8043B40F8043B51F8043B40F8043B87
:101B600051F8043B40F8043B51F8043B40F8043B77
:101B700051F8043B40F8043B51F8043B40F8043B67
:101B8000403ABDD2303211D351F8043B40F8043B07
:101B900051F8043B40F8043B51F8043B40F8043B47
:101BA00051F8043B40F8043B103AEDD20C3205D317
:101BB00051F8043B40F8043B043AF9D2043208D00F
:101BC000D2071CBF11F8013B00F8013B01D30B8881
:101BD00003806046704700BF082A13D38B078DD05F
:101BE00010F003038AD0C3F10403D21ADB071CBF31
:101BF00011F8013B00F8013B80D331F8023B20F89B
:101C0000023B7BE7043AD9D3013A11F8013B00F8D3
:101C1000013BF9D20B7803704B7843708B7883705B
:101C2000604670478842F0B40DD98B1883420AD9B8
:101C3000841832B1224613F8014D02F8014D994241
:101C4000F9D1F0BC70470F2A0ED80346541E002A63
:101C5000F7D001340C44013B11F8012B03F8012F9C
:101C6000A142F9D1F0BC704740EA01039B073BD188
:101C7000A2F110073F0901F1200606EB071601F15A
:101C8000100300F1100453F8105C44F8105C53F892
:101C90000C5C44F80C5C53F8085C44F8085C53F89E
:101CA000045C44F8045C1033B34204F11004EAD13C
:101CB0007B1C1B0112F00C0F194402F00F050344AA
:101CC00015D0043DAD0803EB850C1C1F0E4656F8DD
:101CD000047B44F8047F6445F9D10135AD002B4401
:101CE000294402F00302B1E7541E0346B1E72A4635
:101CF000ACE700BFF0B4860746D0541E002A3CD0A3
:101D0000CAB2034602E014F1FF3436D303F8012BC4
:101D10009D07F8D1032C29D9CDB245EA05250F2C12
:101D200045EA054533D9A4F11006360903F1200729
:101D300007EB061703F1100242E9045542E9025588
:101D40001032BA42F8D1721C14F00C0F03EB0212DD
:101D500004F00F0613D0331F23F00303043313449E
:101D600042F8045B9342FBD106F003042CB1C9B2E4
:101D70001C4403F8011B9C42FBD1F0BC7047344665
:101D80001346002CF3D1F8E714460346C2E71A467F
:101D90002646E0E7704700BF704700BF10B5044615
:101DA00082B008B1836B83B19368013B002B9360D1
:101DB00016DA9069834215DBC8B20A2812D013687C
:101DC0005C1C1460197002B010BDCDE90012FEF762
:101DD0007DFCDDE900129368013B002B9360E8DB9A
:101DE000C8B2ECE7204602B0BDE8104005F068BC80
:101DF000164B70B51D6806460C460DB1AB6B7BB13A
:101E0000A368013B002BA36012DAA269934215DBA1
:101E1000F0B20A2812D023685A1C22601E7070BDCE
:101E20002846FEF753FCA368013B002BA360ECDBC4
:101E300023685A1C22601E70F0B270BD22463146E3
:101E40002846BDE8704005F03BBC00BF08000020FC
:101E500007F01CBF07F02EBF838903F00903092B8D
:101E600001D000207047FEF745BB00BFF8B50C4617
:101E7000054610B1836B002B41D0B4F90C309AB2F7
:101E8000970407D4626E43F4005322F40052626652
:101E9000A3819AB20021960661605BD450071BD4DF
:101EA000D1065AD512073ED443F00403A381236917
:101EB000002B44D0B4F90C70BEB2B30722D1226912
:101EC000226028466369256AE169A84700286060A6
:101ED000C8BF002038DDF8BD216B0029E7D004F130
:101EE0004003994202D02846FEF74EFDE36B636043
:101EF00000202063002BDAD0A36B2360F8BDFEF72F
:101F0000E5FBBAE71D4B1E4918680123A38106F0C3
:101F10000906FEF7FFFF092EA781D0D121462846EA
:101F2000FEF728FACBE721462846FEF7C9FA88B91A
:101F3000B4F90C30A060A06123F00803B4E7214697
:101F40002846FFF7DDF9B5E7B4F90C300DD143F0C1
:101F50002003A3814FF0FF30F8BD43F04003092276
:101F60002A604FF0FF30A381F8BD43F04003002208
:101F7000A38162604FF0FF30F8BD00BFFC41040850
:101F8000591E000838B50C46054608B1836B63B18D
:101F900028462146FFF76AFF50B9D4E90023013BE8
:101FA000511CC4E90013107838BDFEF78FFBEFE732
:101FB0004FF0FF3038BD00BF024B01461868FFF7F5
:101FC000E1BF00BF0800002038B5074C00230546DC
:101FD000084623600FF0C6FC431C00D038BD2368C0
:101FE000002BFBD02B6038BD0854002010B5802199
:101FF0000446FFF7DFF9C4F8DC0240B1031F0022FA
:102000007C3043F8042F8342FBD1002010BD4FF0F9
:10201000FF3010BDD0F8DC320BB100207047E5E78F
:102020001F2970B5054609D8D0F8DC3216460C4693
:102030004BB153F8240043F8246070BD16220260AF
:102040004FF0FF3070BDFFF7D1FF10B9D5F8DC328B
:10205000EFE74FF0FF3070BD1F2938B522D8D0F818
:10206000DC2205460C466AB152F8213053B1012BEF
:1020700016D0591C10D00025204642F8245098470D
:10208000284638BD284600F073F822460146284607
:10209000BDE8384000F058B816230360012038BD71
:1020A000002038BD162303604FF0FF3038BD00BF5D
:1020B0001F2923D838B5D0F8DC3205460C4683B149
:1020C00053F8242003EB84034AB1511C11D0012A98
:1020D0000DD0002520461D609047284638BD0120C0
:1020E00038BDFFF783FF30B9D5F8DC32E8E70320CD
:1020F00038BD022038BD4FF0FF3038BD4FF0FF3003
:10210000704700BF024B01461868FFF7A5BF00BF2C
:1021100008000020024B0A4601461868FFF780BFFE
:1021200008000020034B1868D0F8DC320BB1002007
:1021300070475BE708000020024B01461868FFF774
:10214000B7BF00BF0800002038B50B46074C054656
:1021500011461846002323600FF0ECFB431C00D00F
:1021600038BD2368002BFBD02B6038BD08540020FD
:102170000FF0D0BB0CB470B59CB020AC0B4E54F833
:10218000042B0291234606916FF0004502A90194A9
:102190000795CDE9045602F0A3FD029B00221A70B8
:1021A0001CB0BDE8704002B0704700BF0802FFFFDE
:1021B0000EB430B59CB01FAB0C4C0D4D53F8042B36
:1021C0000193014602910691206802A96FF0004434
:1021D0000794CDE9044502F083FD029B00221A70AA
:1021E0001CB0BDE8304003B0704700BF08000020BD
:1021F0000802FFFF0EB470B59DB021AC4FF4017220
:1022000054F8045BADF814200290069001F0D8FA5F
:102210000C4B019401462A46039107910A4E186817
:102220000A9623464FF6FF75002402A90E941394D4
:10223000ADF8165003F0A0FF1DB0BDE8704003B02C
:10224000704700BF08000020C52200080CB470B51C
:102250009CB020AC05464FF40173084654F8046B5B
:1022600002910691ADF8143001F0AAFA0146324607
:10227000234601940391002407912846074E0A96AD
:102280004FF6FF7502A90E941394ADF8165003F0A3
:1022900073FF1CB0BDE8704002B07047C522000853
:1022A00010B50C46B1F90E1009F036F8002803DB22
:1022B000236D0344236510BDA38923F48053A381B8
:1022C00010BD00BF002070472DE9F0411646B1F95E
:1022D0000C201F46D3050C460546B1F90E1009D453
:1022E00022F48052A2813B4632462846BDE8F041A6
:1022F00006F058BB0022022308F010FBB4F90C20B2
:10230000B4F90E10ECE700BF10B50C46B1F90E1091
:1023100008F004FBA389421C0EBF23F4805343F44E
:1023200080532065A38110BDB1F90E1006F0F0BBFB
:10233000000000000000000000000000000000009D
:10234000A2EB0300704700BF02780B78012A28BF78
:102350009A42F5D16DE9044540EA0104CDE90267EE
:102360006FF0000C4FEA447212B380EA010414F0DB
:10237000070F6AD100F0070420F0070004F00305FE
:1023800021F007014FEAC505F0E8042314F0040F1B
:10239000F1E804670CFA05F462EA040266EA04064E
:1023A0000AD063EA0403624667EA0407664603E06C
:1023B000F0E80423F1E8046782FA4CF582EA0604A7
:1023C000A4FA8CF46CBB83FA4CF583EA0705A5FAF2
:1023D0008CF595B950E9022351E9026782FA4CF570
:1023E00082EA0604A4FA8CF483FA4CF583EA070522
:1023F000A5FA8CF52543DBD09CB92DBAB5FA85F446
:1024000024F0070427FA04F1DDE9026723FA04F354
:1024100003F0FF0001F0FF01FDE80445A0EB01001F
:10242000704724BAB4FA84F424F0070426FA04F1BD
:10243000DDE9026722FA04F202F0FF0001F0FF0179
:10244000FDE80445A0EB0100704714F0030F3CD1F8
:1024500010F0030428D150F8082B51F8083B82FAF9
:102460004CF582EA0305A5FA8CF55DB950F8042C09
:1024700051F8043C82FA4CF582EA0305A5FA8CF582
:10248000002DE8D02DBAB5FA85F424F0070423FA1C
:1024900004F122FA04F202F0FF0001F0FF01FDE86E
:1024A0000445A0EB010070474FEAC40420F003008C
:1024B00050F8082B21F0030151F8083B0CFA04F402
:1024C00062EA040263EA0403C9E710F003041AD0C5
:1024D000A1EB040120F00300E40750F8042B06D020
:1024E0000FD28B785FFAA2F4E41A06D12BB1CB7825
:1024F0005FFAB2F4E41A00D11BB920465DF8104B24
:10250000704701F1040150F8042BCC0721F00301BE
:1025100051F8043B48D824D222F07F4482FA4CF58B
:1025200094EA1325A5FA8CF50AD165B951F8043B54
:1025300084EA0204B4EB036F0ED150F8042BEBE7EE
:102540004FEA132355E035F07F454DD10878FDE87B
:102550000445C0F1000070474FEA126203F0FF0328
:1025600047E002EA1C4482FA4CF594EA1345A5FAC6
:102570008CF50AD165B951F8043B84EA0204B4EB46
:10258000034F0CD150F8042BEBE74FEA134330E034
:1025900015EA1C4528D10B884FEA124229E04FEA80
:1025A000124203EA1C4324E002F0FF0482FA4CF5D5
:1025B00094EA1365A5FA8CF50AD165B951F8043B84
:1025C00084EA0204B4EB032F09D150F8042BEBE7A3
:1025D0004FEA13630DE015F0FF0F05D10B684FEACA
:1025E000122223F07F4304E04FF00000FDE8044591
:1025F000704712BA1BBA82FA4CF482EA0304A4FAB6
:102600008CF5B5FA85F402FA04F203FA04F34FEA02
:102610001260FDE80445A0EB13607047FFF794BE1D
:1026200010B58E2900F23181DFE811F08F002D0105
:102630002B01290127012501230121011F011D0172
:102640001B0119011701150113012F0111010F01C0
:102650000D010B0109010701050103010101FF0043
:10266000FD00FB00F900F700F500F300F100EF00BA
:10267000ED00EB00E9002F012F012F012F012F01A9
:102680002F012F012F01E700E5002F012F012F015E
:102690002F012F012F012F012F012F012F012F01BA
:1026A0002F012F01E300E100DF00DD002F012F01EA
:1026B0002F01DB002F012F012F01D9002F012F0146
:1026C000D7002F012F01D5002F012F012F012F013E
:1026D0002F012F012F012F012F012F01D3002F01D7
:1026E000D100CF00CD002F012F01CB002F012F01F2
:1026F0002F012F012F012F012F012F01C900C7002A
:10270000C500C300C100BF002F01BD00BB00B90060
:10271000B700B500B300B100AF00AD00AB00A90039
:10272000A700A5002F01A300A1009F009D002F017D
:102730002F012F012F012F019B002F012F012F01AE
:1027400099009700950093009100574810BD574895
:1027500010BD574810BD574810BD574810BD5748C9
:1027600010BD574810BD574810BD574810BD5748B9
:1027700010BD574810BD574810BD574810BD5748A9
:1027800010BD574810BD574810BD574810BD574899
:1027900010BD574810BD574810BD574810BD574889
:1027A00010BD574810BD574810BD574810BD574879
:1027B00010BD574810BD574810BD574810BD574869
:1027C00010BD574810BD574810BD574810BD574859
:1027D00010BD574810BD574810BD574810BD574849
:1027E00010BD574810BD574810BD574810BD574839
:1027F00010BD574810BD574810BD574810BD574829
:1028000010BD574810BD574810BD574810BD574818
:1028100010BD574810BD574810BD574810BD574808
:1028200010BD574810BD574810BD574810BD5748F8
:1028300010BD574810BD574810BD574810BD5748E8
:1028400010BD574810BD574810BD574810BD5748D8
:1028500010BD574810BD574810BD574810BD5748C8
:1028600010BD574810BD574810BD574810BD5748B8
:1028700010BD574810BD574810BD574810BD5748A8
:1028800010BD574810BD574810BD14460246002BD6
:1028900018BF1A460846214604F0C8FD524B0028CE
:1028A00008BF184610BD00BF70B30408E4B20408A6
:1028B000CCB20408B8B204081CB3040814B004086D
:1028C0004CAF040884B204089CB2040888AE040823
:1028D00048B20408BCB0040844B3040850AD04086E
:1028E00018AD040820AE040820AF040810AE040898
:1028F00058B3040864AE040838B0040860B2040891
:1029000030B2040800B20408E8B10408C8B10408F1
:10291000A8B1040878B1040854B1040814B204083A
:10292000F8B204083CB1040820B104080CB1040852
:10293000F0B00408E4B00408D0B00408ACB0040857
:1029400094B0040880B0040868B0040870B10408AA
:1029500058B0040850B004082CB0040800B00408B3
:10296000E4AF0408D0AF0408A0AF040894AF040893
:1029700084AF04086CAF04085CAF040834AF0408EB
:1029800010AF040800AF0408E8AE0408C8AE04089D
:10299000A8AE040850AE040840AE040800AE040817
:1029A000F0AD0408DCAD0408D0AD0408B8AD0408EF
:1029B000ACAD040898AD040884AD040870AD0408FB
:1029C00044AD040834AD040804AD0408F0AC0408B8
:1029D000D4AC0408C8AC0408B0AC0408A0AC04082B
:1029E00084AC040878AC04086C97040810B4044C58
:1029F000002301461A4620685DF8044BFFF710BE1D
:102A00000800002010B4044C002301461A46206838
:102A10005DF8044BFFF704BE080000204269002A5D
:102A200040F26C71A8BF6FF0630111448B0710B4C2
:102A300052D0CB17304A82FB0142C3EBE2124FF473
:102A4000C87303FB1212B2FA82F25209D0E90631BE
:102A5000580000EB01101044212827DD41F2C66325
:102A6000984212DC41F2C263984233DA41F2A26327
:102A700098422FD03DDBA0F5B550123802288CBF0C
:102A8000002001205DF8044B704741F2D563984265
:102A900020D041F2D76398421CD041F2D363C01AD0
:102AA000B0FA80F040095DF8044B704720280EDA38
:102AB0000D280ADD10281CDB112808DD1C38012830
:102AC0008CBF00204FF0FF30EDE70A28F7DB4FF016
:102AD000FF30E8E70120E6E7074ACB1782FB014217
:102AE000C3EB6212642404FB1212002AA2D001225A
:102AF000ACE70020D7E700BF1F85EB512DE9F04F71
:102B000099B000240E9482468B469946A0461378CD
:102B100073B1252B16D00BF1FF31414540F2838074
:102B20000AF808300132137808F10108002BF0D1BF
:102B3000BBF1000F79D0002340460AF8083019B0E5
:102B4000BDE8F08F5478302C76D02B2C74D02146F1
:102B5000A1F13103082B02F101054FF0000472D9F5
:102B60000026452965D04F2963D0A1F12502552AB9
:102B700059D8DFE812F0910058005800580058006A
:102B80005800580058005800580058005800580085
:102B90005800580058005800580058005800580075
:102BA00058005800580058005800580058009B0022
:102BB000BA00D90003015800FE031304C1035E04E8
:102BC000580058005800C90358005800CD03580059
:102BD000390349034D035E036B03790382038903C1
:102BE00025015800580058005800580058005A0154
:102BF0007C019D01B601B6015800BE017C01580060
:102C0000E201C1035E0441022E035800CD035800C7
:102C100076027D0246025102580062026F02710084
:102C2000FB0104F047FA4FF00008404619B0BDE838
:102C3000F08F6978013598E79178A1F13103082B7D
:102C400002F102058CD8284610A90A2202F018F8D1
:102C5000109D0646297884E7D9F814000028C0F2B0
:102C60003685B84B83FB0032C317C3EB6213642273
:102C700002FB1303B44AABEB08010AEB080008F0AF
:102C8000F5FD0028CFDB8044C345CCD92B78002B41
:102C90003FF44EAF6A1C3AE70BF1FF334345C2D90C
:102CA00025230AF8083008F10108EFE7A74BD9F807
:102CB000182003EB8203DC6F204600F081FD002822
:102CC000E4D00BF1FF36B045ADD208F1FF33621E00
:102CD0004044534408F1010812F8011F03F8011F92
:102CE0008045D3D0B045F5D39DE7D9F81030974A49
:102CF0000C3352F82340204600F062FD0028C5D076
:102D00000BF1FF36B0458ED208F1FF33621E40440E
:102D1000534408F1010812F8011F03F8011F804510
:102D2000B4D0B045F5D37EE7894BD9F81420022EF4
:102D300038BF02269A42ACBF00230123002A0A931F
:102D40000AEB0807ABEB0801C0F2A8847D4B83FBBC
:102D50000230D317C3EB60101330002C40F0EB832C
:102D6000DFF804C27B4B0A9AB61ACDE900606246CE
:102D7000384608F07BFD002885DA54E7D9E904409D
:102D80000028D9F80C3004F101040AEB0806ABEB7B
:102D90000807C0F272846B4A82FB0021C217C2EBA3
:102DA0006112642101FB1202CDE90032394623464B
:102DB0003046694A08F05AFD0028BFF664AF32E792
:102DC000D9F82030002BFFF665AF04F071F90E9BA7
:102DD000002B00F0B884D9F82030604A002BD4BF13
:102DE0000023012352F82340204600F0E9FC00288C
:102DF00000F0B8840BF1FF36B045BFF412AF08F114
:102E0000FF33621E534408EB000402E046457FF6A0
:102E100008AF08F1010812F8011F03F8011FA045CF
:102E2000F4D104F047F9A046E3E0D9F81830474A56
:102E3000183352F82340204600F0C2FC00283FF42B
:102E400025AF0BF1FF36B045BFF4EDAE08F1FF330F
:102E5000621E4044534408F1010812F8011F03F8B0
:102E6000011F80453FF412AFB045F4D3DBE6374B8A
:102E7000D9F8102053F82240204600F0A1FC002889
:102E80003FF404AF0BF1FF36B045BFF4CCAE08F110
:102E9000FF33621E4044534408F1010812F8011F39
:102EA00003F8011F80453FF4F1AEB045F4D3BAE614
:102EB000264BD3F8A040204600F082FC2378002B5C
:102EC0003FF4E4AE229B009322464B46ABEB080155
:102ED0000AEB0800FFF712FE00287FF7A4AE80443B
:102EE000D4E619481E4AD9F80C30642908BF0246B6
:102EF000C1E64846FFF792FD0446D9F814000028C1
:102F0000C0F259830F4BC21783FB0031C2EB611231
:102F1000642303FB1202A1180A4C84FB0123CA1785
:102F20006420C2EB631200FB12120244A4FB0213E2
:102F30005B0900FB1323044A9DE6D9F81C30094ABB
:102F4000013398E61F85EB5190B3040894420408BE
:102F500094F8FFFF6C9704089CB30408B4090020A0
:102F600098B30408BCB3040880B30408D9F820302F
:102F7000002BFFF68FAE04F09BF80E9B002B00F0A9
:102F8000128307F067FCD9F82030CF4E002BCCBF5E
:102F90000A2305230AEB080750F83340644204F083
:102FA00089F886FB04302044E317C3EB60100E93CE
:102FB00007F0A6FC86FB00321118C44BC217C2EB07
:102FC0006112C2EB021283FB04310E9BA0EB820262
:102FD0000C440092ABEB0801C3EBE4233846BC4A37
:102FE00008F044FC0028FFF61EAE8044C3457FF67F
:102FF0001AAE01230E9349E6D9F81030B54A0133D1
:1030000039E60BF1FF3343457FF60DAE09230AF88D
:10301000083008F1010839E60BF1FF3343457FF62C
:1030200002AED9F818300AEB080208F10108002BAB
:1030300040F048823723137028E60BF1FF334345F5
:103040007FF6F1ADD9F8183030330AF8083008F1BE
:1030500001081BE6A04BD3F89C40204600F0B0FBD3
:103060002CE79D4BD3F8E440204600F0A9FB25E770
:10307000D9F82030002B80F2298200230024CDE9EA
:103080000C34D9F81410B1F145004FEAE1730890FF
:1030900043F1FF300990DDE90867ABEB0800002E33
:1030A0000F9077F100000AEB080E05DAB1F142004B
:1030B00043F1FF3308900993DDE9086700230024FA
:1030C000CDE90A34B3080A930A9A42EA87730A934D
:1030D000824B4C1E83FB0427099A92100B9201F23B
:1030E0002B1083FB003CDDE90A23E417C4EB6714D3
:1030F000C017121BC0EBEC1063EBE473161843EB24
:10310000E077463940F26D143B4604FB01F7D9F8ED
:103110001C40F21943EBE773161943EBE477CDE952
:103120000A670A9BB4197F41E31802930B9B47EB94
:1031300003030393DDE90267FB0043EA5673F200E1
:10314000CDE90223D9E90110DDE90223121843EB8E
:10315000E073140118011F46A31A40EA1272049387
:1031600062EB07030593DDE90467BB0043EA96734E
:10317000B200CDE90423DDE90423521843EBE173E7
:10318000100119011F46831A41EA1272069362EB7D
:1031900007030793DDE90667B90041EA9671B000BD
:1031A000D9F800304E4ACDE90601DDE90601DDE936
:1031B0000C67C01841EBE371831B61EB0704704699
:1031C0000F99CDE9003408F051FB0028BFF65BAD44
:1031D00029E50BF1FF3343457FF625AD0A230AF8B5
:1031E000083008F1010851E5D9F804300093D9F806
:1031F00008303C4AABEB08010AEB080008F036FB4C
:103200000028BFF640AD0EE5D9F80030314A32E56E
:10321000D9E90023CDE90032ABEB0801D9F8083039
:10322000314A0AEB080008F021FB0028BFF62BAD5D
:10323000F9E4D9E906130733591A2C4B254A83FBC5
:1032400001030B44C917C1EBA30314E54846FFF77C
:10325000E5FBD9F81820002A00F01881013A00286F
:1032600040F34D81012305E5D9F81810002900F03D
:103270000B810139D9F81C30DDE7174BD3F89840A2
:10328000204600F09DFA19E6D9F81430184A934206
:1032900080F2FE802D21D31A8DF84010002E40F0D0
:1032A000F1800DF1410010AF25220270002C40F09A
:1032B000BC8001300F490A9308F01EFB0A9B009363
:1032C0003A46334696E700BF89888888C5B3A291FD
:1032D000E8B3040890B30408944204081F85EB5136
:1032E000D0B30408C4B30408D8B3040893244992A3
:1032F00094F8FFFFB8B30408BB48BC4AD9F80830BB
:103300006B2908BF0246B6E4D9F80430B74AB2E4E4
:10331000D9F80820B64B0B2ACCBFA422A022134414
:103320005C68204600F04CFA00283FF4AFAC0BF18B
:10333000FF36B045BFF477AC08F1FF32611E52444E
:1033400008EB0004287811F8013F502808F1010823
:1033500007D1A848185C00F00300012804BF2033FF
:10336000DBB2A04502F8013F3FF490ACB045E9D391
:1033700059E425238DF84030002C00F09180052E73
:103380008DF841406BD80DF1420420469A4908F06F
:10339000B3FA229B009310AA4B4697E5D9F8142064
:1033A000964F0A92BA424846ACBF00270127FFF762
:1033B00035FB0A9A002A0146C0F23481904B83FB08
:1033C0000203D017C0EB6313133396468C48A0FB5F
:1033D0000E0C4FEA5C1C642000FB1CEC0029C0F2C0
:1033E0009C8000F08E81854882423BDB00278C4424
:1033F000BCF1FF3F00F09B80BCF1640F04BF0133C0
:103400004FF0000C642202FB03C3AFBB2B2C44D152
:1034100042F20F72934240F28D818DF840408EBB94
:103420000DF1410010AF25220270302242700230AF
:1034300040E7D9F80830002B42D00C2B09D0714A54
:1034400082FB0320DA17C2EB600202EB4202A3EB1D
:1034500082036648644A492908BF02460BE4B31F49
:1034600091D021E00CF1FF32BCF1000F00F065813A
:103470004FF0640C0CFB03232D228DF84020002E0E
:103480003FF40FAF013E0CE70621F3E60622E6E625
:103490002B2C03F26C7300F0208110AF384603E749
:1034A0002B238DF8413004230DF142042046564A67
:1034B0001E2108F0DBF900287FF767AF204465E79D
:1034C0000C23C6E730331370FFF7E0BB03F0F0FDC9
:1034D0000E9B002B64D007F0BDF9D9F82030002BEB
:1034E000CCBF0A230523012250F833400E926442D8
:1034F00003F0E0FD2246E317CDE90C23C1E5D9F83E
:103500001C302CD10A339B1A404A82FB03121A4406
:10351000DB17C3EBA203FFF7ADBB3D48D9F814207E
:10352000824219DB8C44BCF1FF3F7FF46BAF013B5F
:103530004FF0630C66E7632838DDDFF8E0E0354BD9
:10354000DFF8DCC02B2C18BF7346DFF8B0E0324C3C
:103550007245B8BF234606E401210F4647E7D9F874
:103560001400002840F26B71A8BF6FF0640108449A
:10357000D31A820700F0D080C117214A82FB004293
:10358000C1EBE2114FF4C87202FB1101B1FA81F1F3
:103590004909591A0529B4BF35233423FFF76ABBFB
:1035A00003F08AFD97E703F087FDEAE4DFF870C0D7
:1035B0001A4BFFF7D8BB00F26C7005F0A5FA104B60
:1035C000C21783FB0031C2EB61126423002C03FBA2
:1035D000120280F2BC80D9F81410A3F2CF73994282
:1035E000B8BF012497E400BF98B3040890B304085F
:1035F00094420408F9400408B0B3040894F8FFFFAB
:103600001F85EB51ABAAAA2AACB3040893244992B4
:1036100095F8FFFF88B304088CB304086C9704087E
:1036200078B304080C9002F26C700A9205F06CFA00
:103630004E4BD9F814E00A9A0C9983FB003CBEF17A
:10364000000F4FEAE073C3EB6C13BFF6BFAE0EF290
:103650006C700F930C910A9205F056FA434B0C993B
:103660000A9A83FB003E4FEAE07CCCEB6E1C4FF0E5
:10367000640E0EFB1C0C0F9BB0E600F26C700A93FC
:1036800005F042FA394BC21783FB0031C2EB6112DD
:10369000642101FB12020A9BFFF786BB02F26C70E9
:1036A0000F910C9205F030FA304A0F9982FB002CF2
:1036B0000346C017C0EB6C100C9AF4B142F20F7CB9
:1036C00063453FF73AAF2A4BDFF8ACC03DE700F265
:1036D0006C7005F019FAFFF7C4BA42F20F72934208
:1036E00014D98DF84040002E7FF4CCAE25228DF801
:1036F00041200DF1410010AF97E61D4BDFF87CC073
:1037000023E7BCF1FF3F7FF47DAE10E7252210AF29
:103710008DF84020384688E6144A82FB0012C11713
:10372000C1EB6212642404FB1202002A3FF425AFAD
:1037300001212EE710AF384675E65A1E642303FBBD
:1037400002F3633398E603F0B7FCFFF744BB3FF4A2
:10375000E2AB084BD9F814109942B8BF4FF0FF34D0
:10376000FFF7D9BB4446FFF75CBB00BF1F85EB5199
:103770006C97040894F8FFFF78B3040880B304083A
:1037800010B582B0024C0094FFF7B8F902B010BD3A
:1037900038040020FFF7B2B900000000000000006C
:1037A0000000000000000000000000000000000019
:1037B0000000000000000000000000000000000009
:1037C00090F800F06DE9024520F007016FF0000C61
:1037D00010F0070491F820F040F049804FF0000409
:1037E0006FF00700D1E9002391F840F000F10800E4
:1037F00082FA4CF2A4FA8CF283FA4CF3A2FA8CF31C
:103800004BBBD1E9022382FA4CF200F10800A4FA82
:103810008CF283FA4CF3A2FA8CF3E3B9D1E90423D6
:1038200082FA4CF200F10800A4FA8CF283FA4CF30D
:10383000A2FA8CF37BB9D1E9062301F1200182FAC7
:103840004CF200F10800A4FA8CF283FA4CF3A2FACD
:103850008CF3002BC6D0002A04BF04301A4612BADB
:10386000B2FA82F2FDE8024500EBD2007047D1E9DE
:10387000002304F00305C4F100004FEAC50514F06D
:10388000040F91F840F00CFA05F562EA05021CBF3E
:1038900063EA050362464FF00004A9E70000000058
:1038A00070B504460D4645EC104B164607F0A6FBD6
:1038B00051EC100B7EB1C5F30A53C3F16B03002B1F
:1038C00009DD1B0503F17F55002405F5401522464F
:1038D0002B460CF0C3FB70BD2DE9F04F734CA3B029
:1038E0002468079488468146002120461D4600240E
:1038F0000023CDE9043406921E91FFF761FFCDF855
:103900007480834643469A4613F8014B2D2C00F2EF
:10391000B380DFE804F01EB1B1B1B1B1B1B1B1AF64
:10392000AFAFAFAFB1B1B1B1B1B1B1B1B1B1B1B18F
:10393000B1B1B1B1B1B1AFB1B1B1B1B1B1B1B1B179
:10394000B1ACB12C002D40F0B6800B9B034340F08E
:10395000B180069B13B1069BC3F800804FF0000AAC
:103960004FF0000B4BEC10AB23B0BDE8F08F012300
:103970000A930AF101031D939AF80140002CE8D044
:10398000302C9A467CD000230B93A4F13003DAB29A
:10399000092A00F29D8400263746354650460130FC
:1039A0001D90082D047807EB8702CABF06EB860638
:1039B00003EB420703EB4606A4F13003DAB2092A0F
:1039C00005F10105EBD907995A4607F0F3FF0028E6
:1039D00000F02C810020652C8346844608956AD02F
:1039E000452CAFD000230C93002D00F0B080089B35
:1039F0001A46002B08BF2A46384608920CF0B4FA43
:103A00000C9B102DA3EB0B032C46A8BF1024092DF3
:103A1000CDE904010B9313DD254B03EBC40353E9FC
:103A200012230CF01BFBCDE9040130460CF09CFA8C
:103A300002460B46DDE904010CF05AF9CDE9040118
:103A40000F2D00F306810B9B002B00F082840B9B53
:103A500040F38783162B40F37A850B9AC5F1250333
:103A6000934280F28A850B9B2C1B1C44F7E00023B9
:103A70000A937EE71D9346E70023302C0A9382D1F8
:103A80009AF80130582B00F06784782B18BF534602
:103A900000F0628401331D931C78302CFAD09A46D2
:103AA000002C00F0AF8001230B936EE790440408D4
:103AB000B04404080025DDF8748008F101031D936B
:103AC00098F801402B2C00F0E1822D2C00F073823D
:103AD0004FF0000EA4F13003092B00F27482302C59
:103AE00005D11D9B01331D931C78302CFAD0A4F115
:103AF0003103082B3FF676AF1D9907914A1C1D92A2
:103B0000A4F130034C78A4F13001092900F2768445
:103B100001321D9203EB830304EB43031478A4F1F9
:103B200030010929A3F13003F2D90799521A082A62
:103B300040F3648444F61F630C93BEF1000F3FF41E
:103B400053AF0C9B5B420C93002D7FF450AF0B9B4B
:103B5000034357D1BCF1000F7FF4FBAE493C252C49
:103B60003FF6F7AE01A353F824F000BFAB410008C5
:103B700053390008533900085339000853390008F5
:103B800087410008533900085339000853390008A9
:103B900053390008533900085339000853390008D5
:103BA00053390008533900085339000853390008C5
:103BB00053390008533900085339000853390008B5
:103BC00053390008533900085339000853390008A5
:103BD0005339000853390008533900085339000895
:103BE000533900085339000853390008AB41000825
:103BF0005339000853390008533900085339000875
:103C0000874100084FF0000A4FF0000B069A0AB1F6
:103C10001D9B13600A9B002B3FF4A4AE0BF10043E5
:103C20009B464BEC10AB23B0BDE8F08F1D9B089575
:103C300003EB0B021D9213F80B408346A4F13002F4
:103C4000092A40F2B183652C4FF0010C7FF4C8AE15
:103C500031E70B9B2C1B1C44002C40F3E58214F035
:103C60000F030AD0BA4901EBC301D1E90001DDE934
:103C700004230CF0F3F9CDE9040134F00F0440F013
:103C800059820023079300972B46089A51464846CD
:103C900006F0F0FE1390002800F004840B9A0C9BB1
:103CA0000021002AABEB0303A8BF0B460E9322EAC8
:103CB000E2730F4612938B46139C4846616806F0E8
:103CC00057FE8046002800F0588122699DED047B54
:103CD0000232920004F10C010C308DED087BFDF7EF
:103CE00007FF9DED080B20AA1FA9484607F00AFA16
:103CF0001E90002800F01A810121484606F060FF5E
:103D00000746002800F039811F9B002BC0F211816B
:103D10000E9A129D9E180799209C8E4A5B1A234486
:103D2000013B9342C4F1360480F2C580D21A1F2AA7
:103D3000A4EB020400F33781012393400C9300238A
:103D400010932544079B3444A6421D443346A8BF24
:103D50002346AB42A8BF2B46002B02DDE41AED1A26
:103D6000F61A0E9B002B00F3BF80002C00F3D580C9
:103D70000B9B002B00F3F880002D00F30A81002E2E
:103D800008DD39463246484607F022F80746002843
:103D900000F0F38042461E99484607F09BF88346A0
:103DA000002800F0EA800023C268C36039460F9201
:103DB00007F074F80028C0F25E84059E00F0F483DA
:103DC0003946584607F008FA55EC104B00224FF0E0
:103DD000804310EE100A29460CF0BCFB00286FD07F
:103DE0000F9B002B00F0F9809FED557B5A4C002370
:103DF000CDE90C348DED107B584D594B06EA050486
:103E00009C4200F00F81079B53B3B4F1D46F27D8C5
:103E1000DDE910564CA3D3E90023284631460CF0C7
:103E200099FBC0B1284631460CF0F0FB002800F0A9
:103E3000F2820CF099F8CDE910010F9B002B40F0B5
:103E4000E582DDE9101202F1004316911793DDE9D6
:103E50001623CDE90C230D9B03F1D6631B1B0D9399
:103E60009DED080BDDE90C5607F0C8F8284653EC29
:103E7000102B31460CF0F2F8DDE908230BF038FF87
:103E8000CDE904010D46079B23B9344B2B409C42DE
:103E900000F0FF801E99484606F090FD41464846D6
:103EA00006F08CFD3946484606F088FD59464846DE
:103EB00006F084FD00E70023109301230C9340E7F4
:103EC000284B2046294600220CF0C8F80F9BCDE96C
:103ED0001001002B7CD101F1004314901593DDE912
:103EE0001434CDE90C3487E739461A46484606F0C3
:103EF00023FF0746002840D001461E9A484606F098
:103F000075FE002839D00F901E99484606F056FDE0
:103F10000F9B1E93002C7FF72BAF22461E9948461D
:103F200006F056FF1E9000287FF422AF5E4604463E
:103F300025E0129A0E9ED51AEDE600BFAFF3008081
:103F4000000000000000F03F0000C0FFFFFFDF4165
:103F5000B044040802FCFFFF0000F03F0000F07FC7
:103F60000000E07F0000E03F4146129A484606F01C
:103F7000E3FE804600287FF4FFAE5E461E9C9E4B0B
:103F80000593002222230492DDE904ABC9F8003036
:103F9000A8E041462A46484606F01AFF8046002817
:103FA0007FF4EDAEE9E7954AD31A012202FA03F352
:103FB00010930C92C5E64FF0010E08F102031D9319
:103FC00098F8024086E50023CDF874800C930BE549
:103FD0009DED107B8DED147B81E7049B002B40F061
:103FE0009680C6F31303002B40F097800022844B89
:103FF000204629460CF0A4FA002840F0B5820022A1
:10400000804B204629460CF029F80A460146CDE9A6
:10401000101202F100431A901B93DDE91A34CDE926
:104020000C34E9E6A6F1547305939DED047BDDE9BC
:104030000C01B0EE470AF0EE670ACDE90C0106F07C
:10404000DDFFDDE90C0153EC102B0CF007F8DDE986
:1040500004230BF04DFE05EA010C0B46CDE90401EB
:10406000DDE90801684A05460E469445CDE9185633
:104070005CD9664B994203D1B0F1FF3F3FF47DAF6D
:1040800062494FF0FF33CDE9043103E74FF0000EF2
:1040900093E7DDE910010CF041FB0BF0B1FF0246A4
:1040A0000B46DDE910010BF021FE0F9B049AC5F3CE
:1040B000130513432B43CDE9080149D046A3D3E9A7
:1040C00000230CF03DFA48B9DDE9080144A3D3E927
:1040D00000230CF053FA00283FF4DCAE5E46DDE925
:1040E00004AB1E9C2146484606F068FC4146484603
:1040F00006F064FC3946484606F060FC13994846D1
:1041000006F05CFC3146484606F058FC7EE5049B10
:10411000012B02D1002E00F040839FED337B3C4CFD
:104120000023CDE90C348DED107B65E603F1547569
:104130000595A8E6B4F59A7F40F372812E4B05935E
:10414000002222230492DDE904ABC9F800305DE5CA
:1041500027A3D3E900230CF0F3F900283FF49AAE2B
:10416000BCE71633FFF675AD0C9A2A4BABEB020B8E
:1041700003EBCB03DDE90401D3E900230CF098F84D
:1041800082468B4642E51DA8234906F037FA0028EF
:104190003FF4DFAB1D9B1B78282B00F097821F4854
:1041A00007F086FA5BEC10AB30E51DA81C4906F061
:1041B00025FA00283FF4CDAB1D9B1A49013B1DA8F1
:1041C0001D9306F01BFA10B91D9B01331D930A4B7A
:1041D0000593DDE904AB19E59535A094FFFFDF3FBA
:1041E00035E5AF350000E03F000000000000F03F83
:1041F0009535A094FFFFCF3F0000F07FE2FBFFFF6B
:104200000000F03F0000E03FFFFF9F7CFFFFEF7FDB
:104210000000F0BFB044040800B404086C97040820
:10422000F4B30408F8B304083FF42BAD644214F06F
:104230000F020AD0BA4B03EBC203DDE90401D3E954
:1042400000230CF035F8CDE9040124113FF419AD39
:104250001F2C35DC14F01003DDE9040118BF6A23BC
:10426000B04E07930023E20704D5D6E900230BF0F4
:10427000F5FE0123641006F10806F4D10BB1CDE977
:104280000401079B9BB1DDE90412C2F30A53C3F199
:104290006B03002B11460ADD1F2B40F36B820022BB
:1042A000342B049240F371824FF05C73059300222B
:1042B0000023DDE904010CF039F900283FF4E3ACF8
:1042C0002223C9F800304FF0000A4FF0000B9DE4A4
:1042D00007995A46504607F06DFB0890002840F0B9
:1042E00072821D9A02EB0B031D9312F80B40302CC7
:1042F00008BFC3F1010240F0E080981801331D931C
:104300001C78302CF9D0A4F13103082B12D8DDF839
:1043100074A00027A4F1300E00F1010B54463E4674
:10432000012507EB87070EEB47070020631C1D9351
:10433000647883E4652C2FD0452C2DD04FF0010CF0
:1043400005E4794B0593240742BF059B43F00043E6
:104350000593DDE904AB59E40A9A02951EABCDE959
:1043600000321DA91FAB714A484605F097FE10F0B8
:10437000070504463FF446AC062D40F0A080069A9F
:104380000AF10103002A3FF4E9AA13604FF0000A82
:104390004FF0000BFFF7E6BA4FF0000B5E465F46AA
:1043A0004FF0010CFFF7D1BA013096461D9C002A50
:1043B000BCD00128834405F1010100F001822844AA
:1043C00000F1FF3C03E04F0063451D460BD0082D74
:1043D00005F1010307EB8701F5DD102BDCBF06EBD0
:1043E00086067600F0E70546082B9ADD102DDCBF27
:1043F00006EB860602EB4606002097E744F61F62AE
:104400009342A8BF13460C93FFF797BB9DED107B1B
:104410008DED167B1BE59FED407B8DED107B0CE554
:104420002411012C424B40F36581DDE904011E4655
:1044300007930023984614F0010F08F101084FEA92
:10444000640404D0D6E900230BF008FE0123012CFC
:1044500006F10806EFD10BB1CDE90401059B324C02
:10446000344EA3F154730593079B03EBC808D8E9B6
:104470000001DDE904230BF0F1FD01EA0403B3427E
:104480000A46CDE9040100F2D4802B498B4240F268
:10449000C9802A4B0593002307934FF0FF33049301
:1044A000FFF7F1BB204B0593139B04932223DDE917
:1044B00004ABC9F80030FFF7A9BB089823E71E9AA0
:1044C0003AB1352120A806F0D7FE48461E9906F0DD
:1044D00075FA013D042D3FF636AF01A353F825F0E0
:1044E000FF440008F5440008434300084145000824
:1044F000FF440008209B0493219B059323E7DDE9FB
:1045000020131F9A049102F2334223F4801343EAEA
:104510000253059317E700BF000000000000F03FC2
:10452000B0440408284204080000F07F0042040858
:10453000A04504080000A07C0000907CFFFFEF7FF6
:104540004FF0FF336FF00045CDE90435FBE6AA4993
:1045500001EBC301D1E90001DDE904230BF07EFD8D
:1045600082468B46FFF752BB9FED9F7B8DED1A7BFA
:104570009FED9F7B8DED107B4FE59F4CC5F10F05A7
:1045800004EBC501DDE90423D1E900010BF066FD70
:104590000B9B5D1B04EBC504D4E900230BF05EFD0F
:1045A00082468B46FFF732BB0F990B963346934AF0
:1045B0005E46C3F31303DDE908AB002943D0934201
:1045C00000F0B680109B002B7BD00B9A134210D0CA
:1045D0000F9B079ADDE90401002B00F08F80FFF7A5
:1045E0005FF902460B46504659460BF081FB824666
:1045F0008B46079B1E9C002B3FF474AD804A002322
:10460000CDE918325046DDE9182359460BF026FD56
:1046100003460B4308BF222382468B4608BFC9F8D6
:1046200000305FE502F15473059300230793FFF711
:104630002ABB0023049305942223DDE904ABC9F8C7
:104640000030FFF7E3BA049A1343BBD1079B002B5A
:1046500040F0A5806B4B0B9A1A401346A3F58013CC
:104660006FEA13536FEA035305934FF0FF3304933C
:10467000DDE904ABBDE7DDE904450F9B23435A4662
:104680005E46DDE908ABB4D1C5F313030B95002BEF
:10469000AFD125F000431B0D1B05B3F1D66FA8D990
:1046A000536913B91369012BA3DD31460122484632
:1046B00006F08EFB3946064606F0F0FB002898DD32
:1046C000C4E70C9B049A134293D081E71DA820AA4B
:1046D0004D4905F0ABFF05287FF461AD219B43F008
:1046E000FF4343F4E0030593209B0493DDE904AB0F
:1046F000FFF78CBA07934FF00008AFE6FFF7D0F84A
:1047000002460B46504659460BF0F0FA00220023B1
:1047100082468B460BF00AFF00283FF46AAF222343
:10472000C9F800301E9C4FF0000A4FF0000BD9E48E
:10473000079B049933B3334B0B9A1340B3F1D46FF7
:1047400020D81B0DC3F16B034FF0FF3202FA03F3C5
:1047500099427FF437AF2D4B0B9A9A422CD0294BBC
:104760000B9A1A4002F58013059300230493DDE9A8
:1047700004AB3EE74FF0FF3202FA03F3049A1A400B
:10478000049294E54FF0FF33E2E7203B4FF0FF3215
:1047900002FA03F30B40059389E55E46BFE7194B28
:1047A0000B9A1A40B2F1D66F13463FF757AFB2F1EA
:1047B0005C7FB4DD1E9C21E70131D0D1FFF7DEBB69
:1047C0002B460D4610E60023652C08931E461F4617
:1047D00018469B4603D01D469C46FFF701B99C46F0
:1047E000FFF7B3B8AFF30080000000000000E0BFA7
:1047F000000000000000E03FB0440408FFFF0F008D
:10480000000050390000F07F14420408FFFFEF7FE2
:10481000014BFFF761B800BF3804002010B4044C0E
:1048200013460A46014620685DF8044BFFF754B86A
:104830000800002010B4044C044B0A4601462068CE
:104840005DF8044BFFF748B808000020380400204A
:104850002DE9F041DFF8A88013462DED028B0A46C2
:104860000146D8F80000FFF737F855EC104B10EE72
:10487000102A2B4610EE100A29460BF089FE50BB79
:10488000204629460BF0E2FE08EE100ADFED197A09
:10489000B0EEC87AB4EE677AF1EE10FA15DD25F0C5
:1048A0000047204639464FF0FF32134B0BF070FEA5
:1048B00038B9204639464FF0FF320F4B0BF04AFE15
:1048C00018B1D8F8003022221A60B0EE480ABDECC8
:1048D000028BBDE8F081002D084804DA06F028FFBD
:1048E000B1EE408AF1E7BDEC028BBDE8F04106F085
:1048F0001FBF00BFFFFF7F7FFFFFEF7F6C970408A4
:10490000080000202DE9F041DFF8AC80264B0A4674
:104910002DED028B0146D8F80000FEF7DDFF55ECC7
:10492000104B10EE102A2B4610EE100A29460BF001
:104930002FFE50BB204629460BF088FE08EE100AD9
:10494000DFED1A7AB0EEC87AB4EE677AF1EE10FABB
:1049500015DD25F00047204639464FF0FF32144B55
:104960000BF016FE38B9204639464FF0FF32104B97
:104970000BF0F0FD18B1D8F8003022221A60B0EE2A
:10498000480ABDEC028BBDE8F081002D094804DA2D
:1049900006F0CEFEB1EE408AF1E7BDEC028BBDE839
:1049A000F04106F0C5BE00BF38040020FFFF7F7F46
:1049B000FFFFEF7F6C97040808000020012B2DE912
:1049C000F84F41D0242B98463ED80F46DFF81CC143
:1049D00000E02F463D4615F8014B1CF8046016F028
:1049E0000806F6D12D2C6CD02B2C0ABF95F800B000
:1049F000A346BD1C002B46D0102B57D0002E14BF51
:104A00004FF000496FF000490027B9FBF8FEBC46A3
:104A100008FB1E9A07E0E64513D32FD00CFB084C89
:104A2000012715F801BBABF13004092C05D9ABF116
:104A30004104192C0FD8ABF13704A34213DD002F2A
:104A4000E9DA4FF0FF37ECE7FBF742FC162303608F
:104A50000020BDE8F88FABF16104192C03D8ABF14D
:104A60005704A342EBDC002F25DB0EB1CCF1000C88
:104A70000AB177BB11606046BDE8F88FA245CDDA78
:104A80004FF0FF37CDE7BBF1300F03D04FF00A08EE
:104A90004346B3E72B7803F0DF03582B1BD14FF0CD
:104AA000100895F801B043460235A7E7BBF1300F77
:104AB00015D09846A2E7222303603AB1691ECC467E
:104AC000D8E795F800B00126BD1C93E7CC466046B8
:104AD000D2E7E146F2E74FF0080843468EE72C782C
:104AE00004F0DF04582CDAD0984687E7F940040830
:104AF00064E700BF10B4044C13460A460146206820
:104B00005DF8044B5AE700BF0800002010B4044CC5
:104B100013460A46014620685DF8044B4EE700BF85
:104B2000080000202DE9F0470F464C4D00E0674695
:104B3000BC461CF8014B2E5D16F00806F7D12D2C53
:104B400058D02B2C0ABF9CF80050254607F1020CC8
:104B5000F3B3102B54D04FF0FF38B8FBF3F803FB3E
:104B600008FA6FEA0A0A99460027BE4607E0C645DA
:104B700013D828D009FB0E4E01271CF8015BA5F1C4
:104B80003004092C05D9A5F14104192C08D8A5F148
:104B90003704A3420CDD002FE9DA4FF0FF37ECE7D2
:104BA000A5F16104192C03D8A5F15704A342F2DC46
:104BB000002F16DB0EB1CEF1000E0AB1BFB91160A5
:104BC0007046BDE8F0875445D4DD4FF0FF37D4E799
:104BD000302D29D00A2399464FF0050ADFF880804E
:104BE000C2E7222303604FF0FF3E002AE8D00CF119
:104BF000FF31E4E79CF80050012607F1020CA7E71B
:104C0000302D24D19CF8004004F0DF04582C18D13A
:104C10004FF010099CF801504B464FF00F0A0CF171
:104C2000020C6FF070489FE79CF8003003F0DF0340
:104C3000582BEDD0082399464FF0070A6FF06048D3
:104C400092E799466FF070484FF00F0A8CE74FF0EB
:104C50000F0A6FF07048994686E700BFF9400408D4
:104C6000999999195EE700BF10B4044C13460A469F
:104C7000014620685DF8044B54E700BF080000209F
:104C800010B4044C13460A46014620685DF8044BF4
:104C900048E700BF0800002030B40C788AB14B1CF4
:104CA00000F8014BD4B101328D18002202E000F867
:104CB000014B84B1194613F8014BAB4202F10102DA
:104CC000F5D144B10132521A501811F8013F002BAE
:104CD000FAD130BC7047104630BC70472046F8E728
:104CE0002DE9F04FBFB00C4607919246CDE908037D
:104CF00005F00CFE036811931846FEF761FDA389C9
:104D00000F901D0603D52369002B00F02D879FED22
:104D1000AC7B00238DED0C7B0E93CDE922331093F9
:104D2000129304932EAB219399469AF80030002BEE
:104D300000F0C180252B00F06586554603E0252B49
:104D400000F0AB8025466B786C1C002BF7D1B4EBE0
:104D50000A0600F0B080DDE9223201333244072B2D
:104D6000C9F800A0C9F80460CDE9223200F39A80A6
:104D700009F10809049A6B7832440492002B00F080
:104D80009A80002367788DF867301A461946059394
:104D90009B4604F1010A4FF0FF360AF1010AA7F120
:104DA0002003582B00F2D482DFE813F0E000D20297
:104DB000D202DB00D202D202D202D202D202D2024C
:104DC000D000CB00D202C600AD00D202A8009900EC
:104DD000990099009900990099009900990099000B
:104DE000D202D202D202D202D202D202D202D20223
:104DF000D202D20299025802D2025802D202D20240
:104E0000D202D2025302D202D2026800D202D202ED
:104E1000D202D202D2025900D202D2023B02D20204
:104E2000D202D202D202D202D202D202D202D202E2
:104E3000D202C0019601580258025802910196010F
:104E4000D202D2028401D2026E016A003F013A010D
:104E5000D2021001D2025B00D202D202E8004BF073
:104E6000100B1BF0200F00F05E82099C073424F029
:104E70000703F3E8024509930123E6E04BF0100B2A
:104E80001BF0200300F04582099C073424F007033F
:104E9000F3E8024509930023D7E0B4EB0A063FF498
:104EA00070AF58E721AADDE9071006F0B3FF48B953
:104EB0000DF1B8095EE7239B23B10898079921AA51
:104EC00006F0A8FF079B9B8913F0400F049B18BFB7
:104ED0004FF0FF33049304983FB0BDE8F08FA7F183
:104EE000300300201AF8017B00EB800003EB400048
:104EF000A7F13003092BF5D9059050E74BF0800B53
:104F00009AF8007049E7504610F8017B2A2F01F00B
:104F10001881A7F13003092B82464FF000063FF6B7
:104F20003EAF1AF8017B06EB860603EB4606A7F1B7
:104F30003003092BF5D932E79AF800704BF0040BD7
:104F40002BE79AF8007001222B2126E7099B9AF89B
:104F5000007053F8040B05900028C0F2F485099303
:104F60001BE74BF0010B9AF8007016E79AF80070F7
:104F700000297FF412AF012220210EE7002A41F020
:104F80008680114B10931BF0200F00F05381099C79
:104F9000073424F00703F3E8024509931BF0010FDF
:104FA00000F0E78154EA050300F0E38130238DF837
:104FB00068308DF869704BF0020B022345E000BFAA
:104FC000000000000000000014B40408099C54F81C
:104FD000043B0A9300258DF86750002B00F097865C
:104FE000711C00F0FC85324629460A98FCF700FD4A
:104FF000002801F01E800A9BC31A06932E4623EA5E
:10500000E3739DF867800994CDF808B003930B967D
:10501000B8F1000F00F09C80039B0133039397E0ED
:105020004BF0200B9AF80070B7E6099C54F8043B4B
:10503000099447F630021C46C04B1093ADF8682027
:105040004BF0020B0025022378274FF000088DF863
:105050006780721C00F091812BF08002029254EA6A
:10506000050240F08881002E40F08D83002B58D13E
:105070001BF00103069300F0E08430238DF8B73075
:105080000DF1B7030A939EE3002A40F0FC87099ACA
:105090001BF0200F52F8043B099240F0D1841BF022
:1050A000100F40F0A4851BF0400F00F0A085049A7B
:1050B0001A803AE69AF800706C2F03BF9AF80170D4
:1050C0004BF0200B0AF1010A4BF0100B65E64BF098
:1050D000400B9AF8007060E6002A40F0D0871BF081
:1050E000200F00F00581099C073424F007031946BE
:1050F000F1E80223099114461D46002A73F10003CA
:10510000C0F27384731C9DF8678000F066832BF0F7
:105110008003029354EA050340F05D83002E40F0C3
:10512000488700262EAB06960A934CE3099C002381
:1051300054F8042B8DF890208DF86730012224ABB1
:105140000392099406920A930026CDF808B00B96B4
:10515000029B13F0020302D0039A02320392029AD6
:10516000239C12F0840B05D1059A0399551A002D42
:1051700000F375829DF8672072B1229A01320134E2
:105180000DF167000121072ACDE92224C9E90001B8
:1051900000F3A08209F108096BB1229B01330234AC
:1051A0001AA90222072BCDE92234C9E9001200F323
:1051B0009F8209F10809BBF1800F00F06A81069B0C
:1051C000F61A002E00F3AC81029BDE0500F102818D
:1051D000229B0A9AC9F80020069AC9F804200133D4
:1051E0001444072B2394229300F32D8209F108091C
:1051F000029B5A0705D5059B039A9D1A002D00F3C3
:105200008382DDE9043203998A42ACBF9B185B18A4
:105210000493002C40F0BD81002322930DF1B809C6
:1052200083E5002A40F01087454B10931BF0200FB8
:105230007FF4ADAE099B1BF0100F53F8044B09939C
:1052400040F0DD831BF0400F00F0D983A4B20025AD
:10525000A4E64BF0080B9AF800709EE5002A40F097
:10526000F786099C073424F00703B3EC027B55EC66
:10527000174B099325F0004315938DED147ADDE962
:1052800014014FF0FF322F4B8DED0C7B0BF080F9AA
:10529000002840F0F1834FF0FF322A4BDDE9140182
:1052A0000BF058F9002840F0E78300220023204645
:1052B00029460BF045F9002840F013869DF86780D9
:1052C000214A224B032100262BF08000472FC8BF24
:1052D0001A46039102900A9206910B9698E6002ACC
:1052E00040F0D9864BF0100B1BF0200F7FF4FBAE83
:1052F000099B1BF0100F53F8044B099340F06D838A
:105300001BF0400F00F0698324B2E51722462B46BC
:10531000F3E6099A52F8044B09921BF0100200F0D0
:105320009E83002591E6099B1BF0100F53F8044B58
:10533000099300F08C830025012386E614B4040849
:1053400084A20408FFFFEF7F04B4040808B4040833
:10535000002A40F0EF85002F3FF4ADAD002301227D
:105360008DF8673024AB03928DF8907006920A9303
:10537000EAE6022369E6DDF808B0012B00F02D8291
:10538000022B00F008822EA900E01146E20842EA52
:105390004572E80804F0070305461446303354EA22
:1053A000050001F8013C01F1FF32EED11BF0010FC5
:1053B0000A9200F0C382302B00F0E5830A9ACDF800
:1053C00008B03023023902F8013C2EAB5B1A069379
:1053D0000A91F8E1652F40F3E58000220023DDE922
:1053E0000C010BF0A3F8002800F00782229BCA4AA8
:1053F000C9F80020013301340122072BCDE9223402
:10540000C9F8042000F35D8409F108091B9B0E9A7A
:10541000239C934203DB029BDD077FF5E9AE229BD1
:10542000119AC9F800200F9AC9F8042001331444D6
:10543000072BCDE9223400F35D8409F108090E9BA6
:105440005D1E002D7FF7D4AE102D229ADFF8D0B26A
:1054500040F32D841026DDE9078705E009F10809EE
:10546000103D102D40F3238401321034072ACDE97A
:105470002224C9E900B6F1DD21AA4146384606F0EA
:10548000C9FC00287FF41EADDDE922240DF1B80926
:10549000E6E7059B039A9D1A002D7FF790AE102D2D
:1054A000229ADFF87CB22BDD58464B462146B146A6
:1054B000BB464FF01008DDE90764074604E0103DE5
:1054C000102D03F1080315DD01321031072ACDE953
:1054D0002221C3E90078F2DD21AA3146204606F0F8
:1054E00099FC00287FF4EEAC103D102DDDE922215F
:1054F0002EABE9DC4E4699463B460C465F469B4642
:1055000001322C44072ACDE92224C9E900B500F371
:10551000E483069BF61A002E09F108097FF754AEC2
:10552000102E229ADFF8F8B127DD59462346BB46F4
:105530001025DDE907480F4604E0103E102E09F162
:10554000080916DD01321033072ACDE92223C9E903
:105550000075F2DD21AA2146404606F05BFC0028DA
:105560007FF4B0AC103E102EDDE922230DF1B80916
:10557000E8DC1C463B465F469B4601323444072A22
:10558000CDE92224C9E900B600F31A8209F108091D
:105590001AE621AADDE9071006F03CFC00283FF4DA
:1055A0003BAE8FE40E9A229B012A04F1010403F121
:1055B000010509F1080640F3C78101230A9AC9F8D9
:1055C0000020072DCDE92254C9F8043000F31D82D4
:1055D0000F9B119A01351C44072DCDE92254C6E9D1
:1055E000002300F31E8208366B1C1F46B8460E9F30
:1055F000069300220023DDE90C0106F10809013FB2
:105600000AF094FF002840F0B3810A9B77600133D1
:105610003C44B8F1070F33602394CDF8888000F341
:10562000F28206F1100305F102084E469946129ADD
:10563000726014441DABB8F1070F2394CDF8888035
:1056400033607FF7D5AD21AADDE9071006F0E2FB54
:1056500000287FF437AC239C0DF1B809C8E5102D64
:10566000229A2ADD49462046B1464FF010082E46C0
:105670001393DDE9075404E0103E102E01F10801F8
:1056800016DD0132254B1030072ACDE92220C1E971
:105690000038F1DD21AA2946204606F0BBFB002890
:1056A0007FF410AC103E102EDDE922202EA9E8DC9C
:1056B000139B354604464E468946013217492C4411
:1056C000072ACDE92224C9E9001500F3AC8209F1CB
:1056D00008094FE521AADDE90710139306F09AFBAC
:1056E00000287FF4EFAB239C139B0DF1B80953E521
:1056F00021AADDE9071006F08DFB00287FF4E2AB5C
:10570000239C0DF1B80956E5102D229B27DD1026AC
:10571000DDE907870BE000BF30B4040850420408FD
:1057200060420408103D102D09F1080917DD01330E
:10573000CF4A1034072BCDE92234C9E90026F1DD28
:1057400021AA4146384606F065FB00287FF4BAAB33
:10575000103D102DDDE922340DF1B809E7DC0133ED
:10576000C34A2C44072BCDE92234C9E900257FF731
:1057700048AD21AADDE9071006F04CFB00287FF4B4
:10578000A1AB239C3DE5012B00F01384022BDDF837
:1057900008B07FF4F8ADDDF840C02EAA230904F06C
:1057A0000F0043EA057329091C460D461CF800301A
:1057B00002F8013D54EA0503F0D12EAB9B1A0A9280
:1057C000CDF808B00693069BB342B8BF33460393A7
:1057D00000230B931CE4DDF808B0002D08BF0A2C51
:1057E00080F08A800123303406930DF1B7038DF8E1
:1057F000B740CDF808B00A93E5E71B9B002B40F3B8
:1058000021820E9B0B9A9342A8BF1346002B1D4684
:105810000EDD229B0A9AC9F8002001332C44072B85
:105820002394C9F80450229300F3E68309F1080990
:105830000B9B002DA8BF5B1B002B1D4600F3AA810C
:105840001B9A0E9B9A4280F28381229B1199C9F880
:1058500000100F99C9F8041001330C44072B23944E
:10586000229300F3588309F108090B990E9B91428A
:10587000A3EB020380F2BF811D46002D10DD229AAA
:10588000C9F80450DDE90A10013201442C44072A0A
:10589000C9F80010CDE9222400F3BC8309F10809FE
:1058A000002DACBF5D1B1D46002D7FF7A1AC102D58
:1058B000229ADFF8C0B140F3FA811026DDE90787AC
:1058C00005E009F10809103D102D40F3F081013287
:1058D0001034072ACDE92224C9E900B6F1DD21AA56
:1058E0004146384606F096FA00287FF4EBAADDE937
:1058F00022240DF1B809E6E72EABCDF808A0C24688
:10590000B0461E4601E004460D460A22002320460A
:1059100029460AF0EBFE303206F8012D00230A2258
:10592000204629460AF0E2FE002D08BF0A2CEAD2E2
:1059300032460A964646D046DDF808A0CDF808B0B3
:105940002EAB9B1A06933EE7029AD1073FF535AE80
:1059500001220A99C9F80010072DCDE92254C9F88F
:10596000042000F3508103F1020809F110095EE6FA
:10597000002F7FF75CAE102FDFF8F8B040F3DF8325
:1059800023464FF01008DDE90749069D05E008367B
:10599000103F102F40F3008201351033072DCDE961
:1059A0002253C6E900B8F2DD21AA2146484606F096
:1059B00031FA00287FF486AADDE922532EAEE7E70C
:1059C00021AADDE9071006F025FA00287FF47AAA5B
:1059D000239C0DF1B809FFF7F7BBE51722462B46CC
:1059E000002A73F10003BFF68DAB4FF02D0864421F
:1059F00065EB45058DF867800123FFF72ABB00257D
:105A0000FFF7CCBA5446FFF7BCB921AADDE907106D
:105A100006F000FA00287FF455AADDE922542EAEE4
:105A2000D6E521AADDE9071006F0F4F900287FF495
:105A300049AADDE922542EAED6E52EAB0A93C2E682
:105A4000049A1046D117C3E90001FFF76EB91BF0A5
:105A5000400F18BFA4B200250123FFF7F6BA1BF0D0
:105A600040031CBF1346A4B20025FFF7EEBA00BFE7
:105A70005042040860420408DDE90C0102460B466E
:105A80000AF086FD002840F03683741C27F02005BC
:105A900000F0BE82472D00F0B280DDE90C014BF42E
:105AA000807200290292C0F222829DED0C7B8DED66
:105AB000167B00231393662F00F08381462F00F09E
:105AC0008081452D00F078821FAA1CABCDE9003201
:105AD00002211BAB32469DED160B089803F0BEF871
:105AE000672F0A90344640F075821BF0010F40F09A
:105AF00074821B9A1F9B0B920A9A472DA3EB0203F9
