:020000040800F2
:100000000000022005DB0008A5A10008A7A1000848
:10001000A9A10008ABA10008ADA1000800000000E4
:10002000000000000000000000000000AFA1000878
:10003000B1A1000800000000B3A10008B5A10008AC
:1000400055DB000855DB000855DB000855DB0008D0
:1000500055DB000855DB000855DB000855DB0008C0
:1000600055DB000855DB000855DB000855DB0008B0
:1000700055DB000855DB000855DB000855DB0008A0
:1000800055DB000855DB000855DB000800000000C8
:1000900000000000000000000000000055DB000828
:1000A00055DB0008BDA1000855DB000855DB000842
:1000B00055DB000855DB000855DB000855DB000860
:1000C00055DB000855DB000855DB000855DB000850
:1000D00055DB000855DB000855DB00080000000078
:1000E00055DB000855DB000855DB00080000000068
:1000F00000000000000000000000000055DB0008C8
:100100000000000055DB000855DB000855DB000847
:1001100000000000000000000000000000000000DF
:1001200055DB000855DB000855DB000855DB0008EF
:1001300055DB000800000000000000000000000087
:1001400000000000000000000000000055DB000877
:1001500055DB000855DB000855DB000855DB0008BF
:1001600055DB000855DB000800000000000000001F
:10017000000000000000000000000000000000007F
:100180000000000055DB0008000000000000000037
:0801900055DB000855DB0008F7
:1001C0000348044B834202D0034B03B118477047E6
:1001D000D8090020D8090020000000000548064981
:1001E0000B1AD90F01EBA301491002D0034B03B145
:1001F00018477047D8090020D809002000000000E7
:1002000010B5064C237843B9FFF7DAFF044B13B15E
:100210000448AFF300800123237010BDD8090020EB
:100220000000000078DB000808B5044B1BB104494E
:100230000448AFF30080BDE80840CFE700000000AD
:10024000DC09002078DB0008002301461A46184626
:1002500001F066BC0A22002100F008BA0A2300223D
:1002600000F0F6B913460A460146022001F058BCD8
:1002700038B50A4C0A4D641BA4100AD004F180431F
:10028000013B05EB8305013C55F804399847002CE8
:10029000F9D1BDE838400DF075BC00BFF80A01087F
:1002A000F40A010870B50D4E0D4D761BB61006D040
:1002B0000024013455F8043B9847A642F9D1094E71
:1002C000094D761B0DF058FCB61006D00024013401
:1002D00055F8043B9847A642F9D170BDE80A0108D9
:1002E000E80A0108F40A0108E80A0108F0B48607E0
:1002F00046D0541E002A3CD0CAB2034602E014F194
:10030000FF3436D303F8012B9D07F8D1032C29D9EC
:10031000CDB245EA05250F2C45EA054533D9A4F1B0
:100320001006360903F1200707EB061703F1100248
:1003300042E9045542E902551032BA42F8D1721C22
:1003400014F00C0F03EB021204F00F0613D0331F4E
:1003500023F003030433134442F8045B9342FBD1BC
:1003600006F003042CB1C9B21C4403F8011B9C42E3
:10037000FBD1F0BC704734461346002CF3D1F8E7AC
:1003800014460346C2E71A462646E0E70CB470B5A9
:100390009CB020AC0B4E54F8042B029123460691DE
:1003A0006FF0004502A901940795CDE9045600F0CD
:1003B0006BF9029B00221A701CB0BDE8704002B0BD
:1003C000704700BF0802FFFF0EB430B59CB01FABF2
:1003D0000C4C0D4D53F8042B0193014602910691EC
:1003E000206802A96FF000440794CDE9044500F0AD
:1003F0004BF9029B00221A701CB0BDE8304003B0DC
:10040000704700BF080000200802FFFF0000000046
:1004100000000000000000000000000000000000DC
:1004200000000000000000000000000000000000CC
:1004300000000000000000000000000000000000BC
:1004400090F800F06DE9024520F007016FF0000C14
:1004500010F0070491F820F040F049804FF00004BC
:100460006FF00700D1E9002391F840F000F1080097
:1004700082FA4CF2A4FA8CF283FA4CF3A2FA8CF3CF
:100480004BBBD1E9022382FA4CF200F10800A4FA36
:100490008CF283FA4CF3A2FA8CF3E3B9D1E904238A
:1004A00082FA4CF200F10800A4FA8CF283FA4CF3C1
:1004B000A2FA8CF37BB9D1E9062301F1200182FA7B
:1004C0004CF200F10800A4FA8CF283FA4CF3A2FA81
:1004D0008CF3002BC6D0002A04BF04301A4612BA8F
:1004E000B2FA82F2FDE8024500EBD2007047D1E992
:1004F000002304F00305C4F100004FEAC50514F021
:10050000040F91F840F00CFA05F562EA05021CBFF1
:1005100063EA050362464FF00004A9E7012B2DE9C9
:10052000F84F41D0242B98463ED80F46DFF81CC127
:1005300000E02F463D4615F8014B1CF8046016F00C
:100540000806F6D12D2C6CD02B2C0ABF95F800B0E4
:10055000A346BD1C002B46D0102B57D0002E14BF35
:100560004FF000496FF000490027B9FBF8FEBC4688
:1005700008FB1E9A07E0E64513D32FD00CFB084C6E
:10058000012715F801BBABF13004092C05D9ABF1FB
:100590004104192C0FD8ABF13704A34213DD002F0F
:1005A000E9DA4FF0FF37ECE702F0CEFA16230360EA
:1005B0000020BDE8F88FABF16104192C03D8ABF132
:1005C0005704A342EBDC002F25DB0EB1CCF1000C6D
:1005D0000AB177BB11606046BDE8F88FA245CDDA5D
:1005E0004FF0FF37CDE7BBF1300F03D04FF00A08D3
:1005F0004346B3E72B7803F0DF03582B1BD14FF0B2
:10060000100895F801B043460235A7E7BBF1300F5B
:1006100015D09846A2E7222303603AB1691ECC4662
:10062000D8E795F800B00126BD1C93E7CC4660469C
:10063000D2E7E146F2E74FF0080843468EE72C7810
:1006400004F0DF04582CDAD0984687E7B5DB0008C1
:1006500064E700BF10B4044C13460A460146206804
:100660005DF8044B5AE700BF0800002010B4044CAA
:1006700013460A46014620685DF8044B4EE700BF6A
:1006800008000020000000002DE9F04FBFB00C462C
:1006900007919246CDE9080302F05EFA03681193D0
:1006A0001846FFF7CDFEA3890F901D0603D52369D9
:1006B000002B00F02D879FEDAC7B00238DED0C7B94
:1006C0000E93CDE922331093129304932EAB219312
:1006D00099469AF80030002B00F0C180252B00F0DD
:1006E0006586554603E0252B00F0AB8025466B78E8
:1006F0006C1C002BF7D1B4EB0A0600F0B080DDE9EA
:10070000223201333244072BC9F800A0C9F8046033
:10071000CDE9223200F39A8009F10809049A6B7836
:1007200032440492002B00F09A80002367788DF801
:1007300067301A46194605939B4604F1010A4FF0AB
:10074000FF360AF1010AA7F12003582B00F2D482E8
:10075000DFE813F0E000D202D202DB00D202D202C4
:10076000D202D202D202D202D000CB00D202C60004
:10077000AD00D202A8009900990099009900990053
:100780009900990099009900D202D202D202D202B5
:10079000D202D202D202D202D202D202990258026C
:1007A000D2025802D202D202D202D2025302D202A2
:1007B000D2026800D202D202D202D202D202590080
:1007C000D202D2023B02D202D202D202D202D20220
:1007D000D202D202D202D202D202C0019601580243
:1007E0005802580291019601D202D2028401D2022B
:1007F0006E016A003F013A01D2021001D2025B0091
:10080000D202D202E8004BF0100B1BF0200F00F0D8
:100810005E82099C073424F00703F3E8024509933C
:100820000123E6E04BF0100B1BF0200300F04582A3
:10083000099C073424F00703F3E8024509930023D9
:10084000D7E0B4EB0A063FF470AF58E721AADDE920
:10085000071003F011FA48B90DF1B8095EE7239BC0
:1008600023B10898079921AA03F006FA079B9B89F0
:1008700013F0400F049B18BF4FF0FF33049304980C
:100880003FB0BDE8F08FA7F1300300201AF8017BDC
:1008900000EB800003EB4000A7F13003092BF5D9F2
:1008A000059050E74BF0800B9AF8007049E75046EE
:1008B00010F8017B2A2F01F01881A7F13003092BD2
:1008C00082464FF000063FF63EAF1AF8017B06EB7A
:1008D000860603EB4606A7F13003092BF5D932E76C
:1008E0009AF800704BF0040B2BE79AF80070012285
:1008F0002B2126E7099B9AF8007053F8040B05900A
:100900000028C0F2F48509931BE74BF0010B9AF81D
:10091000007016E79AF8007000297FF412AF0122E8
:1009200020210EE7002A41F08680114B10931BF026
:10093000200F00F05381099C073424F00703F3E8EB
:10094000024509931BF0010F00F0E78154EA05030B
:1009500000F0E38130238DF868308DF869704BF03A
:10096000020B022345E000BF000000000000000071
:1009700010070108099C54F8043B0A9300258DF8E0
:100980006750002B00F09786711C00F0FC85324602
:1009900029460A9802F09CFB002801F01E800A9B61
:1009A000C31A06932E4623EAE3739DF867800994E1
:1009B000CDF808B003930B96B8F1000F00F09C80BF
:1009C000039B0133039397E04BF0200B9AF80070E0
:1009D000B7E6099C54F8043B099447F630021C46DC
:1009E000C04B1093ADF868204BF0020B002502239A
:1009F00078274FF000088DF86780721C00F0918115
:100A00002BF08002029254EA050240F08881002E09
:100A100040F08D83002B58D11BF00103069300F0AA
:100A2000E08430238DF8B7300DF1B7030A939EE3CD
:100A3000002A40F0FC87099A1BF0200F52F8043B73
:100A4000099240F0D1841BF0100F40F0A4851BF0F8
:100A5000400F00F0A085049A1A803AE69AF80070D8
:100A60006C2F03BF9AF801704BF0200B0AF1010ABA
:100A70004BF0100B65E64BF0400B9AF8007060E607
:100A8000002A40F0D0871BF0200F00F00581099C60
:100A9000073424F007031946F1E8022309911446AC
:100AA0001D46002A73F10003C0F27384731C9DF885
:100AB000678000F066832BF08003029354EA0503FD
:100AC00040F05D83002E40F0488700262EAB06964E
:100AD0000A934CE3099C002354F8042B8DF89020D2
:100AE0008DF86730012224AB0392099406920A9391
:100AF0000026CDF808B00B96029B13F0020302D03B
:100B0000039A02320392029A239C12F0840B05D1BD
:100B1000059A0399551A002D00F375829DF86720F8
:100B200072B1229A013201340DF167000121072AC6
:100B3000CDE92224C9E9000100F3A08209F10809E6
:100B40006BB1229B013302341AA90222072BCDE993
:100B50002234C9E9001200F39F8209F10809BBF1B0
:100B6000800F00F06A81069BF61A002E00F3AC811C
:100B7000029BDE0500F10281229B0A9AC9F800203F
:100B8000069AC9F8042001331444072B23942293B6
:100B900000F32D8209F10809029B5A0705D5059B30
:100BA000039A9D1A002D00F38382DDE90432039934
:100BB0008A42ACBF9B185B180493002C40F0BD81A7
:100BC000002322930DF1B80983E5002A40F0108735
:100BD000454B10931BF0200F7FF4ADAE099B1BF02B
:100BE000100F53F8044B099340F0DD831BF0400FC6
:100BF00000F0D983A4B20025A4E64BF0080B9AF8C4
:100C000000709EE5002A40F0F786099C073424F026
:100C10000703B3EC027B55EC174B099325F0004317
:100C200015938DED147ADDE914014FF0FF322F4B4F
:100C30008DED0C7B06F0E0FD002840F0F1834FF0D5
:100C4000FF322A4BDDE9140106F0B8FD002840F020
:100C5000E783002200232046294606F0A5FD002850
:100C600040F013869DF86780214A224B032100261D
:100C70002BF08000472FC8BF1A46039102900A92BA
:100C800006910B9698E6002A40F0D9864BF0100B9F
:100C90001BF0200F7FF4FBAE099B1BF0100F53F8E5
:100CA000044B099340F06D831BF0400F00F0698303
:100CB00024B2E51722462B46F3E6099A52F8044B74
:100CC00009921BF0100200F09E83002591E6099B1B
:100CD0001BF0100F53F8044B099300F08C83002590
:100CE000012386E610070108FC060108FFFFEF7FDD
:100CF000EC060108F0060108002A40F0EF85002FFD
:100D00003FF4ADAD002301228DF8673024AB039290
:100D10008DF8907006920A93EAE6022369E6DDF800
:100D200008B0012B00F02D82022B00F008822EA9C2
:100D300000E01146E20842EA4572E80804F00703C1
:100D400005461446303354EA050001F8013C01F130
:100D5000FF32EED11BF0010F0A9200F0C382302B5C
:100D600000F0E5830A9ACDF808B03023023902F882
:100D7000013C2EAB5B1A06930A91F8E1652F40F314
:100D8000E58000220023DDE90C0106F003FD0028C8
:100D900000F00782229BCA4AC9F8002001330134BF
:100DA0000122072BCDE92234C9F8042000F35D8429
:100DB00009F108091B9B0E9A239C934203DB029BBB
:100DC000DD077FF5E9AE229B119AC9F800200F9A42
:100DD000C9F8042001331444072BCDE9223400F371
:100DE0005D8409F108090E9B5D1E002D7FF7D4AECE
:100DF000102D229ADFF8D0B240F32D841026DDE9C1
:100E0000078705E009F10809103D102D40F3238400
:100E100001321034072ACDE92224C9E900B6F1DDF8
:100E200021AA4146384602F027FF00287FF41EAD74
:100E3000DDE922240DF1B809E6E7059B039A9D1A26
:100E4000002D7FF790AE102D229ADFF87CB22BDDBB
:100E500058464B462146B146BB464FF01008DDE9E7
:100E60000764074604E0103D102D03F1080315DD6B
:100E700001321031072ACDE92221C3E90078F2DDE1
:100E800021AA3146204602F0F7FE00287FF4EEAC9E
:100E9000103D102DDDE922212EABE9DC4E469946AE
:100EA0003B460C465F469B4601322C44072ACDE95F
:100EB0002224C9E900B500F3E483069BF61A002E4C
:100EC00009F108097FF754AE102E229ADFF8F8B125
:100ED00027DD59462346BB461025DDE907480F4666
:100EE00004E0103E102E09F1080916DD013210331E
:100EF000072ACDE92223C9E90075F2DD21AA21469E
:100F0000404602F0B9FE00287FF4B0AC103E102E2F
:100F1000DDE922230DF1B809E8DC1C463B465F46BB
:100F20009B4601323444072ACDE92224C9E900B6A0
:100F300000F31A8209F108091AE621AADDE907106F
:100F400002F09AFE00283FF43BAE8FE40E9A229BFB
:100F5000012A04F1010403F1010509F1080640F337
:100F6000C78101230A9AC9F80020072DCDE9225430
:100F7000C9F8043000F31D820F9B119A01351C44FF
:100F8000072DCDE92254C6E9002300F31E8208365E
:100F90006B1C1F46B8460E9F069300220023DDE916
:100FA0000C0106F10809013F06F0F4FB002840F0AF
:100FB000B3810A9B776001333C44B8F1070F33607B
:100FC0002394CDF8888000F3F28206F1100305F136
:100FD00002084E469946129A726014441DABB8F14D
:100FE000070F2394CDF8888033607FF7D5AD21AA11
:100FF000DDE9071002F040FE00287FF437AC239CA7
:101000000DF1B809C8E5102D229A2ADD494620467F
:10101000B1464FF010082E461393DDE9075404E063
:10102000103E102E01F1080116DD0132254B103063
:10103000072ACDE92220C1E90038F1DD21AA29469D
:10104000204602F019FE00287FF410AC103E102E4E
:10105000DDE922202EA9E8DC139B354604464E46E6
:101060008946013217492C44072ACDE92224C9E9CF
:10107000001500F3AC8209F108094FE521AADDE96A
:101080000710139302F0F8FD00287FF4EFAB239CC8
:10109000139B0DF1B80953E521AADDE9071002F011
:1010A000EBFD00287FF4E2AB239C0DF1B80956E577
:1010B000102D229B27DD1026DDE907870BE000BFFE
:1010C0002C07010894DB0008A4DB0008103D102D5C
:1010D00009F1080917DD0133CF4A1034072BCDE998
:1010E0002234C9E90026F1DD21AA4146384602F042
:1010F000C3FD00287FF4BAAB103D102DDDE922348A
:101100000DF1B809E7DC0133C34A2C44072BCDE9C4
:101110002234C9E900257FF748AD21AADDE907108F
:1011200002F0AAFD00287FF4A1AB239C3DE5012B32
:1011300000F01384022BDDF808B07FF4F8ADDDF881
:1011400040C02EAA230904F00F0043EA05732909C1
:101150001C460D461CF8003002F8013D54EA050318
:10116000F0D12EAB9B1A0A92CDF808B00693069BDD
:10117000B342B8BF3346039300230B931CE4DDF85E
:1011800008B0002D08BF0A2C80F08A80012330347B
:1011900006930DF1B7038DF8B740CDF808B00A9368
:1011A000E5E71B9B002B40F321820E9B0B9A934299
:1011B000A8BF1346002B1D460EDD229B0A9AC9F8D4
:1011C000002001332C44072B2394C9F804502293A8
:1011D00000F3E68309F108090B9B002DA8BF5B1BF8
:1011E000002B1D4600F3AA811B9A0E9B9A4280F2A7
:1011F0008381229B1199C9F800100F99C9F8041036
:1012000001330C44072B2394229300F3588309F1F4
:1012100008090B990E9B9142A3EB020380F2BF8158
:101220001D46002D10DD229AC9F80450DDE90A1090
:10123000013201442C44072AC9F80010CDE92224C8
:1012400000F3BC8309F10809002DACBF5D1B1D46EE
:10125000002D7FF7A1AC102D229ADFF8C0B140F32A
:10126000FA811026DDE9078705E009F10809103D3C
:10127000102D40F3F08101321034072ACDE92224E9
:10128000C9E900B6F1DD21AA4146384602F0F4FC76
:1012900000287FF4EBAADDE922240DF1B809E6E786
:1012A0002EABCDF808A0C246B0461E4601E004466B
:1012B0000D460A2200232046294606F0DBFA30328A
:1012C00006F8012D00230A222046294606F0D2FA0C
:1012D000002D08BF0A2CEAD232460A964646D0466E
:1012E000DDF808A0CDF808B02EAB9B1A06933EE7B8
:1012F000029AD1073FF535AE01220A99C9F80010CC
:10130000072DCDE92254C9F8042000F3508103F1E0
:10131000020809F110095EE6002F7FF75CAE102F7E
:10132000DFF8F8B040F3DF8323464FF01008DDE923
:101330000749069D05E00836103F102F40F3008254
:1013400001351033072DCDE92253C6E900B8F2DD8F
:1013500021AA2146484602F08FFC00287FF486AA85
:10136000DDE922532EAEE7E721AADDE9071002F0FE
:1013700083FC00287FF47AAA239C0DF1B809FFF7BB
:10138000F7BBE51722462B46002A73F10003BFF690
:101390008DAB4FF02D08644265EB45058DF86780F5
:1013A0000123FFF72ABB0025FFF7CCBA5446FFF70D
:1013B000BCB921AADDE9071002F05EFC00287FF429
:1013C00055AADDE922542EAED6E521AADDE90710A3
:1013D00002F052FC00287FF449AADDE922542EAE27
:1013E000D6E52EAB0A93C2E6049A1046D117C3E99C
:1013F0000001FFF76EB91BF0400F18BFA4B2002523
:101400000123FFF7F6BA1BF040031CBF1346A4B23A
:101410000025FFF7EEBA00BF94DB0008A4DB00084C
:10142000DDE90C0102460B4606F0E6F9002840F023
:101430003683741C27F0200500F0BE82472D00F093
:10144000B280DDE90C014BF4807200290292C0F2F7
:1014500022829DED0C7B8DED167B00231393662F6E
:1014600000F08381462F00F08081452D00F07882C6
:101470001FAA1CABCDE9003202211BAB32469DED09
:10148000160B089800F012FC672F0A90344640F0C3
:1014900075821BF0010F40F074821B9A1F9B0B9208
:1014A0000A9A472DA3EB02030E9340F0A1810B9BF8
:1014B000D81CC0F29C819E42C0F299810E9B1946B5
:1014C0000B9B994200F39C821BF0010F40F0FA82C3
:1014D00023EAE372039206936727139B002B00F025
:1014E0005A822D238DF867300026FFF769BA4042F3
:1014F00005900993FFF7F6B9029BD8073FF579AE3F
:101500000B990E9B8A42A3EB020348DD1D469BE626
:101510004021089801F028FB079B186018610028FB
:1015200000F0F182079A40235361FFF7C4B80A9A8A
:10153000CDF808B02EAB9B1A069318E6102B229A12
:10154000DFF8C8B340F396811026DDE9078705E090
:1015500009F10809103D102D40F38C81013210343F
:10156000072ACDE92224C9E900B6F1DD21AA4146C6
:10157000384602F081FB00287FF478A9DDE92224B7
:101580000DF1B809E6E70A98FEF75AFF2E46034622
:101590000690FFF708BA049A1A60FFF79AB80E9AF5
:1015A0000B99551A3DE6002E08BF012649E721AAEE
:1015B000DDE9071002F060FB00287FF457A9DDE9A0
:1015C00022340DF1C00903F101082EAE03E521AA72
:1015D000DDE90710139302F04FFB00287FF446A9C2
:1015E000239C139B0DF1B809FFF798BA229AC449BE
:1015F000C9F80010013201340121072ACDE9222463
:10160000C9F8041000F34E8109F10809002B5DD1DF
:10161000029B0E9A03F0010313433FF4BDAA229AE2
:10162000119BC9F800300F9BC9F8043001321C44EB
:10163000072A2394229200F3558109F108090E9B91
:101640000A9901321C44072ACDE92224C9E9001372
:101650007FF7A0AACBE401322C44072ACDE922244B
:10166000C9E900B57FF796AAC1E421AADDE9071010
:1016700002F002FB00287FF4F9A80DF1B809FFF78A
:1016800099BB21AADDE9071002F0F6FA00287FF4E1
:10169000EDA8239C0DF1B809FFF765BA21AADDE991
:1016A000071002F0E9FA00287FF4E0A8239C0DF16E
:1016B000B809FFF798BB062E334628BF06230693CA
:1016C0000393904B09940A93FFF712BA229A119947
:1016D000C9F800100F99C9F8041001320C44072A08
:1016E0002394229200F3FE8009F10809002BA6DA68
:1016F0005D421033DFF814B280F2A6815F461026F7
:10170000DDF81C80DDF820B005E009F10809103D86
:10171000102D40F3988101321034072ACDE922249C
:10172000C9E90076F1DD21AA4146584602F0A4FA43
:1017300000287FF49BA8DDE922240DF1B809E6E733
:101740001C4605F1010806F108023C44B8F1070FF8
:101750002394C6E900B7CDF888803FF728AF08F199
:10176000010802F10809164635E41FAA1CABCDE9B1
:10177000003203211BAB32469DED160B089800F09A
:1017800095FA0A900A9B1B78302B00EB060400F0B8
:1017900071811B9B1C4400220023DDE9160105F02A
:1017A000F9FF002840F098801F9BA34206D2302109
:1017B0005A1C1F9219701F9B9C42F9D80A9A9B1AB7
:1017C0000E93472D1B9B0B933FF471AE662F0FD1E9
:1017D0000B9A0BF00103002A43EA060340F3D4807E
:1017E000002B40F054810B9B0393069375E6023F58
:1017F0000B9B8DF874705A1E002A1B92B6BFC3F162
:1018000001022B232D23092A8DF8753040F38C809B
:101810000DF1830420463C4D01E008461A4685FB45
:101820000231D317C3EBA10303EB8301A2EB410108
:101830003031632A00F8011C00F1FF31EDDC303358
:10184000821EDBB2944201F8013C40F259810DF155
:10185000760201E011F8013B02F8013B8C42F9D11C
:101860000DF185030DF176021B1A13441DAA9B1A74
:10187000129361E001322C44072ACDE92224C9E900
:1018800000B545DC09F10809AEE44FF02D088DF8EC
:101890006780FFF7E9B901F1004317932D231690F4
:1018A0001393DCE521AADDE9071002F0E5F9002831
:1018B0007EF4DCAF1B9B239C0DF1B809A6E621AAA0
:1018C000DDE9071002F0D8F900287EF4CFAF1B9AAB
:1018D000239C0DF1B8099CE423466FE78DF867104F
:1018E000FFF70DBA21AADDE9071002F0C5F90028BB
:1018F0007EF4BCAF1B9BDDE922240DF1B809F5E6AF
:101900002C0701082407010867666666A4DB000847
:1019100021AADDE9071002F0AFF900287EF4A6AF96
:10192000239C0DF1B8095FE4302330328DF8763016
:1019300004238DF8772012930E9A129B012A1344E8
:10194000069340F3B980069B0F9A1344069323EA4B
:10195000E373039300230B93BFE5DDF808B015E4B0
:101960001FA91CAB741CCDE9003122461BAB022120
:101970009DED160B089800F099F90A90472F3FF457
:1019800088AD0A9B1C4406E7002B40F0A48001238D
:1019900003930693A1E59DF86780139EFFF70CB8AB
:1019A00021AADDE9071002F067F900287EF45EAF96
:1019B000239C0DF1B8090FE4062642E521AADDE9D2
:1019C000071002F059F900287EF450AF1B9B0E9AC5
:1019D000239CD31A0DF1B80936E4039606960994B0
:1019E0000646CDF808B00B909DF86780FEF7E4BF7F
:1019F0008DF86710FFF7ECB88DF86710FFF705B9A1
:101A0000DDE90E3213440B9A0693002A06DC0B9B89
:101A1000069AC3F101031A441346069223EAE373BC
:101A20000393672759E58DF86710FFF72CB88DF8F9
:101A30006710FFF700B88DF86710FEF776BF8DF8D6
:101A40006710FFF723B9BB4601322C44072ACDE9C2
:101A50002224C9E900B57FF7F0AD21AADDE907101E
:101A600002F00AF900287EF401AFDDE922240DF12D
:101A7000B809E4E500220023DDE9160105F08AFE3D
:101A800000287FF486AEC6F101031B9382E60F9B0C
:101A9000D3183344069323EAE37303931DE50D9BA8
:101AA0001D4A002BB6BF4FF02D089DF867808DF8BA
:101AB00067801A4BFFF7DAB81BF001020B927FF434
:101AC00042AFE8E70B9B0F9A1344069323EAE373B4
:101AD0000393672701E50F9B01333344069323EA01
:101AE000E3730393F9E44A462FE6099B9AF80170E1
:101AF00053F8046B0993824646EAE676FEF721BE68
:101B00000223129318E7089A0C2313604FF0FF3357
:101B10000493FEF7B4BE00BFF4060108F8060108FE
:101B2000F0B4184C2568D5F8484114B365681F2DEA
:101B300024DC38B9AB1C0135656044F82310002063
:101B4000F0BC704704EB85060127C6F8882007FA29
:101B500005F2D4F88871022847EA0207C4F88871B0
:101B6000C6F80831E6D1D4F88C311A43C4F88C2178
:101B7000E0E705F5A674C5F84841D7E74FF0FF3018
:101B8000DEE700BF90DB00082DE9F04F03690F6925
:101B9000BB4283B0C0F28680013F01F1140600F120
:101BA000140A56F827305AF82720BC000133009455
:101BB00006EB04099A425444B2FBF3F801943AD379
:101BC00000252A46B646D4465EF8044BDCF80030C1
:101BD0001FFA84FB08FB0B554FEA154B240C08FB3E
:101BE00004B4ADB2551BA2B2C2EB134215FA83F393
:101BF00002EB23429BB243EA0243F1454FEA14450C
:101C00004CF8043B4FEA2242DED2009B5AF80330E4
:101C10008BB9019A131F9A450CD252F8043C4BB968
:101C2000A2F1080302E01A68043B1AB99A4507F1C9
:101C3000FF37F8D30761044601F0CEFD00282DDB05
:101C400008F101085046002356F8041B05688AB2C3
:101C50009A1A0B0C12FA85F2C3EB154303EB2243DD
:101C600092B242EA0342B14540F8042B4FEA2343C3
:101C7000EAD25AF827200AEB87037AB91A1F92454D
:101C80000BD253F8042C42B9083B02E01A68043B1B
:101C90001AB99A4507F1FF37F8D32761404603B0D8
:101CA000BDE8F08F002003B0BDE8F08F2DE9F04FC4
:101CB00057EC106B97B0056C209C039182460A92FA
:101CC0000793CDE9006755B1426C6A6001239340E8
:101CD000AB60294601F010FB0023CAF840303E1EDD
:101CE000B4BF012300232360754BBCBF26F0004620
:101CF0000196B34300F0AE809DED007B00220023EF
:101D000051EC170B8DED047B05F044FD054678B1D1
:101D1000079A01231360219B002B00F01083694B6D
:101D2000219A1360013B0293029817B0BDE8F08F2F
:101D3000DDE9047814AA15A948EC107B504601F09F
:101D40007FFE340D834640F09B80DDE914542C4423
:101D500004F23243202B40F3BA83C3F140039E4088
:101D6000009B04F2124023FA00F0304305F030FAF1
:101D7000A1F1F87301210246013C0E91104619466B
:101D80000022514B05F0E6F847A3D3E9002305F004
:101D900099FA47A3D3E9002305F0DEF8064620466A
:101DA0000F4605F025FA44A3D3E9002305F08AFA8B
:101DB00002460B463046394605F0CEF806460F4639
:101DC00005F030FD0022814600233046394605F0FB
:101DD000EBFC002840F0A6822C1BB9F1160F04F191
:101DE000FF3800F29382394B03EBC903D3E9002398
:101DF000DDE9040105F0D8FC00286DD00023B8F11E
:101E0000000F09F1FF390D93C0F286820023099378
:101E1000B9F1000F66DA099BCDF81890A3EB09031E
:101E20000993C9F100030C93039B092B4FF00009A0
:101E300060D8052B40F34983043B03930024039BA4
:101E4000023B032B00F25186DFE813F068046504BF
:101E50003E045804079A42F20F731360009BC6F3C6
:101E60001306334318D1219B002B00F03586184B05
:101E700002930833219A0298136017B0BDE8F08FDF
:101E8000C8F3130141F07F530E953A46A4F2FF3494
:101E900043F44013149D71E7219B002B40F0038411
:101EA0000C4B029340E700BF61436F63A787D23FAB
:101EB000B3C8608B288AC63FFB799F501344D33F39
:101EC0000000F07F2D0701080000F83FC8DC000883
:101ED0003407010830070108B8F1000FC0F2BE84D2
:101EE0000D90099000230C93039BCDF81890092BBB
:101EF000C8449ED9002301240393CDE90A344FF04E
:101F0000FF3308930021089BCAF844100F935046F2
:101F100001F0CCF90290002800F0F085029BCAF88D
:101F20004030089B0E2B00F20A81002C00F0078144
:101F30000699002940F36884B14B01F00F0203EBCE
:101F4000C20393ED007B0C11E2068DED107B40F196
:101F50000884AC4BDDE90401D3E9082305F0DCFA81
:101F6000CDE9000104F00F0403267CB1DDE9100186
:101F7000A44DE30704D5D5E9002305F0A3F9013604
:101F8000641005F10805F4D1CDE91001DDE9000187
:101F9000DDE9102305F0C0FACDE900010D9B53B136
:101FA000DDE900450022984B2046294605F0FCFB60
:101FB000002840F02785304605F01AF9DDE90023B6
:101FC00005F080F9914B002204F0C6FF089B0446FF
:101FD000A1F15075002B00F0FB83069B1293089B28
:101FE0001093DDE900673946304605F01BFC009090
:101FF00005F0FEF802460B463046394604F0AAFFCB
:102000007F4B009A0F461099064603EBC1030B98CD
:1020100002993032CDE90045D5B24C1C53E9022378
:10202000002800F097840020794905F075FADDE971
:10203000002304F08FFF029B32461D703B46CDE922
:10204000000105F0CFFB002840F0D48432463B4627
:1020500000206D4904F07EFF02460B46DDE90001D9
:1020600005F0C0FB002840F03285109B012B62D0A8
:10207000029ACDF840901344CDF84C80DDE90089F8
:10208000CDF800B0D3469A460EE032463B460020DB
:102090005D4904F05FFF42464B4605F085FB002892
:1020A00040F0EE8454453FD0404649460022594B0B
:1020B00005F008F90022574B8046894630463946DC
:1020C00005F000F90F46064605F0ACFB054605F0A5
:1020D0008FF802460B463046394604F03BFF303558
:1020E000EDB204F8015B42464B4606460F4605F04A
:1020F0005BFB0028C9D0129BDA460133DDF800B043
:1021000006935946504601F0F7F800232370079BC9
:102110001A46069B1360219B002B3FF405AE0298E4
:102120001C6017B0BDE8F08FDA46DDF84090DDF8AE
:102130004C80DDF800B0DDE90434CDE90034159BB6
:10214000002BC0F2C680069A0E2A00F3C2802C4BE8
:1021500003EBC203D3E900890A9B002B17DA089F1F
:10216000002F14DC40F04D8300222B4B40464946A3
:1021700005F0A8F8DDE9002305F02AFB002800F0AF
:10218000C483089F3D460A9B029CDB435FE2DDE976
:10219000004542464B462046294605F0BDF905F06C
:1021A00041FB0646009005F023F842464B4605F0F9
:1021B00089F802460B4620462946029C35463035B2
:1021C00004F0C8FE069E04F8015B089D0136012D4F
:1021D00002460B46069652D000220E4B05F072F8CE
:1021E0000022002306460F4605F0D4FA002888D1C5
:1021F000CDF800B00125DDF820B0CDF80CA01AE034
:10220000C8DC0008B8DD00080000F03F00001C40FA
:102210000000E03F00002440000014400022B94BC1
:1022200005F050F80022002306460F4605F0B2FAEA
:10223000002840F0608342464B463046394605F060
:102240006BF905F0EFFA824604F0D2FF42464B46A6
:1022500005F038F802460B463046394604F07AFE5F
:1022600001350AF13006AB4502460B4604F8016B16
:10227000D4D1DDF800B0CDF800A0DDF80CA01046F8
:10228000194604F069FE42464B4606460F4605F0E5
:10229000A9FA60B942464B463046394605F07AFA0B
:1022A00000283FF42EAF009BD9077FF52AAF14F822
:1022B000015C029A631E04E09A4200F0C98313F89D
:1022C000015D392D03F10104F6D06A1CD2B21A70F7
:1022D00017E70B9A002A38D0039A012A40F3568256
:1022E000089B5E1E0C9BB342C0F235829E1B089B6E
:1022F000002BC0F20583099A14461A4498440992A7
:102300000121504601F0FAF8054621E00123B8F119
:10231000000F0D93BFF67AADC4F1010309934FF09E
:10232000000875E5484604F063FF32463B4605F079
:1023300031FA00287FF450AD09F1FF394CE5724BBA
:102340000293029817B0BDE8F08F0C9E099C0B9D7C
:10235000002C0CDDB8F1000F09DD4445099A234635
:10236000A8BF4346D21A0992E41AA8EB03080C9BB3
:10237000D3B10B9B002B00F08F81002E10DD29467E
:102380003246504601F076F95A4601460546504617
:1023900001F0CAF859460746504600F0ADFFBB466B
:1023A0000C9B9A1B40F079810121504601F0A6F860
:1023B000B9F1000F074600F39080039B012B40F317
:1023C000778100260120B9F1000F40F09180404450
:1023D00010F01F0077D0C0F12003042B40F380835E
:1023E000C0F11C00099B0344099304448044099BE9
:1023F000002B05DD59461A46504601F087F9834601
:10240000B8F1000F05DD39464246504601F07EF92D
:1024100007460D9B002B40F02481089B002B40F3C6
:10242000FB800B9B002B7FD1069B01330693029C04
:10243000DDF82080012607E0594600230A22504695
:1024400000F064FF0136834639465846FFF79CFB8F
:10245000B04500F1300004F8010BEDDC03464FF00D
:102460000009594601225046009301F04FF93946C0
:10247000834601F0B1F9002814F8012C40F378816B
:10248000631E029904E0994200F08D8113F8012D3A
:10249000392A03F10104F6D001321A703946504648
:1024A00000F02AFF002D3FF42CAEB9F1000F05D04B
:1024B000A94503D04946504600F01EFF2946504624
:1024C00000F01AFF1DE61C208CE70124B7E4C3F1DD
:1024D0002006009B03FA06F048E401464A465046AF
:1024E00001F0C8F8039B012B074640F3B981002691
:1024F0003B6907EB8303186900F0B0FFC0F12000CF
:1025000065E700BF000024402C070108294600238E
:102510000A22504600F0FAFE0F9B002B054640F3BE
:10252000CE82CDF818800893002C00F30D81002E88
:1025300040F0CA81A846009B0399029E03F0010265
:102540000B920A430A92089A731E1A44099239465A
:102550005846FFF719FB29460090584601F03CF910
:10256000424681463946504601F052F9009BC26806
:1025700004463033002A41D101465846089301F001
:102580002BF921460490504600F0B6FE049A089BB1
:102590001AB90A99002900F07A82B9F1000F06F100
:1025A0000104C0F27481039941EA09090B9951EAC7
:1025B000090100F06C81002A00F3A981099A3370A7
:1025C000B24200F0B081594600230A22504600F082
:1025D0009DFE4545834629464FF000034FF00A0211
:1025E000504613D000F092FE4146054600230A22D1
:1025F000504600F08BFE26468046A8E7014650462E
:10260000049300F079FE0122049BC6E700F07EFEF1
:102610002646054680469AE7039B022B40F38180BD
:10262000089B002B7FF4AFAD39460522504600F0E1
:102630006DFE01460746584601F0CEF800287FF7A8
:10264000A2AD029C069B312204F8012B0133013319
:1026500039465046069300F04FFE002D7FF42EAF12
:102660004FE53946584601F0B7F80028BFF6D5AE19
:10267000594600230A22504600F048FE069B03F10B
:10268000FF380B9B8346002B7FF440AF0F9B002B42
:1026900040F30A820893CAE60C9A5946504600F065
:1026A000E9FF834680E6A54B02930333FFF7E2BBC5
:1026B000DDE9001200297FF484AEC2F31303002B7E
:1026C00000F0D980009E7DE601230B930A9D002D2A
:1026D00049DD0F9508950021172DCAF844107FF7A2
:1026E00016AC012204235B0003F11400A84211463A
:1026F00002F10102F7D9CAF8441008E401230B9350
:102700000A9B069A13440F930133012B1D4608932D
:10271000B8BF0125DFE700230B93F1E700230B93FC
:10272000D4E70B9B002B7FF4FFAE39465846FFF7EA
:102730002BFA069A029C00F130030132069204F84B
:10274000013B4FF000098CE629462246504600F036
:10275000DDFF0546EBE60C9B0C96F31A9944002628
:10276000C5E5022601E401230A930893FFF7CABBDB
:1027700003D1009BDB073FF583AE631E01E013F836
:10278000012D302A03F10104F9D087E60E9A002AC0
:1027900000F0CF8003F23343099A0C9E14461A448A
:1027A00098440992ACE5069A01320692029A3123C6
:1027B000137073E6304604F01BFDDDE9002304F0DE
:1027C00081FD00225E4B04F0C7FB0446A1F1507569
:1027D00000225C4BDDE9000104F0BCFB22462B46E5
:1027E00006460F4604F0FEFF002840F08D8022468A
:1027F00005F100433046394604F0D6FF00283FF487
:102800009AAC00273D46BEE400F0F980069B5C428E
:102810004D4B04F00F0203EBC203D3E90023DDE9C3
:10282000040104F04FFD2411CDE9000100F0E78020
:10283000464D00230226E70705D5D5E9002304F01D
:1028400041FD01360123641005F10805F3D1002B89
:102850003FF4A4ABCDE90001FFF7A0BB0D905BE511
:10286000009B002B7FF443AEDDE90012C2F313039B
:10287000002B7FF43CAE364E1640002E3FF4A2AD46
:10288000099B0133099308F1010801269AE506998D
:10289000002A01F10101069112DD5946012250463C
:1028A000039300F033FF3946834600F095FF00287C
:1028B000039B40F3DF80392B00F0D180009B313344
:1028C000A94633704546E9E56968504600F0EEFCDC
:1028D0000446002800F019812B6902339A0005F1A3
:1028E0000C010C3000F044FC21460122504600F05F
:1028F0000DFF80461FE6DDF800B0DDF80CA000E417
:10290000DDE908239C1AFBE400273D4699E6069A78
:10291000392B02F10102069200F0A1800133A94691
:1029200033704546BAE5069A0132A94606924546F5
:1029300097E5149BC3F136032EE700BF300701086B
:1029400000001C4000001440C8DC0008B8DD00088E
:102950000000F07FDDE9000104F0B4FC029B1D7073
:10296000109B012BCDE9000123D0109B029ACDF8DA
:1029700040901344C146984600226D4B304639467C
:1029800004F0A0FC0F46064604F04CFF054604F098
:102990002FFC303502460B463046394604F0DAFA51
:1029A00004F8015B444506460F46E5D1C846DDF80C
:1029B0004090604B0022DDE9000104F0CDFA324680
:1029C0003B4604F0F1FE00284ED1DDE90023002053
:1029D000584904F0BFFA32463B4604F003FF002892
:1029E0003FF4A9AB00E0144614F8013C302B04F18D
:1029F000FF32F8D0129B01330693FFF782BB022609
:102A0000FFF7CCBA089B002B3FF4D4AE0F9F002FEA
:102A10007FF791AB0022464B2046294604F052FC3A
:102A200004460D46701CCDE9004504F0E1FB22464A
:102A30002B4604F047FC404B002204F08DFA069B25
:102A40001097013B0446A1F150751293FFF7C9BAE4
:102A5000069A0132069231221A70FFF752BB3922D0
:102A6000A946327045460BE5129B0133069314F8D4
:102A7000015C1EE47FF424AFDA077FF521AF1AE78B
:102A8000129B0133DA460693DDF800B011E4069A92
:102A9000392B02F10102069206F10104DFD0B9F1EF
:102AA000000F3FF70BAF0BE7039B022B02DCCDF8C7
:102AB00018803AE60F9B0893CDF81880B0E5039B89
:102AC000022BF7DC0F9BCDF8188008932CE5129BA6
:102AD00001330693FFF7EDBB184B0293FFF724B9C0
:102AE0003FF485ACC0F13C007CE40024CAF84440CB
:102AF0002146504600F0DAFB029068B9104B1148AD
:102B000000224FF4D57101F069FE02460C4B0D48CE
:102B100040F2EA2101F062FE4FF0FF330893029A7F
:102B20000F930123CAF840200A940B93FFF707BBC9
:102B3000000024400000E03F00001C403407010872
:102B40004007010854070108014B1868704700BF8F
:102B500008000020F0307047004870473809002016
:102B600000487047380900202DE9F04F01F10B05AE
:102B7000162D83B0064623D8102900F2B98000F044
:102B800091FB102518230220CD4F3B44A3F10802EE
:102B90005C68944200F0B980636823F00303234427
:102BA000D4E902515A68E96042F0010230468D6072
:102BB0005A6000F079FB0834204603B0BDE8F08F7E
:102BC00035F0070500F19480A94200F2918000F0F1
:102BD00069FBB5F5FC7FC0F09D816B0A00F08F802A
:102BE000042B00F27381AB0903F1390003F1380CB7
:102BF000C300B34F3B44A3F108015C68A14206D176
:102C00000CE0002A80F22B81E468A14206D06368C0
:102C100023F003035A1B0F2AF3DD60463C69DFF8FB
:102C2000A4C264457CD0636823F003035A1B0F2AB7
:102C300000F37E81002AC7E904CC80F26F81B3F5EE
:102C4000007F80F01A81DB08591C7A6857F83180C0
:102C5000C4F808804FF0010E9B100EFA03F307EB47
:102C6000C10E1343AEF10802E2607B6047F83140C9
:102C7000C8F80C408210012494409C4256D81C4253
:102C800006D120F0030064001C4200F10400FAD0D9
:102C900007EBC009CE468046DEF80C309E4507D1D2
:102CA00020E1002A80F22781DB689E4500F01A812E
:102CB000596821F003014A1B0F2AF2DDD3E9028E85
:102CC0005C1945F001055D6042F00105C8F80CE0B3
:102CD0003046CEF80880C7E90444C4E902CC6560F8
:102CE0005A50009300F0E0FA009B03F1080402E060
:102CF0000C2333600024204603B0BDE8F08F4FF46E
:102D0000007340204FF03F0C73E7DC68A34208BF1C
:102D100002307FF441AF3C69DFF8A8C1644582D13D
:102D20007B688210012494409C42A8D9BC686368E7
:102D300023F00308A84503D3A8EB05030F2B7EDC83
:102D4000DFF88491D7F80824D9F80030013204EB79
:102D5000080A2B4400F0378103F580530F3323F426
:102D60007F6B2BF00F0B5946304600F073FF411C70
:102D7000024600F0F780824500F2F280D9F8041094
:102D80005944C9F804100B4600F05381D7F80814D1
:102D900001311BBFA2EB0A0A5344C7F80824C9F843
:102DA000043012F0070300F01A81C3F108010A444D
:102DB000C3F5805193440831A1EB0B01C1F30B0A19
:102DC000514630460193009200F044FF421CDDE979
:102DD000002300F05381831A03EB0A0BD9F8041087
:102DE000BA604BF001035144BC425360C9F804106F
:102DF00000F02B81B8F10F0F40F229816368A8F130
:102E00000C0020F0070003F0010304EB000C034367
:102E10004FF0050E0F286360CCE901EE00F235811A
:102E200053681446D9F82C208A42D9F8302038BF8C
:102E3000C9F82C108A4238BFC9F8301094E06219E2
:102E400043F0010345F0010565603046BA60536008
:102E500000F02AFA0834204603B0BDE8F08F23447E
:102E6000E1685A68A56842F00102E96030468D6069
:102E70005A6000F019FA08343DE75A0A042A69D961
:102E8000142A00F2BE8002F15C01C9005B3207EB3C
:102E9000010E7958AEF1080E8E4500F097804A6811
:102EA00022F003029A4202D989688E45F7D1D1F8FF
:102EB0000CE07B68C4E9021ECEF80840CC60D9E67D
:102EC0003804002040040020F4090020142B59D9B4
:102ED000542B00F29E802B0B03F16F0003F16E0C5C
:102EE000C30086E608F1010818F0030F0EF1080E82
:102EF0007FF4D2AE51E019441C464A68DB6854F8AE
:102F0000085F42F001024A603046EB609D6000F0CD
:102F1000CBF9F0E6E80805F1080335E6234430462E
:102F20005A6842F001025A60083400F0BDF9E2E646
:102F3000611945F0010E42F00105C4F804E0304685
:102F4000C7E90411C1E902CC4D60E25000F0ACF9D0
:102F50000834D0E69A0902F13901C900383296E7FF
:102F6000BC4260D0BC68636823F0030BAB45ABEB9D
:102F7000050302D30F2B3FF762AF304600F094F900
:102F80000024B8E603F15C0003F15B0CC30030E6FB
:102F900059F808394B4540F0968010F0030F00F1C6
:102FA000FF30F5D17B6823EA04037B6064009C4218
:102FB0003FF6BCAE1CB9B9E6640008F104081C4237
:102FC000FAD0404664E603F1100BCCE67B68921021
:102FD0004FF0010808FA02F213437B606AE702EB44
:102FE0000B014942C1F30B0A51463046019300924E
:102FF00000F030FE431CDDE900237FF4ECAE9A467E
:10300000ECE6542A26D81A0B02F16F01C9006E3281
:103010003DE7B3F5AA7F26D8EB0B03F1780003F167
:10302000770CC300E5E5D9F804305B44C9F80430F7
:10303000ACE6CAF30B0000287FF4A8AE08EB0B0344
:10304000BC6843F001036360ECE61446EAE6012342
:10305000536092E7B2F5AA7F21D8DA0B02F178012A
:10306000C900773213E740F25452934221D8AB0C97
:1030700003F17D0003F17C0CC300BAE5083B9B44DF
:10308000ABEB020B4FF0000AA8E604F10801304652
:1030900001F06AFCBC68D9F804106368C2E640F22B
:1030A00054518A420BD89A0C02F17D01C9007C323E
:1030B000EDE64FF47E737F204FF07E0C99E54FF4E0
:1030C0007E717E22E3E67B6870E700BF00000000AF
:1030D00001F0FF01102A2BDB10F0070F08D010F8C9
:1030E000013B013A8B422DD010F0070F42B3F6D1CD
:1030F000F0B441EA012141EA014122F007047FF0E6
:1031000000070023F0E80256083C85EA010586EA3C
:10311000010685FA47F5A3FA87F586FA47F6A5FA78
:1031200087F68EB9EED1F0BC01F0FF0102F0070284
:1031300032B110F8013B013A83EA010313B1F8D12F
:103140000020704701387047002D06BF3546033810
:10315000073815F0010F07D1013015F4807F02BF49
:10316000013015F4C03F0130F0BC0138704700BF9A
:10317000844641EA000313F003036DD1403A41D382
:1031800051F8043B40F8043B51F8043B40F8043B41
:1031900051F8043B40F8043B51F8043B40F8043B31
:1031A00051F8043B40F8043B51F8043B40F8043B21
:1031B00051F8043B40F8043B51F8043B40F8043B11
:1031C00051F8043B40F8043B51F8043B40F8043B01
:1031D00051F8043B40F8043B51F8043B40F8043BF1
:1031E00051F8043B40F8043B51F8043B40F8043BE1
:1031F00051F8043B40F8043B51F8043B40F8043BD1
:10320000403ABDD2303211D351F8043B40F8043B70
:1032100051F8043B40F8043B51F8043B40F8043BB0
:1032200051F8043B40F8043B103AEDD20C3205D380
:1032300051F8043B40F8043B043AF9D2043208D078
:10324000D2071CBF11F8013B00F8013B01D30B88EA
:1032500003806046704700BF082A13D38B078DD0C8
:1032600010F003038AD0C3F10403D21ADB071CBF9A
:1032700011F8013B00F8013B80D331F8023B20F804
:10328000023B7BE7043AD9D3013A11F8013B00F83D
:10329000013BF9D20B7803704B7843708B788370C5
:1032A00060467047704700BF704700BFC36C70B581
:1032B00005460C464BB153F8240080B1026843F830
:1032C00024200023C0E9033370BD2122042101F032
:1032D000A9FA0346E8640028EDD1002070BD012161
:1032E00001FA04F6721D2846920001F09BFA0028AC
:1032F000F3D0C0E90146E4E731B1C36C4A6853F842
:103300002200086043F82210704700BFF0B50C6936
:1033100083B00D46064601F1140C0027DCF80000CE
:1033200081B202FB0133190C000C02FB00109BB2AE
:10333000013703EB0043BC424CF8043B4FEA104317
:10334000ECDC3BB1AA68A24207DD05EB8402013444
:1033500053612C61284603B0F0BD69680193304683
:103360000131FFF7A3FF019B0746B8B12A6901931A
:10337000023205F10C0192000C30FFF7F9FEF26CFD
:103380006968019B52F82100286042F821503D46AF
:1033900005EB8402013453612C61DBE70246024BEA
:1033A0000248B52101F01AFA400701088807010810
:1033B0002DE9F843264C089E1D46083384FB034C38
:1033C000092D4FEAE373904607460C46C3EB6C02A7
:1033D00036DD012300215B009A4201F10101FADC94
:1033E0003846FFF763FF68B30123B8F1090FC0E95E
:1033F000043613DC0A344FF0090845450CDDA5EB13
:103400000805254414F8013B0146303B0A223846A2
:10341000FFF77CFFA542F5D1BDE8F88304F1090967
:103420004E46444416F8013B0146303B0A223846DA
:10343000FFF76CFFB442F5D1A8F108044C44DCE777
:103440000021CDE70246034B0348CE2101F0C6F927
:10345000398EE3384007010888070108020C12047E
:103460000346CAB90304102013F07F4F04BF1B02A8
:10347000083013F0704F04BF1B01043013F0404FAD
:1034800004BF9B000230002B05DB13F0804F00F1DE
:10349000010008BF202070470020E5E7036813F013
:1034A0000702014607D0DA0720D4980722D55B0827
:1034B0000B600120704798B2B0B91B0C102013F0BC
:1034C000FF0F04BF1B0A08301A0704BF1B09043092
:1034D0009A0704BF9B080230DA0703D45B0800F1A7
:1034E000010005D00B6070471046E8E700207047E8
:1034F000202070479B080B600220704710B50C46D7
:103500000121FFF7D3FE024618B10123C0E90434BC
:1035100010BD034B03484FF4A07101F05FF900BFE9
:1035200040070108880701082DE9F04F0E69176967
:10353000BE4283B00C46154605DB3A462B4637465D
:103540000D4616461C46D5E9011307EB0608434510
:10355000B8BF0131FFF7AAFE009000287FD0009B82
:1035600003F1140A0AEB8809CA4505D25346002123
:1035700043F8041B9945FBD804F1140E0EEB860B9F
:1035800005F11403DE4503EB870753D2CDF8048021
:10359000984605E0090C28D1F3450AF1040A47D9F9
:1035A0005EF8041B8EB2002EF4D04546544600232C
:1035B00055F8041B20688AB21FFA80FC06FB02C281
:1035C000090C000C134406FB010202EB13429BB2F0
:1035D00043EA0243AF4244F8043B4FEA1243E7D8C0
:1035E00023605EF8041C090CD6D0DAF8003040469F
:1035F0001A4654464FF0000C0588120C01FB0522B8
:1036000094449BB243EA0C4344F8043B50F8043B17
:1036100022681B0C95B201FB035303EB1C4387424A
:103620004FEA134CE8D8F34523600AF1040AB7D8EF
:10363000DDF80480B8F1000F0BDD59F8043CA9F166
:1036400004091BB105E059F8043D13B9B8F10108AC
:10365000F9D10098C0F8108003B0BDE8F08F0246A1
:10366000024B034840F25D1101F0B8F84007010831
:103670008807010812F003032DE9F04114460746BC
:103680002ED10D46A4101CD0BE6C96B3E3074FF0AC
:10369000000806D4641014D03068A8B10646E307C9
:1036A000F8D5324629463846FFF73EFFB5B16A687D
:1036B000FB6C641053F82210296043F82250054631
:1036C000EAD12846BDE8F081324631463846FFF758
:1036D0002BFF3060C0F800800646E0E70546D9E7DA
:1036E000013B094A52F823200023FFF70FFE05464D
:1036F000C8E740F271213846FFF700FF0023B864A5
:1037000006460360C2E700BFB8DC00082DE9F843B5
:103710000E690D464FEA6219D1E901134E44741C3B
:103720009C429046074604DD5B009C4201F101018A
:10373000FADC3846FFF7BAFD002842D0B9F1000F95
:1037400000F1140C0EDD09F105094FEA890900EBBF
:1037500009016346002243F8042B8B42FBD1A9F1F7
:103760001409CC44296905F1140318F01F0803EB70
:10377000810E1DD0C8F120090022196801FA08F154
:1037800011434CF8041B53F8042B734522FA09F239
:10379000F3D3CCF80020002A18BF2646FB6C6A68D9
:1037A000066153F82210296043F82250BDE8F883DF
:1037B000ACF1040C53F8042B4CF8042F9E45F9D8B7
:1037C000ECE70246024B034840F2D91101F006F83B
:1037D000400701088807010830B40B6905460069F5
:1037E000C01A10D19B001435143119442B4401E048
:1037F0009D4208D253F8044D51F8042D9442F7D05D
:1038000003D24FF0FF3030BC7047012030BC70470E
:103810002DE9F84316460B691269A3EB0208B8F1CB
:10382000000F0D4667D1920001F1140706F1140153
:10383000BB18114401E09F4261D253F8042D51F8A6
:10384000044DA242F7D050D36968FFF72FFD00283E
:103850005FD02F693369C0F80C8006F1140214356B
:1038600005EB870C02EB830E00F11406002100E04B
:10387000264652F8044B55F8048B1FFA84F911FAC6
:1038800088F3210CA3EB0903C1EB184101EB2341A1
:1038900034469BB243EA014396454FEA214144F83E
:1038A000043BA846E4D8AC4516D9264658F8042B64
:1038B00011FA82F3191401EB12419BB243EA01435E
:1038C000C44546F8043B4FEA2141EFD80CF1FF36DE
:1038D000761B26F00306264423B956F8043D013F23
:1038E000002BFAD00761BDE8F8832B464FF00108A2
:1038F00035461E46A8E7F8DB4FF00008A4E7002194
:10390000FFF7D4FC60B101220023C0E90423BDE825
:10391000F8830246064B07484FF4107100F05EFF33
:103920000246034B034840F2322100F057FF00BF2C
:103930004007010888070108124B10EE902A1A4030
:10394000A2F15073002B04DD0020194641EC100B4E
:1039500070475B421B15132B07DC4FF4002200203D
:1039600042FA03F141EC100B7047143B1E2BDABFF7
:103970004FF0004222FA03F301230021184641ECE4
:10398000100B70470000F07FF8B5046900F11406D1
:1039900006EB840454F8045C2846FFF75FFDC0F191
:1039A00020030A280B60A4F1040131DD8E42A0F14E
:1039B0000B001AD254F8081C10B3C0F12007854040
:1039C00021FA07F31D4345F07F53A4F10805AE42E9
:1039D00001FA00F043F4401303D254F80C1CF940F0
:1039E0000843024643EC102BF8BD40B105FA00F045
:1039F00040F07F53002043F440130246F2E70146B3
:103A000045F07F5343F440130A4643EC102BF8BDB6
:103A10008E42C0F10B0738BF54F8081C25FA07FC8A
:103A200000F115004CF07F5334BFF940002105FA36
:103A300000F043F4401340EA010243EC102BF8BDC0
:103A40002DE9F043884683B00121154657EC106BF1
:103A5000FFF72CFC0446002850D0C7F30A59C7F3DF
:103A60001303B9F1000F01D043F48013002E01932A
:103A700025D068460096FFF711FD00283AD0DDE911
:103A80000013C0F1200203FA02F20A43C34001937B
:103A90006261002B14BF02210121A3612161B9F1F0
:103AA000000F17D0A9F2334909EB0003C0F135002C
:103AB000C8F800302860204603B0BDE8F08301A8B4
:103AC000FFF7ECFC019B6361012120302161B9F11A
:103AD000000FE7D104EB8103A0F23240C8F80000E8
:103AE0001869FFF7BBFCC0EB41102860204603B00B
:103AF000BDE8F083DDE900236261CAE70246034BBB
:103B0000034840F20A3100F069FE00BF4007010897
:103B1000880701082DE9F04383B08846694681464D
:103B2000FFF732FF404601A955EC104BFFF72CFF81
:103B3000DDE90013D9F81020D8F81000CB1A121ABA
:103B400003EB4213002B57EC106B0DDD05EB035913
:103B50004D4632463B462046294603F0DDFC41EC0B
:103B6000100B03B0BDE8F083C3EB033307EB035145
:103B70000F46EEE71728D0B504460CDD0A490B4F77
:103B80000020002632463B4603F09CFB013CF9D165
:103B900041EC100BD0BD064B03EBC004D4E904018B
:103BA00041EC100BD0BD00BF0000F03F00002440EE
:103BB000B8DC000870B414694E1E02F114037611CB
:103BC00003EB840101368B4200EB86060CD2041F06
:103BD00053F8045B44F8045F9942F9D88B1A153BFB
:103BE00023F0030304331844864204D9002340F829
:103BF000043B8642FBD870BC704700BF03694A1182
:103C0000934210B400F1140410DA04EB83039C42D5
:103C10001ED253F8040C043B18B115E053F8042DE0
:103C200092B99C42FAD35DF8044B704704EB8203CF
:103C3000EDDD11F01F01EAD054F8220020FA01F264
:103C400002FA01F18842E2D001205DF8044B70478E
:103C50000020E8E738B5074C0023054608462360F6
:103C600004F00EFF431C00D038BD2368002BFBD0AE
:103C70002B6038BDA41700202DE9F04F936883B066
:103C80009046002B6DD017688D6882460C460868F8
:103C9000083743E0A38913F4906F2ED0D4E90415BC
:103CA00005EB4505A0EB010B05EBD5750BEB06000D
:103CB0006D100130A8422A4684BF05462A465B059E
:103CC00036D511465046FEF74FFF00283AD05A46E7
:103CD00021690190FFF74CFAA289019B22F49062BE
:103CE00042F08002A281A5EB0B0203EB0B006561A1
:103CF00023612060A2603546B3465A46494600F02B
:103D00007BFFD8F80830A2682068551B58449E1BDA
:103D1000A5602060C8F808601EB3083757E902960E
:103D2000AB46002EF9D0AE42B4D23546B346E4E7F6
:103D3000504600F0C9FF03460028D4D121695046FF
:103D400000F012FE0C23CAF80030A389002243F0D1
:103D500040034FF0FF30A381C8E9012203B0BDE862
:103D6000F08F0020C8F8040003B0BDE8F08F00BF5A
:103D70002DE9F04F92468A89ABB014060491039363
:103D8000059003D50B69002B00F0B884002308933D
:103D9000CDE90E3301931AAB0D939B469AF8003090
:103DA000002B00F0C180252B00F07E84554603E0F7
:103DB000252B00F0AB8025466B786C1C002BF7D1CF
:103DC000B4EB0A0600F0B080DDE90E320133324474
:103DD000072BCBF800A0CBF80460CDE90E3200F33E
:103DE0009A800BF1080B019A6B7832440192002BF8
:103DF00000F09A804FF0000300218DF82F30637897
:103E0000084689460F4604F1010A4FF0FF380AF1CF
:103E1000010AA3F12002582A00F27482DFE812F0AE
:103E2000DF0072027202DA00720272027202720221
:103E300072027202CF00CA007202C500AC007202A8
:103E4000A7009800980098009800980098009800A3
:103E5000980098007202720272027202720272027A
:103E600072027202720272024402720272027202E0
:103E700072027202720272027202720272026700AF
:103E800072027202720272027202590072027202AD
:103E9000E301720272027202720272027202720212
:103EA0007202720272026A013D01720272027202B1
:103EB00038013D01720272022B0172023102690067
:103EC000F80126017202060172025B0072027202A0
:103ED000E70047F01007B906039B40F1068207335D
:103EE00023F00703F3E80245039301239EE147F023
:103EF000100717F0200300F0EE81039B073323F037
:103F00000703F3E80245039300238FE1B4EB0A06AD
:103F10003FF470AF58E70DAADDE90410FFF7ACFEDF
:103F200048B90DF1680B5EE70F9B23B10598049922
:103F30000DAAFFF7A1FE049B9B8913F0400F019B84
:103F400018BF4FF0FF33019301982BB0BDE8F08FFD
:103F5000A3F130024FF000091AF8013B09EB89097F
:103F600002EB4909A3F13002092AF5D951E747F0DC
:103F700080079AF800304AE7544614F8013B2A2B90
:103F800000F01784A3F13002092AA2464FF000087E
:103F90003FF63FAF1AF8013B08EB880802EB4808F0
:103FA000A3F13002092AF5D933E79AF8003047F037
:103FB00004072CE79AF8003001212B2027E7039A09
:103FC0009AF8003052F8049BB9F1000FC0F2B483A4
:103FD00003921CE747F001079AF8003017E79AF8B8
:103FE000003000287FF413AF012120200FE70029C3
:103FF00040F0D083C14A0892BE06039A40F1FC808B
:10400000073222F00702F2E802450392F90740F175
:10401000898154EA050200F0858130228DF8313023
:1040200047F002078DF830200223FFE0039C54F88C
:10403000046B4FF000038DF82F30002E00F09083BA
:10404000B8F1FF3F00F04E83424600213046FFF7B3
:104050003FF8002800F09383831BCDE902349DF8DC
:104060002F30009706934FF00008FFE047F020073D
:104070009AF80030CBE69AF800306C2B03BF9AF820
:10408000013047F020070AF1010A47F01007BEE6A9
:1040900047F040079AF80030B9E6002940F08083E5
:1040A000BA06039B40F10981073323F00703194641
:1040B000F1E80223039114461D46002A73F1000320
:1040C000C0F2D9829DF82F300693B8F1FF3F00F07F
:1040D000BA8227F08003009354EA050340F0B282CD
:1040E000B8F1000F40F049834FF00008CDF8088088
:1040F0001AAEBBE0039B53F8042B8DF8402001253A
:10410000CDE902534FF000018DF82F1010AE00974B
:104110004FF00008009B13F002030693009B18BFAA
:10412000023513F08403DDE90E12079304D1A9EBE5
:104130000504002C00F3DC819DF82F4001F1010CF7
:104140000BF1080094B101320DF12F070124BCF1ED
:10415000070FCDE90EC2CBE9007400F301828F1C7A
:104160000BF1100461468346BC462046069B7BB19A
:1041700002320CA90223BCF1070FCDE90EC2CBE934
:10418000001300F3FD81614683460CF1010C0830F9
:10419000079B802B00F0F280029BA8EB0307002F07
:1041A00000F33481029BCDF838C01A44BCF1070FEC
:1041B0000F92CBE9006300F36B81009B5B0704D592
:1041C000A9EB0504002C00F3EB81019BA945ACBFD2
:1041D0004B445B190193002A40F0818100230E9328
:1041E0000DF1680BDAE5002940F0DD82444A0892BF
:1041F000BE06039A3FF504AF52F8044B0392FD0646
:1042000000F12F82780640F12C82A4B20025FDE651
:10421000039B53F8044B039347F63002374B089344
:10422000ADF8302047F00207002502234FF00002CE
:104230008DF82F2000220692B8F1FF3F75D027F0AD
:104240008002009254EA05026ED1B8F1000F40F0EE
:10425000DD81002B7FF448AF17F00103029300F0DB
:10426000268230238DF867300DF16706029B4345A7
:10427000B8BF43461D46069B002B3FF44BAF0135AC
:1042800048E7002940F08382039ABD0652F8043BB8
:10429000039200F12082FC0600F13D82780640F195
:1042A0003A82019A1A8079E5002940F0768247F037
:1042B0001007BA06039B3FF5F7AE53F8044B039380
:1042C000FB0600F1D0817E0640F1CD8124B2E517D6
:1042D00022462B46F1E6039A52F8044B039217F05C
:1042E000100200F0F1810025A0E753F8044B03937E
:1042F000FA0640F1E3810025012397E71007010842
:10430000FC060108002940F03582002B3FF40CAE7A
:1043100001258DF840304FF000038DF82F300295C5
:1043200010AEF4E6022381E7009F012B00F08B81A1
:10433000022B00F072811AA900E03146E20842EA3D
:104340004572E80804F0070305461446303354EA82
:10435000050201F8013C01F1FF36EED1FA0740F108
:10436000B980302B00F0B6803023023906F8013CCA
:104370001AAB5B1A009702930E4677E7A9EB050785
:10438000002F7FF709AF102FCA4C40F30F8206961B
:1043900058461023D346049EAA46059D04E0103FCC
:1043A000102F00F1080017DD013110320729CDE987
:1043B0000E12C0E90043F2DD0DAA31462846FFF790
:1043C0005BFC00287FF4B7AD103F102FDDE90E1223
:1043D0001AA84FF01003E7DC069E55460131DA4675
:1043E00000F1080383463A4407290F92CBE90047BE
:1043F0000E9100F3A58103F108009B46029BA8EBF8
:104400000307002F01F1010C7FF7CCAE102FA94C50
:1044100040F3AE81069658462646D3464FF0100824
:10442000AA46059C049D04E0103F102F00F10800EF
:1044300015DD013110320729CDE90E12C0E90068FF
:10444000F2DD0DAA29462046FFF716FC00287FF46E
:1044500072AD103F102FDDE90E121AA8E9DC3446C8
:10446000069E554601F1010CDA4600F10803834629
:104470003A44BCF1070F0F92CBE90047CDF838C0A2
:1044800000F302810CF1010C03F108009B4689E660
:104490000DAADDE90410FFF7EFFB00287FF44BAD18
:1044A0000F9A1AA889E61AAE01E004460D460A22C0
:1044B00000232046294603F0DDF9303206F8012DAD
:1044C00000230A222046294603F0D4F9002D08BF14
:1044D0000A2CEAD21AAB9B1B00970293C6E60DAAE0
:1044E000DDE90410FFF7C8FB00283FF477AE22E5B2
:1044F000102C714F28DD099658461023D346049E90
:10450000AA46059D04E0103C102C00F1080017DDC0
:10451000013110320729CDE90E12C0E90073F2DD36
:104520000DAA31462846FFF7A7FB00287FF403AD0C
:10453000103C102CDDE90E121AA84FF01003E7DC36
:10454000099E5546DA468346013122440729CDE9C2
:104550000E12CBE9007400F3E2800BF1080BEBE5DF
:104560000DAADDE90410FFF787FB00287FF4E3AC18
:10457000DDE90E121CA801F1010C0DF1680BF5E547
:104580000DAADDE90410FFF777FB00287FF4D3AC18
:10459000DDE90E121CA801F1010C0DF1680BF7E525
:1045A000102C0E9B444F1EDD1026DDE904B804E0FC
:1045B000103C102C00F1080015DD01331032072BE0
:1045C000CDE90E32C0E90076F2DD0DAA594640462B
:1045D000FFF752FB00287FF4AEAC103C102CDDE955
:1045E0000E321AA8E9DC01332244072BCDE90E3242
:1045F000C0E900747FF7E9AD0DAADDE90410FFF70B
:104600003BFB00287FF497AC0F9ADEE5012B00F00E
:10461000B480022B009F7FF48EAE08981AAE230957
:1046200004F00F0143EA05732A091C461546435C52
:1046300006F8013D54EA0503F1D11AAB9B1B009724
:10464000029313E6009F002D08BF0A2CBFF42BAF86
:10465000303401238DF86740009702930DF167060F
:1046600004E60025D2E4E51722462B46002A73F122
:104670000003BFF627AD2D2364428DF82F3006933B
:1046800065EB45050123D7E50DAADDE90410FFF729
:10469000F3FA00287FF44FACDDE90E321CA803F1D9
:1046A000010C0DF1680B7DE55446FFF7A3BB1AAE74
:1046B000DCE500BFF0DD0008E0DD00087B0648BF58
:1046C000A4B200250123B1E517F040031CBF134637
:1046D000A4B20025AAE5019A1046D117C3E900014A
:1046E000FFF75CBB304603940097FBF7A9FE9DF8EB
:1046F0002F30029006934FF00008B7E54021FEF7F7
:1047000033FA049B1860186100285DD0049A402396
:104710005361FFF73BBB019A1A60FFF73FBB0DAA3D
:10472000DDE90410FFF7A8FA00287FF404ACDDE906
:104730000E120DF1680BFFE4C9F10009039236E493
:104740000DAADDE90410FFF797FA00287FF4F3AB18
:10475000DDE90E121CA801F1010C0DF1680B1BE53F
:104760004546062D28BF0625CDE902541A4ECEE453
:1047700003467DE68DF82F00C7E5009F68E79DF8AA
:104780002F300693CDE90284009780466EE58DF8C0
:104790002F0079E58DF82F002CE48DF82F0086E5A9
:1047A0008DF82F007CE48DF82F001FE5034661464D
:1047B00019E6039D9AF8013055F8042B0395A2469B
:1047C00042EAE278FFF723BB059A0C2313604FF00F
:1047D000FF330193FFF7B8BB2407010800B50A4C6B
:1047E0002668054685B01C46F06852B1074B00911B
:1047F000CDE9013206492B46224600F051F801F07E
:104800008DFC044B1A46F2E708000020BC070108A3
:10481000CC0701083CDE000808B513460022FFF76C
:10482000DDFF00BF10B502FB01F1FEF79DF9044664
:1048300068B150F8042C22F00302043A242A18D854
:10484000132A06D802460023C2E9003393602046AB
:1048500010BD00231B2AC0E900330FD9242AC0E968
:10486000023312BF00F11002C0E9043300F1180254
:10487000E9E70021FBF73AFD204610BD00F10802F0
:10488000E1E700BF0CB400B583B004AB53F8042BD0
:10489000019300F089FD03B05DF804EB02B07047AE
:1048A0000EB410B583B005AB064C53F8042B01933E
:1048B0000146206800F078FD03B0BDE8104003B069
:1048C000704700BF08000020F8B5244F0C4606468C
:1048D000FEF7E8FCBB685D68C4F57E610F3125F02A
:1048E0000305294421F47F6121F00F01A1F58054D3
:1048F000B4F5805F07DB00213046FFF7ABF9BB68FA
:104900002B44984204D03046FEF7CEFC0020F8BD80
:1049100061423046FFF79EF901300DD0104BBA6866
:1049200019682D1B45F001053046091B55601960BB
:10493000FEF7BAFC0120F8BD00213046FFF78AF9E6
:10494000BA68831A0F2BDEDD064C0549246843F054
:104950000103001B53600860D5E700BF3804002046
:10496000F80900204008002000295ED0F8B50F4665
:104970000646FEF797FC57F804CC754D2CF0010362
:10498000A7F10800C218A9685468914224F00304F2
:1049900000F084801CF0010F546002EB040133D15D
:1049A00057F808EC4968A0EB0E0005F1080C876881
:1049B0006745734401F0010160D0D0F80CE0C7F8FE
:1049C0000CE0CEF80870002900F08D8043F0010162
:1049D00041601360B3F5007F30D2DB08591C6C686E
:1049E0009A1001239340234305EBC10255F831404F
:1049F0006B60083AC0E9024245F83100E060304699
:104A0000BDE8F840FEF750BC4968C9070ED42344FE
:104A100005F1080C9168614543F001046BD0D26840
:104A2000CA6091604460C350D4E7704743F001010D
:104A3000B3F5007F47F8041C1360CED35A0A042A4A
:104A400046D89A0902F13907FF0002F13801EC1942
:104A5000EA59083C944255D0516821F0030199422B
:104A600002D992689442F7D1D468C0E90224A060C8
:104A7000D0603046BDE8F840FEF716BC002962D190
:104A8000D2E90221234443F00104D1608A604460EA
:104A9000C3503046BDE8F840FEF706BC1CF0010FDD
:104AA000234407D157F8082C801A1344D0E9021286
:104AB000CA609160274A126843F001019A4241603E
:104AC000A8609CD8244B30461968FFF7FDFE96E796
:104AD000142A0AD9542A1DD81A0B02F16F07FF00B5
:104AE00002F16E01B3E7234494E702F15C07FF0093
:104AF00002F15B01ABE7C5E90400C0E902CC446008
:104B0000C3507CE76B688910012707FA01F119434C
:104B10006960AAE7B2F5AA7F06D8DA0B02F1780736
:104B2000FF0002F1770192E740F254518A4206D821
:104B30009A0C02F17D07FF0002F17C0187E74FF438
:104B40007E777E2183E743F001014160136056E7E1
:104B50003804002044080020F409002042B110B5B8
:104B60000B491046144600F06FFA18B9094810BDF9
:104B7000084870470749204600F066FA0028F5D03B
:104B80002046054900F060FA0028EFD0002010BD53
:104B900000080108FC0701083CDE0008014B93F8FF
:104BA0002801704748080020024B0A460146186851
:104BB000FFF7D4BF0800002010B4034CD4F8E44041
:104BC000A4465DF8044B60474808002082B049B114
:104BD0005AB16BB113780B601278101C18BF01200A
:104BE00002B0704701A9002AF3D1104602B0704705
:104BF0006FF00100F4E700BF8842F0B40DD98B18C4
:104C000083420AD9841832B1224613F8014D02F8C2
:104C1000014D9942F9D1F0BC70470F2A0ED80346D6
:104C2000541E002AF7D001340C44013B11F8012B2B
:104C300003F8012FA142F9D1F0BC704740EA01030B
:104C40009B073BD1A2F110073F0901F1200606EBBB
:104C5000071601F1100300F1100453F8105C44F83A
:104C6000105C53F80C5C44F80C5C53F8085C44F896
:104C7000085C53F8045C44F8045C1033B34204F15C
:104C80001004EAD17B1C1B0112F00C0F194402F036
:104C90000F05034415D0043DAD0803EB850C1C1F24
:104CA0000E4656F8047B44F8047F6445F9D101357B
:104CB000AD002B44294402F00302B1E7541E034621
:104CC000B1E72A46ACE700BF2DE9F84F17460029A7
:104CD00000F0BB8007F10B0481460D46FEF7E2FAB7
:104CE000162C5ED810242246A7425FD855F804EC53
:104CF0002EF00306A5F10808964208EB060A80F29A
:104D00008180CB4BDAF804009968514500F0B580FA
:104D100020F0010353445B68DB0700F18A8020F038
:104D200003003318934280F212811EF0010F0FD15D
:104D300055F8083CA8EB030BDBF8041021F0030145
:104D400008448319934280F216817318934234DA2F
:104D500039464846FDF708FF0746E0B155F8043CE0
:104D600023F001034344A0F10802934200F0F780CE
:104D7000321F242A00F2FB80132A296800F2C9801E
:104D800003462A4619605168596092689A6029461C
:104D90004846FFF7E9FD4846FEF786FA3846BDE883
:104DA000F88F24F00704002C22469DDA0C23C9F862
:104DB000003000273846BDE8F88F5F46DBF80C105E
:104DC00057F8080F321F242AC1600BEB030A8860D2
:104DD00000F2D980132A296840F2D380CBF808105A
:104DE0006968CBF80C101B2AA96800F2E0800BF16F
:104DF00010020835116069685160A96891601E460B
:104E0000D8463D46D8F80430321B0F2A03F0010380
:104E100020D83343C8F80430DAF8043043F00103F3
:104E2000CAF8043048462F46FEF73EFA3846BDE839
:104E3000F88F1EF0010F8BD155F8083CA8EB030B3F
:104E4000DBF8041021F003017FE71146BDE8F84FBD
:104E5000FDF78ABE08EB0401234342F00102C8F8C3
:104E600004304A60DAF8043043F001030831CAF82C
:104E700004304846FFF778FDD4E720F003003118EE
:104E800004F1100C61454FDA1EF0010F7FF460AFA2
:104E900055F8081CA8EB010BDBF8041021F0030106
:104EA000084400EB060AD4453FF74FAF5F46DBF8F6
:104EB0000C1057F8080F321F242AC160886000F2D6
:104EC0009980132A296840F29380CBF8081069680A
:104ED000CBF80C101B2AA96800F292800BF110028B
:104EE0000835116069685160A96891600BEB040195
:104EF000AAEB040242F0010299604A60DBF8043038
:104F000003F001031C434846CBF80440FEF7CCF9FC
:104F100050E701606B6843601B2A3CD805F108022A
:104F200000F10803A9682DE708EB04000A1B42F012
:104F300001029860426055F8043C03F001031C43F1
:104F4000484645F8044CFEF7AFF92F4632E7DAE958
:104F500002121E46CA6008EB030A916052E750F83D
:104F6000043C23F003031E4408EB060A4AE72946E3
:104F7000FFF742FE0BE7DAE902125F46CA60916072
:104F80001CE73A4636E7294638461E46D846FFF71C
:104F900033FE3D4636E7AB688360EB68C360242A86
:104FA00011D005F1100200F110032969EAE6CBF8EF
:104FB0001010E968CBF81410242A0ED029690BF1DF
:104FC0001802103516E72B6903616B694361A96903
:104FD00005F1180200F11803D4E62A69CBF818206D
:104FE0006A69CBF81C20A9690BF12002183501E78A
:104FF0003A4676E729463846FFF7FEFD0C4B75E743
:10500000CBF81010E968CBF81410242A04D02969D1
:105010000BF11802103564E72A69CBF818206A6989
:10502000CBF81C20A9690BF12002183559E700BF05
:105030003804002000000000000000000000000014
:10504000A2EB0300704700BF02780B78012A28BF4B
:105050009A42F5D16DE9044540EA0104CDE90267C1
:105060006FF0000C4FEA447212B380EA010414F0AE
:10507000070F6AD100F0070420F0070004F00305D1
:1050800021F007014FEAC505F0E8042314F0040FEE
:10509000F1E804670CFA05F462EA040266EA040621
:1050A0000AD063EA0403624667EA0407664603E03F
:1050B000F0E80423F1E8046782FA4CF582EA06047A
:1050C000A4FA8CF46CBB83FA4CF583EA0705A5FAC5
:1050D0008CF595B950E9022351E9026782FA4CF543
:1050E00082EA0604A4FA8CF483FA4CF583EA0705F5
:1050F000A5FA8CF52543DBD09CB92DBAB5FA85F419
:1051000024F0070427FA04F1DDE9026723FA04F327
:1051100003F0FF0001F0FF01FDE80445A0EB0100F2
:10512000704724BAB4FA84F424F0070426FA04F190
:10513000DDE9026722FA04F202F0FF0001F0FF014C
:10514000FDE80445A0EB0100704714F0030F3CD1CB
:1051500010F0030428D150F8082B51F8083B82FACC
:105160004CF582EA0305A5FA8CF55DB950F8042CDC
:1051700051F8043C82FA4CF582EA0305A5FA8CF555
:10518000002DE8D02DBAB5FA85F424F0070423FAEF
:1051900004F122FA04F202F0FF0001F0FF01FDE841
:1051A0000445A0EB010070474FEAC40420F003005F
:1051B00050F8082B21F0030151F8083B0CFA04F4D5
:1051C00062EA040263EA0403C9E710F003041AD098
:1051D000A1EB040120F00300E40750F8042B06D0F3
:1051E0000FD28B785FFAA2F4E41A06D12BB1CB78F8
:1051F0005FFAB2F4E41A00D11BB920465DF8104BF7
:10520000704701F1040150F8042BCC0721F0030191
:1052100051F8043B48D824D222F07F4482FA4CF55E
:1052200094EA1325A5FA8CF50AD165B951F8043B27
:1052300084EA0204B4EB036F0ED150F8042BEBE7C1
:105240004FEA132355E035F07F454DD10878FDE84E
:105250000445C0F1000070474FEA126203F0FF03FB
:1052600047E002EA1C4482FA4CF594EA1345A5FA99
:105270008CF50AD165B951F8043B84EA0204B4EB19
:10528000034F0CD150F8042BEBE74FEA134330E007
:1052900015EA1C4528D10B884FEA124229E04FEA53
:1052A000124203EA1C4324E002F0FF0482FA4CF5A8
:1052B00094EA1365A5FA8CF50AD165B951F8043B57
:1052C00084EA0204B4EB032F09D150F8042BEBE776
:1052D0004FEA13630DE015F0FF0F05D10B684FEA9D
:1052E000122223F07F4304E04FF00000FDE8044564
:1052F000704712BA1BBA82FA4CF482EA0304A4FA89
:105300008CF5B5FA85F402FA04F203FA04F34FEAD5
:105310001260FDE80445A0EB136070472DE9F84FDB
:105320004B6E9C0493462DD59368126843B30E468A
:10533000074602F1080959E9025A5FEA9A0815D0AE
:10534000043D002401E0A0450ED0324655F8041F6C
:10535000384601F00BF9431C04F10104F3D100239A
:10536000CBE90133BDE8F88FDBF808302AF0030AF7
:10537000A3EB0A03CBF8083009F10809002BDAD1B6
:105380000020ECE701F026F90023CBE90133BDE86A
:10539000F88F00BF936803B1C0E710B4184653609C
:1053A0005DF8044B704700BF2DE9F04FABB01C46D1
:1053B0008A469046CDE9043018B1836B002B00F08B
:1053C000FF82BAF90C108AB290040AD4DAF8643079
:1053D00041F4005223F40053AAF80C20CAF86430B8
:1053E00092B2110740F1CA80DAF81030002B00F0B9
:1053F000C58002F01A020A2A00F0CE80002308932A
:10540000CDE90E3302931AAB0D939B4698F800300A
:10541000002B00F0DF80252B00F01C85454603E0C3
:10542000252B00F0C68025466B786C1C002BF7D12D
:10543000B4EB080600F0CE80DDE90E3201333244D1
:10544000072BCBF80080CBF80460CDE90E3200F3D7
:10545000B5800BF1080B029A6B7832440292002B54
:1054600000F0B8804FF0000300218DF82F306378F2
:10547000039108460F4604F101084FF0FF3908F187
:105480000108A3F12002582A00F29D82DFE812F001
:10549000F9009B029B02F4009B029B029B029B0271
:1054A0009B029B02E900E4009B02DF00C6009B0216
:1054B000C100B200B200B200B200B200B200B2004D
:1054C000B200B2009B029B029B029B029B029B02CA
:1054D0009B029B029B029B0228029B029B029B0257
:1054E0009B029B029B029B029B029B029B0267000A
:1054F0009B029B029B029B029B0259009B029B0208
:1055000013029B029B029B029B029B029B029B023B
:105510009B029B029B02840157019B029B029B0200
:10552000520157019B029B0245019B026E026900DA
:105530003F0240019B0220019B025B009B029B02F9
:10554000010147F01007BA06049B40F1228207339D
:1055500023F00703F3E8024504930123E5E147F054
:10556000100717F0200300F02182049B073323F07B
:105570000703F3E8024504930023D6E1514605985A
:1055800000F064FD002840F0F484BAF80C2002F02A
:105590001A020A2A7FF432AFBAF90E30002BFFF656
:1055A0002DAF234642465146059800F001FD02907A
:1055B0001CE0B4EB08063FF455AF3DE7002A00F0CD
:1055C0000F840DAA51460598FFF7A8FE48B90DF1C2
:1055D000680B40E70F9B23B105980DAA5146FFF7D2
:1055E0009DFEBAF80C305B0600F1C38402982BB024
:1055F000BDE8F08FA3F13002002418F8013B04EB62
:10560000840402EB4404A3F13002092AF5D903947F
:1056100037E747F0800798F8003030E7444614F841
:10562000013B2A2B00F0AA84A3F13002092AA046EC
:105630004FF000093FF625AF18F8013B09EB890947
:1056400002EB4909A3F13002092AF5D919E798F8C4
:10565000003047F0040712E798F8003001212B20B2
:105660000DE7049A98F8003052F8044B0394002C8C
:10567000C0F21584049202E747F0010798F8003061
:10568000FDE698F8003000287FF4F9AE01212020D3
:10569000F5E6002940F05B84C24A0892B806049AF5
:1056A00040F11281073222F00702F2E8024504922B
:1056B000FE0740F1988154EA050200F094813022FF
:1056C0008DF8313047F002078DF8302002232CE1AD
:1056D000049C54F8046B4FF000038DF82F30002E1B
:1056E00000F00784B9F1FF3F00F0DE834A46002155
:1056F0003046FDF7EDFC002800F01984831B019370
:105700009DF82F300494009706934FF00009AFE105
:1057100047F0200798F80030B1E698F800306C2B7D
:1057200003BF98F8013047F0200708F1010847F05F
:105730001007A4E647F0400798F800309FE60029DC
:1057400040F00184BA06049B40F1D380073323F074
:1057500007031946F1E80223049114461D46002A66
:1057600073F10003C0F249839DF82F300693B9F11D
:10577000FF3F00F0148327F08003009354EA0503F1
:1057800040F00C83B9F1000F40F0CF834FF00009D7
:10579000CDF804901AAE6BE1049B012553F8042B5D
:1057A0008DF840204FF000018DF82F1004930195E3
:1057B00010AE00974FF00009009BDDE90E2C13F0AE
:1057C00002030693009B18BF0235501C13F084039C
:1057D0000146079304D1039B5C1B002C00F3248239
:1057E0009DF82F400BF108007CB10CF1010C0DF17C
:1057F0002F0401220729CDE90E1CCBE9004200F35A
:10580000F3810A46834601310830069BE3B10CF16F
:10581000020C0CAA02230729CDE90E1CCBE90023B8
:1058200040F3FC81BCF1000F00F0FD820DAA51464F
:105830000598FFF773FD00287FF4D3AEDDE90E2C49
:105840001CA8511C0DF1680B079B802B00F01B81DD
:10585000019BA9EB0307002F00F37281019A0E91BF
:105860001346634407290F93CBE900620CDD002B3C
:1058700000F023820DAA51460598FFF74FFD00283E
:105880007FF4AFAE0F9B1AA8009A520704D5039A73
:10589000541B002C00F31A82DDE90221A942ACBF9F
:1058A000521852190292002B40F0908100230E935F
:1058B0000DF1680BAAE5002940F052833A4A08929C
:1058C000B806049A3FF5EEAE52F8044B0492F9067E
:1058D00000F19C827A0640F19982A4B20025E7E6A5
:1058E000002940F02D8347F01007BA06049B3FF5CE
:1058F0002DAF53F8044B0493FE0600F176827D062B
:1059000040F1738224B2E51722462B4627E7049B19
:1059100053F8044B049347F63002224B0893ADF83A
:10592000302047F00207002502234FF000028DF8D7
:105930002F2000220692B9F1FF3F57D027F08002B6
:10594000009254EA050250D1B9F1000F40F00982EB
:10595000002B7FF41BAF17F00103019300F07D8251
:1059600030238DF867300DF1670681E0002940F0A3
:10597000F282049ABC0652F8043B049200F182823F
:10598000F80600F1AA82790640F1A782029A1A80ED
:105990003CE553F8044B0493FE0640F16D8200256C
:1059A0000123C2E710070108FC060108049A52F817
:1059B000044B049217F0100200F057820025B4E760
:1059C00000F060FDFDE4002940F0AC82002B3FF4C4
:1059D00001AE01258DF840304FF000038DF82F30D7
:1059E000019510AEE5E602239FE7009F012B00F032
:1059F000D681022B00F0BC811AA900E03146E208F2
:105A000042EA4572E80804F00703054614463033BD
:105A100054EA050201F8013C01F1FF36EED1F80726
:105A200022D5302B20D03023023906F8013C1AABA6
:105A30005B1A009701930E461AE01AAE01E0044685
:105A40000D460A2200232046294601F013FF30327A
:105A500006F8012D00230A222046294601F00AFFFC
:105A6000002D08BF0A2CEAD21AAB9B1B00970193AA
:105A7000019B4B45B8BF4B461D46069B002B3FF490
:105A80009BAE013598E6039B5F1B002F7FF7E0AECE
:105A9000102FC04C40F36A826346DC46AB46254675
:105AA000059C06E0901C0CF1080C0A46103F102FD4
:105AB0001EDD511C1033102007290F93CCF8005025
:105AC000CCF804000E91EDDD0DAA51462046002BC6
:105AD00000F08580FFF722FC00287FF482ADDDE92D
:105AE0000E23103F102F02F101000DF1680CE0DCD5
:105AF0002C465D46E3469C460BF10803BC44072850
